:020000040800F2
:1000000000440120C5FA02081751000827510008D2
:100010003751000847510008575100080000000000
:100020000000000000000000000000006751000810
:100030007751000800000000875100089751000820
:100040008553000885530008855300088553000830
:100050008553000885530008855300088553000820
:1000600085530008A75100088553000885530008F0
:100070008553000885530008855300088553000800
:1000800085530008855300088553000885530008F0
:1000900085530008855300088553000885530008E0
:1000A00085530008C3510008855300088553000894
:1000B0008553000803520008855300088553000843
:1000C00085530008855300088553000885530008B0
:1000D00085530008855300088553000845530008E0
:1000E000135200088553000885530008BD520008CC
:1000F000EF52000885530008855300088553000817
:10010000855300085553000885530008855300089F
:10011000855300088553000885530008855300085F
:10012000855300088553000885530008655300086F
:10013000855300088553000885530008855300083F
:10014000855300088553000885530008755300083F
:10015000855300088553000885530008855300081F
:10016000855300088553000885530008855300080F
:1001700085530008855300088553000885530008FF
:100180008553000880B500F03FF802BD80B500F04F
:1001900076F802BD80B5DFF808080078002808D19D
:1001A0000021DFF8000802F0F7FBDFF8F407012177
:1001B0000170DFF8F4070078002808D10021DFF88B
:1001C000EC0702F0E9FBDFF8E00701210170DFF83E
:1001D000E0070078002808D10021DFF8D80702F0F6
:1001E000DBFBDFF8CC0701210170DFF8CC070078DA
:1001F000002808D10021DFF8C40702F0CDFBDFF8AA
:10020000B8070121017001BD10B50400DFF8B00787
:100210002060DFF8B0076060DFF8A807A06000206A
:10022000E060DFF8A00720615F20A07500200021BA
:10023000C4E9060100202062002084F82400022086
:1002400084F825000020A062012084F82C00002002
:10025000206300206063012084F838000020E06300
:1002600000202064012084F844000020A064A07DC8
:1002700020750020607502F091FC200010BD10B5C3
:100280000400DFF83C07206002F08CFC200010BD69
:100290004163704780B50A0010F1400110001268F8
:1002A0005269904701BDC163704781757047816293
:1002B000704741607047406870478160704710B573
:1002C0000400E160E06802F00BFB206110BD10B596
:1002D0000400022084F82500012084F82C00E06846
:1002E00000280CD0A168E06802F0B0FAE06802F0E3
:1002F000D7FA00222169200023689B68984710BD27
:10030000012180F82510704790F84410002280F8F1
:1003100044200800C0B2704710B504002000FFF769
:1003200031FFDFF8A406206014F14C0002F052FC0B
:100330000020E06500202066200010BD10B50400FC
:10034000DFF88406206014F14C0002F053FC20001A
:10035000FFF71CFF200010BD80B50800002803D067
:10036000DFF8601602F05EFC002002BD000070B5F0
:1003700006000C00256816F14C0002F075FC401ECA
:10038000854201D3012000E00020C0B2002801D046
:10039000002033E06D1C00E06D1C16F14C0002F0F3
:1003A00063FC854201D2012000E00020C0B2002899
:1003B0000AD0290016F14C0002F05BFC00790028FD
:1003C000EAD02560012019E016F14C0002F04CFC47
:1003D000401E85420AD1290016F14C0002F049FC6A
:1003E000007990F0010090F0010000E00020C0B220
:1003F000002802D02560012000E0002070BD70B50B
:1004000004000D002E68002E01D1002020E0761E91
:1004100000E0761E002E0AD0310014F14C0002F0EC
:1004200028FC00790028F4D02E60012010E0002E76
:100430000DD1310014F14C0002F01BFC007990F05A
:100440000100C0B2002802D12E60012000E000208F
:1004500070BD2DE9F04782B004000D000026606BEE
:10046000002805D0606B616B0968C9688847060081
:1004700094F82C00002800F08280E06B02F0FDFB75
:10048000B3A300220021E06B02F004FC63680022A9
:100490000321E06B02F0FEFB14F14C0002F0E4FBE0
:1004A00000280AD0216E14F14C0002F0E2FB007922
:1004B00090F0010090F0010000E00020C0B20028A0
:1004C0005DD05FF00109E06D471C5FF0010AE06B51
:1004D00002F0EBFBB0F10108206E0090009914F1DE
:1004E0004C0002F0C6FB0068FFF7E5FE03003A008F
:1004F0000121E06B02F0CEFB022F1BD3B7F1010903
:1005000015E000A92000FFF77AFF00280DD0009920
:1005100014F14C0002F0ADFB0068FFF7CCFE0300C5
:100520004A460121E06B02F0B5FBB9F10109B9F1CE
:10053000000FE6D1206E009047451AD217F101094D
:1005400015E000A92000FFF712FF00280DD0009948
:1005500014F14C0002F08DFB0068FFF7ACFE0300C5
:100560004A460121E06B02F095FB19F10109C845EB
:10057000E7D278A33A000021E06B02F08BFBF6B2E1
:100580000C2E67D00D2E05D00E2E23D0102E00F08D
:1005900084808DE0E06D00280BD1206E002818D0FB
:1005A00014F160012000FFF72AFF012084F82C00DD
:1005B0000FE0206E002809D014F160012000FFF741
:1005C0001EFF002802D0E06D401EE065012084F887
:1005D0002C006DE0E06B02F068FB801EE16D814253
:1005E00001D3012000E00020C0B2002816D014F191
:1005F0004C0002F039FB401E216E814201D20120E5
:1006000000E00020C0B2002823D014F160012000D7
:10061000FFF7ADFE012084F82C001AE014F14C0025
:1006200002F022FB401E216E814201D2012000E037
:100630000020C0B200280CD014F160012000FFF7A8
:1006400096FE002802D0E06D401CE065012084F891
:100650002C002DE014F14C0002F006FB002801D024
:10066000012000E00020C0B2002815D0216E14F156
:100670004C0002F0FEFA21000068FFF718FE216E20
:1006800014F14C0002F0F5FA00682860012084F8AB
:100690002C00012084F838000AE0A06A002807D066
:1006A000012084F82C00A06A2860012084F838001A
:1006B000BDE8F3871CB5040000918DF80420606B41
:1006C000002803D0616B0098FFF7E2FDE068002886
:1006D00003D0E1680098FFF7F2FDE06B002805D039
:1006E000E16B0098009A126812689047A17D00980B
:1006F000FFF7DBFD21000098FFF7D9FD00A914F1F9
:100700004C0002F0D4FA002020660020E0650021B1
:1007100014F14C0002F0ADFA0079002804D114F174
:1007200060012000FFF723FE012084F82C0014F163
:100730004C0002F099FA401E16BD80B50800002852
:1007400002D096A102F06EFA002002BD0000000067
:100750005E7E00003E00000038B504000D0014F17C
:100760004C0002F081FA401EA84201D2012000E0B4
:100770000020C0B200281AD1290014F14C0002F068
:1007800078FA00210171002020660020E065002138
:1007900014F14C0002F06DFA0079002804D114F134
:1007A00060012000FFF7E3FD012084F82C0031BD3B
:1007B00038B504000D0014F14C0002F055FA401E4B
:1007C000A84201D2012000E00020C0B200281AD1C6
:1007D000290014F14C0002F04CFA012101710020B3
:1007E00020660020E065002114F14C0002F041FA7F
:1007F0000079002804D114F160012000FFF7B7FD53
:10080000012084F82C0031BD2DE9F04104000D00D9
:10081000160000275FF0000801E018F1010814F14C
:100820004C0002F021FA804501D2012000E00020B6
:10083000C0B2002812D0414614F14C0002F019FA5F
:100840000068A84201D1012000E00020C0B20028C9
:10085000E3D00127002E01D0C6F800803800C0B2D6
:10086000BDE8F08110B582B004000020009000AA1D
:100870002000FFF7C9FF002803D000992000FFF7F0
:100880006BFF13BD10B582B004000020009000AAD9
:100890002000FFF7B9FF002803D000992000FFF7E0
:1008A00087FF13BD2DE9F84304000D00160020005A
:1008B000FFF768FCDFF8740C20604248E0644148B0
:1008C000206540486065022084F858000020E065FB
:1008D00000202066002060660020A066E5660020FB
:1008E00084F8700000206067012084F87800002000
:1008F0000021C4E92001E06ED0E90023C4E92223ED
:100900000020C4F89000002084F89400002000210A
:10091000C4E92601002084F8A0000020A062002085
:100920002062A07D20750020607584F8246000207E
:10093000E06002F033F9DFF8F80BD0E900234FF460
:10094000FA760027A6FB020106FB031107FB021142
:10095000DFF8E02BD2E900674FF47A785FF0000906
:10096000A8FB062308FB073309FB063302F0C2F994
:1009700002000B0014F1180002F0EEF82000BDE8B0
:10098000F28310B50400DFF8A40B206002F00AF92E
:100990002000FFF7FBFB200010BD0000000000005E
:1009A000762A0020DC290020772A0020E429002074
:1009B000782A0020E0290020752A0020D82900206C
:1009C0003CDF02086C2A002058DF020841667047AD
:1009D0008166704770B584B00400089D099E0A982E
:1009E000616584F85800E5652666E26423650125A3
:1009F000E06C02F029FAE16D691840182D18206D9D
:100A000002F022FA4519D4F8900002F038FA681C76
:100A100002F037FAC4F89000E06ED0E90023C4E990
:100A2000222394F858000290206E0190E06D00900F
:100A3000D4E92223606D02F061FA616DD4F8900070
:100A400002F0F0F8012084F844007FBD10B50400E6
:100A5000E26D2021606D02F082FCE06D616D00228C
:100A6000425410BD2DE9FE4304000D0016009846C7
:100A7000DDF82890002D00F0B78000275FFA88F895
:100A8000B8F1010F1DD0E06C02F0DEF90700002E76
:100A90000CD0BE420AD237003A00E16C280002F0C6
:100AA00068FC002078553800BDE8FE83002003E094
:100AB000E16C415C4155401CB842F9D32020785587
:100AC0007F1CD4E9220102000B00D4F86CC0DCE9E1
:100AD000000102F055FC24D0012084F844005FFAA4
:100AE00089F9B9F1000F16D1E26ED2E90001C4E92B
:100AF000220194F858000290206E0190E06D009061
:100B0000D4E92223606D02F0F9F9616DD4F8900008
:100B100002F088F80AE0D4F89010606D02F082F8D4
:100B200004E0D4F89010606D02F07CF8606D02F083
:100B30008BF98146002E0FD019EB070086420BD2AD
:100B4000B6EB07094A46616D781902F012FC19EB01
:100B5000070000214155A7E7002004E03918626D25
:100B6000825C4A55401C4845F8D35FFA88F8B8F1D2
:100B7000020F34D019EB07002021415519F101096A
:100B8000206D02F061F98046002E16D019EB0700A7
:100B900018EB0000864210D2F01BB0EB0908424669
:100BA000216D19EB0700401902F0E3FB19EB070078
:100BB00018EB00000021415576E7002006E03918C7
:100BC00019EB0101226D825C4A55401C4045F6D369
:100BD00019EB070018EB00000021415564E719EB01
:100BE0000700002141555FE700205DE700207047C6
:100BF00080F82410704780F8941090F89410002921
:100C000002D1002180F8A0107047C0E92623704768
:100C100090F89420012A01D180F8A010704730B5D7
:100C20000400D4E92223E56ED5E9000102F0A8FB17
:100C300004D0002084F84400012005E094F844002A
:100C4000002184F84410C0B230BD00002DE9FE43FD
:100C500004000D0094F83800002805D0002084F826
:100C600038002000FFF733FB0026606B002805D01A
:100C7000606B616B0968C9688847060094F82500B5
:100C8000012800F0F780022840F04D8494F82400F9
:100C900000286ED02000FFF7D9FEE06B01F0EDFFD9
:100CA000012084F82C00DFF88808D0E900234FF4F5
:100CB000FA760027A6FB020106FB031107FB0211CF
:100CC000DFF87028D2E900674FF47A785FF0000906
:100CD000A8FB062308FB073309FB063302F00AF8DA
:100CE00002000B0014F1180001F036FF002084F818
:100CF000700000202062636800220021E06B01F098
:100D0000C9FF94F858000290206E0190E06D0090A9
:100D1000E06ED0E90023606D02F0F0F801250026B6
:100D2000E06C02F091F8471C606D02F08DF8C0197C
:100D300010F101085FF00109E36C4A463100E06BF5
:100D400001F0A8FF636D4A463900E06B01F0A2FF95
:100D5000236D4A464146E06B01F09CFF2020207540
:100D6000E06ED0E90023C4E922232000FFF7C8FA8F
:100D70007FE0F6B20C2E02D0102E17D01CE094F8B3
:100D80002400002811D0012084F82C00A06A2860DB
:100D9000012084F83800E068002806D1E06B01F0FB
:100DA00084FF411EE06B02F0FBFA62E0A06A28605B
:100DB000012084F838005CE094F82C00002803D16E
:100DC00094F82400002838D1E06B01F056FF6368E6
:100DD00000220021E06B01F05DFF94F858000290C2
:100DE000206E0190E06D0090E06ED0E90023606D10
:100DF00002F084F801250026E06C02F025F8471C7B
:100E0000606D02F021F8C01910F101085FF00109CE
:100E1000E36C4A463100E06B01F03CFF636D4A46EB
:100E20003900E06B01F036FF236D4A464146E06B26
:100E300001F030FF002084F82C00E068002811D079
:100E4000E06801F053FD0025E06B01F02EFF461E27
:100E5000E06801F043FD030032002900E06B01F07F
:100E600019FF06E0E06B01F020FF411EE06B02F08D
:100E700097FA58E394F89400002803D0012800F072
:100E8000FC8150E3F6B20F2E1DD1206A002815D048
:100E9000206A401E206291A30222216AE06B01F0C9
:100EA000F9FE206A616D405C2E2802D1002084F892
:100EB0007000206A616D2022425404E0A06A28601C
:100EC000012084F83800F6B2102E04D1A06A286000
:100ED000012084F83800F6B20C2E42D1206A616DF0
:100EE00000224254206A002836D0606D02F062FA77
:100EF000E26EC2E90001606E02F060FAE76ED7E9C7
:100F0000002302F08BFA05D2606E02F057FAE26E0F
:100F1000C2E90001A06E02F051FA02000B00E76E78
:100F2000D7E9000102F07AFA05D2A06E02F046FA83
:100F3000E26EC2E90001606F002802D0E06E616FCE
:100F40008847206C002804D0206C216C09688968CF
:100F50008847012084F84400A06A2860012084F8B2
:100F60003800E068002810D0E06801F0BFFC0025E0
:100F7000E06B01F09AFE471EE06801F0AFFC030051
:100F80003A002900E06B01F085FE206AE16D88429D
:100F900080F0CE80F6B2012E00F09180C0F0C880C3
:100FA000032E1CD00DD3052E35D026D3072E4ED0C0
:100FB0003FD3092E67D058D30B2E00F0A58070D3F5
:100FC000B6E0206A616D3122425445A30222216AB3
:100FD000E06B01F05FFE206A401C2062A8E0206AFE
:100FE000616D322242543FA30222216AE06B01F07C
:100FF00051FE206A401C20629AE0206A616D332213
:10100000425439A30222216AE06B01F043FE206AB8
:10101000401C20628CE0206A616D3422425433A36C
:101020000222216AE06B01F035FE206A401C20623A
:101030007EE0206A616D352242542DA30222216A8E
:10104000E06B01F027FE206A401C206270E0206AFD
:10105000616D3622425427A30222216AE06B01F01F
:1010600019FE206A401C206262E0206A616D37220E
:10107000425421A30222216AE06B01F00BFE206A98
:10108000401C206254E0206A616D382242541BA348
:101090000222216AE06B01F0FDFD206A401C206203
:1010A00046E0206A616D3922425415A30222216A6A
:1010B000E06B01F0EFFD206A401C206238E0206AFE
:1010C000616D302242540FA30222216AE06B01F0CD
:1010D000E1FD206A401C20622AE000BF20200000C1
:1010E0003100000032000000330000003400000036
:1010F0003500000036000000370000003800000016
:10110000390000003000000094F8700000280FD172
:10111000206A616D2E22425444A30222216AE06BB0
:1011200001F0B8FD206A401C2062012084F87000A4
:10113000F6B2002E25D0DFF8F823D2E90001DFF85F
:10114000F423D2E900675FF002085FF00009A8FB12
:10115000062308FB073309FB063301F0CBFD020031
:101160000B0014F1800001F0F7FC002084F87800F7
:10117000A07D207514F114030222216AE06B01F0B6
:1011800089FD94F8780000283FD0D4E9060101F0E9
:10119000EEFCC0B2002801D0012000E00020C0B267
:1011A000002869D0DFF88803D0E900234FF4FA76ED
:1011B0000027A6FB020106FB031107FB0211DFF863
:1011C0007423D2E900674FF47A785FF00009A8FB36
:1011D000062308FB073309FB063301F08BFD0200F1
:1011E0000B0014F1180001F0B7FC207DA17D8842AE
:1011F00001D1202000E0A07D207514F1140302220B
:10120000216AE06B01F046FD36E0D4E9200101F0EF
:10121000AEFCC0B2002801D0012000E00020C0B226
:10122000002829D0DFF8080302E000BF2E000000EC
:10123000D0E900234FF4FA760027A6FB020106FB53
:10124000031107FB0211DFF8EC22D2E900674FF42B
:101250007A785FF00009A8FB062308FB073309FB37
:10126000063301F047FD02000B0014F1180001F0F5
:1012700073FC012084F8780055E1F6B20C2E3FD0C3
:101280000D2E75D00E2E00F0BB80102E40F0038185
:10129000A06A2860012084F8380094F8A000002893
:1012A00005D0E06ED4E92223C0E9002304E0E06E1B
:1012B000D0E90023C4E9222394F858000290206E5C
:1012C0000190E06D0090E06ED0E90023606D01F0C8
:1012D00015FE616DD4F8900001F0A4FC606F002849
:1012E00002D0E06E616F8847206C002804D0206C2B
:1012F000216C096889688847012084F84400CAE0A5
:10130000A06A2860012084F8380094F8A000002822
:1013100005D0E06ED0E90023C4E9222304E0E06EAA
:10132000D4E92223C0E9002394F858000290206EEB
:101330000190E06D0090E06ED0E90023606D01F057
:10134000DDFD616DD4F8900001F06CFC606F002849
:1013500002D0E06E616F8847206C002804D0206CBA
:10136000216C096889688847012084F8440092E06C
:1013700094F8A00000282AD0E06ED0E90023D4E938
:10138000260102F06BF8E26EC2E90001606E02F025
:1013900015F8E56ED5E9002302F040F805D2606E3D
:1013A00002F00CF8E26EC2E90001606F002802D082
:1013B000E06E616F8847206C002804D0206C216C9F
:1013C000096889688847012084F8440014E0D4E95A
:1013D0002223D4E9260102F041F8C4E92201606E1B
:1013E00001F0ECFFD4E9222302F018F804D2606E79
:1013F00001F0E4FFC4E92201012084F82C004AE056
:1014000094F8A00000282CD0E26ED2E90001D4E9C3
:10141000262302F097F8E26EC2E90001A06E01F007
:10142000CDFF02000B00E56ED5E9000101F0F6FFEB
:1014300005D2A06E01F0C2FFE26EC2E90001606F4A
:10144000002802D0E06E616F8847206C002804D02D
:10145000206C216C096889688847012084F8440061
:1014600016E0D4E92201D4E9262302F06BF8C4E99E
:101470002201A06E01F0A2FF02000B00D4E92201BC
:1014800001F0CCFF04D2A06E01F098FFC4E9220164
:10149000012084F82C0094F82C00002843D0002070
:1014A00084F82C0094F8A00000280DD094F858007F
:1014B0000290206E0190E06D0090E06ED0E9002374
:1014C000606D01F01BFD0BE094F858000290206E57
:1014D0000190E06D0090D4E92223606D01F00EFDD3
:1014E000E06C01F0B1FC0600606D01F0ADFC012183
:1014F0008D198A1980180E1801270121E06B01F05F
:101500004FFFE36C01220021E06B01F0C3FB636D30
:101510003A002900E06B01F0BDFB236D3A00310079
:10152000E06B01F0B7FBBDE8F7830000A0DA02082A
:1015300080290020A000002010B504002000FEF744
:1015400021FEDFF86804206014F14C0002F0BAF8C4
:101550000020E06500202066002084F86400002060
:10156000A066002084F825000020E060200010BD67
:1015700010B50400DFF834042060E06D002802D0CC
:10158000E06D01F07CFC0020E06514F14C0002F0FD
:10159000A9F82000FEF7FAFD200010BD10B50400E8
:1015A0002000FEF780FEE06B00280ED0E06B02F01A
:1015B000A0F8401C01F065FCE065E06B02F099F8D2
:1015C000421C0021E06D01F0CAFE10BD2DE9FF4173
:1015D0000500884617001E000A9CE86B02F089F897
:1015E000401EB84201D2012000E00020C0B2002815
:1015F00003D0002004B0BDE8F081E86B01F055FB9A
:10160000401EB04201D2012000E00020C0B20028FC
:1016100001D00020EEE7686B002803D0696B4046DC
:10162000FEF736FEE868002803D0E9684046FEF77A
:1016300046FEE86B002805D0E96B4046D8F800204C
:1016400012689047A97D4046FEF72FFECDF8008036
:10165000019702968DF80C4000208DF80D0000A92E
:1016600015F14C0002F047F80120C3E738B504003B
:101670000D00606B002803D0616B2800FEF708FEA8
:10168000E068002803D0E1682800FEF718FEE06B50
:10169000002804D0E16B28002A6812689047A17DD9
:1016A0002800FEF702FE25662100206EFEF7FFFDF2
:1016B00031BD80B50800002803D0DFF8F41201F036
:1016C000B1FA002002BD002070472DE9F04782B03A
:1016D00004000D0094F83800002805D0002084F89C
:1016E00038002000FEF7F3FD0020616B002904D0D4
:1016F000606B616B0968C968884794F825100029F8
:1017000000F0CE80022902D0C0F0C480C8E0C0B290
:101710000C2802D010280CD017E0206E002807D02B
:10172000002084F82C00206E2860012084F8380006
:10173000AFE0A06A002807D0002084F82C00A06A3F
:101740002860012084F83800A3E0E06B01F095FAEE
:10175000E06B01F0AAFA451E00265FF001080027A1
:1017600035E00020C0B2002801D00020A06639007A
:1017700014F14C0001F0E2FFD0F80090E06B01F0B2
:10178000B8FF8246390014F14C0001F0D7FF5FFA30
:1017900088F8CDF80080037B5246E16D4846D9F8C1
:1017A00000C0DCF804C0E047390014F14C0001F03F
:1017B000C5FF8046390014F14C0001F0BFFFE36D16
:1017C0008268D8F80410E06B01F064FA7F1C14F111
:1017D0004C0001F0B7FF874201D2012000E0002059
:1017E000C0B2002838D0390014F14C0001F0A6FF37
:1017F000407B0028EAD15FF00108390014F14C0069
:1018000001F09CFF8068A84202D394F8640000E0D5
:101810000120C0B20028D9D0A06E8742A7D3F6B26B
:10182000002EA4D1390014F14C0001F087FF0068AC
:101830000168C9688847C0B2002898D001265FF0C7
:101840000008781CA06614F14C0001F07BFFA16E2B
:10185000814286D3012085E7F6B2002E01D1002017
:10186000A06694F86400002813D1E06800280CD02A
:10187000E06801F03BF8E06801F030F803002A006E
:101880000021E06B01F006FA03E02900E06B01F0B3
:1018900087FD05E0206E2860012084F83800FFE70E
:1018A000BDE8F387002180F864107047012180F8BB
:1018B0006410704738B504000D0014F14C0001F0BD
:1018C00041FF854201D2012000E00020C0B2002883
:1018D00006D0290014F14C0001F030FF01214173C2
:1018E00031BD38B504000D0014F14C0001F02AFFA1
:1018F000854201D2012000E00020C0B2002806D0BD
:10190000290014F14C0001F019FF0021417331BD91
:101910002DE9F04104000D00160000275FF00008DB
:1019200001E018F1010814F14C0001F00BFF8045B3
:1019300001D2012000E00020C0B2002812D04146B0
:1019400014F14C0001F0FAFE0068A84201D1012018
:1019500000E00020C0B20028E3D00127002E01D013
:10196000C6F800803800C0B2BDE8F08110B582B082
:1019700004000020009000AA2000FFF7C9FF002803
:1019800003D000992000FFF795FF13BD10B582B07A
:1019900004000020009000AA2000FFF7B9FF0028F3
:1019A00003D000992000FFF79CFF13BD74DF0208ED
:1019B0006C2A002070B504000E0015002000FEF710
:1019C000E1FBDFF898062060DFF89406E064DFF8BA
:1019D000900620656665307884F858000020E06540
:1019E0000020A06284F824500020E060200070BD38
:1019F000C164026570472DE9F04704000D00160030
:101A00001F00002D70D00FF23838002E4ED05FF03E
:101A10000109FFB2012F0AD0606801F015FA824671
:101A2000404601F011FA10EB0A0010EB0909606D55
:101A30000078012805D1E06C01F006FA10EB0909E5
:101A400004E0206D01F000FA10EB0909484601F0AE
:101A500018FA824600208AF80000FFB2012F07D052
:101A60006168504601F073FE4146504601F06FFE3A
:101A7000606D0078012804D1E16C504601F067FEEA
:101A800003E0216D504601F062FE4E4500D2B146A2
:101A90004A465146280001F06CFC002009F8050078
:101AA000504601F0ECF94846BDE8F0870020287068
:101AB000FFB2022F07D06168280001F048FEA0A104
:101AC000280001F044FE606D0078012804D1E16C2B
:101AD000280001F03CFE03E0216D280001F037FEF4
:101AE000280001F0B1F9DFE70020DDE700207047B2
:101AF00070B504000D0094F83800002805D00020CF
:101B000084F838002000FEF7E2FB0026606B002816
:101B100005D0606B616B0968C9688847060094F856
:101B20002500012800F08180022840F0078194F808
:101B30002400002819D0E06B01F09FF863680022B0
:101B40000021E06B01F0A6F898A301220021E06BD0
:101B500001F0A0F8606D007884F85800002084F847
:101B60002C002000FEF7CCFB5EE0F6B20C2E02D07B
:101B7000102E13D018E094F8240000280DD0012076
:101B800084F82C000221E06B01F00AFC2000FEF733
:101B9000B7FB606D007884F8580045E0A06A2860C3
:101BA000012084F838003FE094F82C00002803D18D
:101BB00094F8240000281CD1E06B01F05EF8636803
:101BC00000220021E06B01F065F8606D00780128CB
:101BD00006D1E36C01220021E06B01F05BF805E027
:101BE000236D01220021E06B01F054F8002084F8FD
:101BF0002C00E068002810D0E06800F077FEE06B71
:101C000001F053F80500E06800F068FE03006A1E6A
:101C10000021E06B01F03EF806E0E06B01F045F8D2
:101C2000411EE06B01F0BCFB88E00121E06B01F09C
:101C3000B7FB0221E06B01F0B3FB5CA301220021A2
:101C4000E06B01F027F8606D0078012806D1E36CA5
:101C500001220321E06B01F01DF805E0236D012254
:101C60000321E06B01F016F894F85800012806D122
:101C7000E36C02220321E06B01F00CF805E0236D18
:101C800002220321E06B01F005F8F6B2102E04D118
:101C9000A06A2860012084F83800F6B20C2E16D114
:101CA000606D94F858100170E06D002802D0606DEE
:101CB000E16D8847206C002804D0206C216C0968F5
:101CC00089688847A06A2860012084F83800F6B245
:101CD0000D2E0AD194F85800012803D1002084F871
:101CE000580002E0012084F85800F6B20E2E0AD106
:101CF00094F85800012803D1002084F8580002E02D
:101D0000012084F85800E068002810D0E06800F056
:101D1000EDFDE06B00F0C9FF0500E06800F0DEFDBE
:101D200003006A1E0021E06B00F0B4FF06E0E06BE8
:101D300000F0BBFF411EE06B01F032FB70BD000004
:101D4000203A200010B504002000FEF71BFADFF84F
:101D5000600A20600020E064200010BD10B504007F
:101D60002000FEF713FA200010BD012280F8442065
:101D7000C164704770B504000D00002D0FD0E06CF9
:101D800000280CD0E06B01F0B4FC06003200E16CDE
:101D9000280001F0EEFA00207055300000E000202D
:101DA00070BD00207047806A086070475E7E00004A
:101DB000F8B504000D0016001F002000FEF7E2F940
:101DC000DFF8F00920600020E0640020206500209A
:101DD00060650020A0650020E065002084F86000B8
:101DE000002060660020A066002084F86C000020BF
:101DF000206700206067002084F87800012084F8C4
:101E000079000020E06714F1800001F0AFFC0020B1
:101E10000021C4E92401C4F89850C4F89C60C4F8B7
:101E2000A07000200021C4E92A0100200021C4E99B
:101E30002C0100200021C4E92E0100200021C4E96A
:101E4000300100200021C4E93201002084F8D000D4
:101E50000020C4F8D400002084F8D800002084F8C2
:101E6000D900002084F8DA00002084F8DB0000208C
:101E700084F8DC00002084F8DD00002084F8DE0017
:101E8000002084F8DF00002084F8E000002084F8BF
:101E9000E100002084F8E2002000F2BD10B504004B
:101EA000DFF81009206014F1800001F06FFC2000C1
:101EB000FEF76CF9200010BD2DE9F04184B004005C
:101EC000884615001E000A9F0020F6B2012E0BD096
:101ED0004146E06C00F0A6FE5EA1E06C01F037FC2C
:101EE000404600F0B1FF401C02210291616D01915A
:101EF000216D0091D7E90023E16C401800F0FEFF4E
:101F0000F6B2022E07D053A1E06C01F020FC2900AC
:101F1000E06C01F01CFCBDE8FF8170B584B00400EA
:101F2000DFF894582B0000220021E06B00F0B2FE95
:101F3000280000F089FF451C02200290002001903B
:101F400003200090E06F401C01F03AFC02000B00FF
:101F5000E06C00F0D3FFE36C00222900E06B00F09E
:101F600099FE3DA6E06C00F06FFF4019451C330060
:101F700000222900E06B00F08DFE300000F064FFCD
:101F80004019451C14F1800001F028FC0221029147
:101F9000002101910321009101F012FC02000B00CD
:101FA000E06C00F0ABFFE36C00222900E06B00F076
:101FB00071FEE16F14F1800001F017FC009094F8BD
:101FC0006030E26DA16D2000FFF776FFE36C012227
:101FD0000021E06B00F05EFEE06B01F08AFB45083B
:101FE000E16F14F1800001F000FC0830009094F8DB
:101FF0006C30A26E616E2000FFF75EFFE36C012281
:102000002900E06B00F046FE7FBD10B50400E06BD8
:1020100001F06FFB4108022094F8DC20002A06D171
:10202000DFF898370222E06B00F034FE10E094F8FD
:10203000DE00002806D0DFF888370222E06B00F0CF
:1020400029FE05E0DFF87C370222E06B00F022FE7B
:1020500010BD000020000000E8E70000C0DA020820
:102060006C2A002010B50400E16422656365226DCE
:102070002021E06C01F073F9206DE16C00224254E4
:1020800010BD8165C26580F8603070474166826628
:1020900080F86C3070470167426780F8783070478D
:1020A000C0E92423704730B4DDE90245C0E92E239E
:1020B000C0E9304530BC70472DE9F04D86B0804610
:1020C00092469B46DDE90E45DDE9106718F1800078
:1020D00001F084FB642801D2012000E00020C0B29E
:1020E00000280AD0CDE900ABCDE90245CDE904676F
:1020F00000A918F1800001F07DFB06B0BDE8F08D6D
:1021000038B504001500D4F8D4000860D4F8D41011
:1021100014F1800001F069FBD0E90423C5E9002334
:1021200094F8D000002184F8D010C0B232BD80F8FD
:10213000DE10704780F8E110704780F8E2107047B9
:10214000002070470020704770B582B005000C0079
:1021500095F83800002805D0002085F838002800C0
:10216000FEF7B5F895F8E00000280BD1D5F89800F7
:10217000D0E90023C5E92A23D5F89C00D0E9002343
:10218000C5E92C23012085F8E0000026686B0028B3
:1021900005D0686B696B0968C96888470600F6B2A4
:1021A000002E4FD095F8DC00002827D195F8E100EB
:1021B000F6B2864222D1012085F8D900012085F8A7
:1021C000D800012085F8DC00E96F15F1800001F0EE
:1021D0000CFBD0E90023D5F89800C0E90023E96F93
:1021E00015F1800001F001FBD0E90223D5F89C0035
:1021F000C0E90023012085F82C0023E095F8DC00DD
:1022000000281FD095F8E200F6B286421AD10120CC
:1022100085F8DA00002085F8DC00D5F89800D5E9CB
:102220002A23C0E90023D5F89C00D5E92C23C0E976
:102230000023012085F82C00002085F8DE00002016
:1022400085F8DF0095F8DE0095F8DF10884206D0AB
:1022500095F8DE0085F8DF00012085F82C0095F860
:102260002500012800F00681022840F0CA8195F877
:102270002C0000283AD0E86B00F0FFFC15F180003C
:1022800001F0ACFA002801D0012000E00020C0B22B
:10229000002821D02800FFF740FE2800FFF7B5FEF8
:1022A000DFF8243502220021E86B00F0F3FCE96F2F
:1022B00015F1800001F099FA1030009095F878300F
:1022C0006A6F296F2800FFF7F7FDEB6C03220021EE
:1022D000E86B00F0DFFC06E0DFF8F03400220021BC
:1022E000E86B00F0D7FC002085F82C00F6B20C2E2D
:1022F00007D00D2E55D00E2E00F08D80102E22D03E
:10230000B7E0012085F82C0015F1800001F066FA95
:10231000002801D0012000E00020C0B200280CD02D
:10232000012085F82500E96F15F1800001F05DFAC4
:10233000D0E90423C5E9322304E0A86A2060012023
:1023400085F8380095E0A86A002829D0012085F892
:102350002C00A86A2060012085F83800D5F8980084
:10236000D5E92A23C0E90023D5F89C00D5E92C2320
:10237000C0E90023012085F8D80095F8DC0000288A
:1023800002D0012085F8DA00002085F8DC0000206A
:1023900085F8DE00002085F8DF00002085F8E000E9
:1023A00067E015F1800001F019FA022801D301203D
:1023B00000E00020C0B200282CD015F1800001F010
:1023C0000DFA401EE96F814201D2012000E0002099
:1023D000C0B200281ED0E86F401CE867E96F15F115
:1023E000800001F002FAD0E90023D5F89800C0E996
:1023F0000023E96F15F1800001F0F7F9D0E902231D
:10240000D5F89C00C0E90023012085F82C000120AC
:1024100085F8D8002DE015F1800001F0DFF90228E1
:1024200001D3012000E00020C0B2002821D0E86FD5
:1024300000281ED0E86F401EE867E96F15F18000A4
:1024400001F0D3F9D0E90023D5F89800C0E90023C2
:10245000E96F15F1800001F0C8F9D0E90223D5F841
:102460009C00C0E90023012085F82C00012085F89C
:10247000D800C6E095F82C00002822D0E86B00F0C8
:10248000FCFB2800FFF749FD2800FFF7BEFDD04BFD
:1024900002220021E86B00F0FDFBE96F15F18000DE
:1024A00001F0A3F91030009095F878306A6F296F29
:1024B0002800FFF701FDEB6C03220021E86B00F020
:1024C000E9FBF6B20C2E06D00D2E33D00E2E63D0C3
:1024D000102E1FD095E0012085F82C00022085F8F1
:1024E0002500E96F15F1800001F07FF9D0E90423A0
:1024F000D5E9320100F044FF01D0012000E00020C6
:10250000C0B2002805D0012085F8DB00E86FC5F8CF
:10251000D40076E0012085F82C00022085F8250003
:10252000E96F15F1800001F060F9D5E93223C0E9C7
:10253000042366E0012085F82C00E96F15F1800086
:1025400001F053F9D0E90423D5E9240100F086FF16
:10255000D5E9302300F062FF01D2012000E0002025
:10256000C0B200280ED0E96F15F1800001F03DF9EE
:102570000400D4E90423D5E9240100F06FFFC4E985
:10258000040108E0E96F15F1800001F02EF9D5E9AA
:102590003023C0E9042334E0012085F82C00E96FE2
:1025A00015F1800001F021F9D0E904231000190091
:1025B000D5E9242300F0C6FF02000B00D5E92E0167
:1025C00000F02CFF01D2012000E00020C0B2002862
:1025D0000ED0E96F15F1800001F007F90400D4E98D
:1025E0000401D5E9242300F0ADFFC4E9040108E0AB
:1025F000E96F15F1800001F0F8F8D5E92E23C0E964
:10260000042373BD38B50400012084F82C00C9B23E
:10261000002902D0012910D01FE0E16F14F18000E1
:1026200001F0E3F80500E16F14F1800001F0DDF83E
:10263000D0E90023C5E9042329E0E16F14F180000B
:1026400001F0D3F80500E16F14F1800001F0CDF83E
:10265000D0E90223C5E9042319E0E16F14F18000F9
:1026600001F0C3F80500E16F14F1800001F0BDF83E
:10267000D0E90223C5E9042301F047F95549009147
:1026800040F65553544A00210568AD68A84701201B
:1026900084F8DB00E06FC4F8D40031BD90F8D810A6
:1026A000002280F8D8200800C0B2704790F8D910F6
:1026B000002280F8D9200800C0B2704790F8DA10E4
:1026C000002280F8DA200800C0B2704790F8DB10D2
:1026D000002280F8DB200800C0B2704790F8DC10C0
:1026E000002917D0002180F8DC10D0F89810D0E92C
:1026F0002A23C1E90023D0F89C10D0E92C23C1E99A
:102700000023012180F82C10002180F8DE10002128
:1027100080F8DF10704780B5803001F0E7FA01BD26
:102720002DE9F84304000898099F0A9E0B9D21603B
:10273000A360E26020616761E0682169401A616915
:10274000401AC0B2A06100200021C4E90A010020A3
:102750006063E2682021206800F001FE00F01EFAAC
:10276000F6B200271D48D0E90023A2FB060102FBB8
:10277000071103FB0611EDB20026194AD2E90089C0
:10278000A8FB052308FB063309FB053300F0B2FA6A
:10279000C4E90A01D4E90A2314F1200000F0DCF9AD
:1027A000A068401C00F06DFB60602000BDE8F28373
:1027B00090DF0208ACDF02084CFD020854FD02085D
:1027C0005CFD0208C0F80208CCF80208D8F802083C
:1027D00064FD0208E4B2020858C202088029002001
:1027E000A000002010B504006068002802D06068D6
:1027F00000F045FB0020606000F0D4F9200010BD1F
:1028000070B504000D00002D1FD00020606300266D
:1028100003E0206820213154761C2069864208D2CA
:10282000280000F011FB8642F3D22068715D31541C
:10283000F2E7A068002808D0A2682021606800F0B4
:102840008EFDA06861680022425470BD70B504001E
:102850000D00002D23D000206063002605E02069D4
:102860008019216820224254761C606986420AD26F
:10287000280000F0E9FA8642F1D220698019216827
:10288000725D4254F0E7A068002808D0A2682021B9
:10289000606800F064FDA06861680022425470BD69
:1028A00010B5040000206063002007E021690918CA
:1028B00062695118226820238B54401CA169884208
:1028C000F4D3A068002808D0A2682021606800F036
:1028D00046FDA06861680022425410BD4068704700
:1028E00001694269511800680818704738B504003A
:1028F0000025D4E9080100F03AF9C0B2002801D05F
:10290000012000E00020C0B2002841D0A0680028CB
:1029100039D0E068002836D0D4E90A2314F1200029
:1029200000F01AF9E068616B884204D2002060630D
:10293000012084F83000012006E0616841186268D7
:10294000825C01F8012C401CA1688842F5D3606BC1
:10295000E16888420DD2606B2168405C002808D095
:10296000A06861684018616B2268895C00F8011CEE
:1029700005E0A06861684018202100F8011C606B28
:10298000401C606302E0606800210170012500E0E6
:1029900000252800C0B232BD0160704780B5DFF865
:1029A0000C020078002808D10021DFF80402FFF7AC
:1029B000F3FFDFF8F80101210170DFF8F80100787A
:1029C000002808D10021DFF8F001FFF7E5FFDFF86C
:1029D000E40101210170DFF8E4010078002808D14A
:1029E0000021DFF8DC01FFF7D7FFDFF8D00101217C
:1029F000017001BD2DE9F84304000E001500002010
:102A00000021C4E9000100200021C4E902010020E6
:102A1000207400F092F83268D317DFF8A801D0E9EB
:102A20000067A6FB020106FB031107FB02112E68DB
:102A3000F717DFF89421D2E90089A8FB062308FBE9
:102A4000073309FB063300F055F9C4E90201200001
:102A5000BDE8F28310B5040000220023C4E900237E
:102A6000D1E90023C4E902230020207400F065F8B6
:102A7000200010BD80B5D1E90023C0E9022300F099
:102A800001F801BD80B501210174D0E9022300F0F5
:102A900063F801BD00210174704738B504000025BA
:102AA000207C00280FD0D4E9000100F060F8C0B20B
:102AB000002801D0012000E00020C0B2002802D090
:102AC0000020207401252800C0B232BD10B50400DA
:102AD00000220023C4E90023D1E90023C4E9022332
:102AE00000F02BF8D4E90223200000F035F8200094
:102AF00010BDD1E90023C0E90223704780B5D0E9B9
:102B0000022300F029F801BD38B504000025D4E9FE
:102B1000000100F02CF8C0B2002801D0012000E034
:102B20000020C0B2002805D0D4E90223200000F024
:102B300013F801252800C0B232BD80B5DFF88C0043
:102B40000078002807D1DFF8880001F01EF9DFF8CF
:102B50007C000121017001BD70B5060014001D004C
:102B600001F084F900196941C6E9000170BD70B532
:102B700004000D00002601F079F9001BA94100298D
:102B800004DB01DC012801D3012000E00020C0B2F9
:102B9000002800D001263000C0B270BD80B501F021
:102BA00027F901BD80B501F08EF901BD762A00201C
:102BB000DC290020772A0020E4290020782A002040
:102BC000E029002080290020A0000020792A002090
:102BD000E829002010B582B0040000A801F0B0F987
:102BE0000100200001F0ADF90021200001F0ADF955
:102BF000200016BD10B50400200001F0CFF9200020
:102C000010BD80B50169826812EB6101027CD207B8
:102C100001D4C26803E0C0680A688018026808002E
:102C2000904701BD5FEA000C830706D011F8013B15
:102C300000F8013BB3B18307F8D10A68B2F1013360
:102C400023EA020313F0803F02BF40F8042B51F83F
:102C5000042FF3E711F8013B00F8013B13B111F821
:102C6000013BF9E76046704781684068081AC01068
:102C70007047406810EBC100704738B5040000256C
:102C800004E02900200000F08BFB6D1C20698542C8
:102C9000F7D331BD10B504002068002804D02068A7
:102CA000246824682469A04710BD0069704770B586
:102CB00004000D002000FFF7D7FF0600200001F000
:102CC00086F9864201D2012000E00020C0B200282F
:102CD00007D02B000122A168200001F082F9A0603A
:102CE00007E0200001F089F92A000100200001F02E
:102CF0008BF970BD13F0004C03D55B42524263F177
:102D000000039CEA210C00F0178010B5644603D341
:102D10004942404261F1000100F00EF8640004D322
:102D20004942404261F10001244203D55B425242D4
:102D300063F1000310BD00001B4213D1094236D1DC
:102D40002AB18446B0FBF2F002FB10C2704701F0DA
:102D50007FB9FCD30022002370470B000200002142
:102D600000207047904271EB030CF6D370B5B1FAB6
:102D700081F4B3FA83F52C1BA340C4F1200532FA89
:102D800005F63343A2405FF00046E64002E05B08F0
:102D90005FEA3202841A71EB030524BF20462946FC
:102DA0007641F4D302000B003000002170BD012AEF
:102DB000CFD970B5140C20D0B1FA81F4B2FA82F5F3
:102DC000C4F120046419B4F12006D6D3B2405FF0F8
:102DD0000044F440002502E052085FEA3303C61ABB
:102DE00071EB020E24BF3046714664416D41F3D34E
:102DF00002000B002000290070BD0C46B1FBF2F16F
:102E000002FB11452D0445EA1045B5FBF2F402FB27
:102E1000145580B240EA0545B5FBF2F002FB1052B2
:102E200040EA044070BD50F8041B61B150F8042B17
:102E3000D30744BFA9F101039A18002342F8043BC9
:102E4000091FFAD1EFE7704700F10103810704D0B1
:102E500010F8011B89B18107FAD10268B2F1013182
:102E6000914311F0803F04BF50F8042FF6E710F8AB
:102E7000011B11B110F8011BFBE7C01A704701F0EC
:102E8000E8B880B501F0EAF802BD80B50200117221
:102E90005068002805D0C9B250685268126892681C
:102EA000904701BD80B5DFF854020078002808D1B2
:102EB0000021DFF84C02FFF76FFDDFF8400201212F
:102EC0000170DFF840020078002808D10021DFF807
:102ED0003802FFF761FDDFF82C0201210170DFF8F5
:102EE0002C020078002808D10021DFF82402FFF727
:102EF00053FDDFF818020121017001BD2DE9F043F7
:102F0000A5B0060014001D002C9FDDF8B490DDF87C
:102F1000B88002237A1C310004A801F0B1F85FFAEE
:102F200088F8B8F1010F05D00DD3B8F1030F07D021
:102F300001D308E007E0774904A801F032FA02E083
:102F4000754901F02EFA390002A801F03CFA02A9F5
:102F500004A801F041FA8046494600A801F02EFA83
:102F600000A9404601F038FA22002B0001F044FA93
:102F7000002104A801F09FFA0020B85504A801F030
:102F800099F825B0BDE8F0832DE9FF4104000D005C
:102F900016001F00DDF82880200001F06EFB5F485E
:102FA00020606660A760C4F80C80002020740020B8
:102FB0006074207C617C4843A0740020E074012090
:102FC000207520208DF8040001AAA17C14F11800BE
:102FD00001F057FB002084F82800002084F8290025
:102FE000002084F82A006420009000A801F05CFB17
:102FF000CDE9020102A914F13000FFF72BFD0020FA
:1030000084F84800002084F84900EDB2012D07D172
:103010000420207414206074207C617C4843A074D8
:103020002022A17C14F1180001F060FB00216068EF
:1030300062681268D2689047A068A1680968096947
:103040008847E068E16809680969884714F1300039
:10305000FFF718FD200004B0BDE8F08110B50400B2
:103060002E4820600021606862681268D26890472C
:10307000A068A168096809698847E068E16809688B
:103080000969884714F1180001F069FB200001F07C
:103090006DFB200010BD007C7047407C70472DE91F
:1030A000F04104001D00607C00FB02F00E18A07CC3
:1030B000871B2800FFF7C8FEC0B2FFB2B84200D29B
:1030C00007005FF0000811E0F6B25FFA88F818EB2D
:1030D000060114F1180001F04DFB5FFA88F818F8AA
:1030E00005100F4A895C017018F101085FFA88F831
:1030F000FFB2B845E8D3BDE8F0810000762A002091
:10310000DC290020772A0020E4290020782A0020EA
:10311000E0290020E5E70208B9E70208E0DA020842
:10312000DC9C020810B58AB00400E07C00280BD0BB
:1031300002285AD012D304286AD041D3062800F0BE
:10314000A780C0F0958008E114F13000FFF7A5FCDE
:10315000C0B2002801D00120E074FEE001202075FB
:1031600094F82A00002805D002280BD006D30328A3
:103170000CD00FE03A2084F849000DE00C2084F8D0
:10318000490009E0012084F8490005E0062084F8A0
:10319000490001E00620207594F82A00401C84F8BC
:1031A0002A000320E0740120089008A801F0E8FA42
:1031B000CDE9060106A914F13000FFF75BFCCCE075
:1031C00014F13000FFF769FCC0B200280CD014F1F4
:1031D0003000FFF757FC94F8491060686268126885
:1031E000D26890470220E074B7E014F13000FFF796
:1031F00054FCC0B200280AD014F13000FFF742FCA2
:10320000E068E1680968C96888470420E074A4E0C0
:1032100014F13000FFF741FCC0B2002827D094F829
:10322000490001280CD10A20019001A801F03CFAC4
:10323000CDE9040104A914F13000FFF71BFC0BE0F9
:103240000120009000A801F09BFACDE9020102A93B
:1032500014F13000FFF70EFC14F13000FFF712FC00
:10326000E068E1680968096988470520E07474E04E
:1032700014F13000FFF711FCC0B2002807D0002184
:10328000606862681268D2689047207DE07464E0EC
:1032900014F13000FFF7F6FBA07C401E94F82810D4
:1032A000884202DA002084F8280094F848000028B8
:1032B0002FD1012084F8480094F82800002806D077
:1032C000142808D028280AD03C280CD00FE08020F1
:1032D00084F849002EE0C02084F849002AE09420B8
:1032E00084F8490026E0D42084F8490022E0002038
:1032F00084F8480094F8281014F1180001F03AFA04
:10330000007884F8490094F82800401C84F82800CC
:1033100010E0002084F8480094F8281014F11800F8
:1033200001F028FA007884F8490094F82800401C3D
:1033300084F8280094F84800002805D0A068A16807
:1033400009680969884704E0A068A1680968C96834
:1033500088470320E074062020750AB010BD10B520
:10336000040010000A000100200001F02DFA2000E6
:1033700010BD10B50400200001F05AFA200010BD65
:1033800090420CD141EA030C50EA4C0C07D0994210
:1033900005D14FF4001C1CEB410F38BF8942704728
:1033A00080B58269002A04D083690A000021FFF7F2
:1033B00071FC01BD0022002101F01CBB5FF0FF0C7D
:1033C0001CEAD05114BF614506E0C110400721F04E
:1033D000E04101F16051704779B900F0004100020D
:1033E0000AD0B0FA80FC00FA0CF001F16051A1EBB8
:1033F0000C5101EBD0214005704741020CBF40F455
:10340000E0016FF000010020704710B582B000238A
:103410000093002304686468A04716BD4FF4001CA5
:103420001CEB410F94BF1CEB430F09E041EA030C76
:1034300050EA4C0C52EA0C0C03D2994208BF90425D
:10344000704714BF8B428242704710B582B0002390
:103450000093002304686468A04716BD70B44FF061
:10346000004591EA030C44BF6B4000F075B800BF03
:10347000841A71EB030603D2001BB1411219734188
:103480004FF4001C1CEB410F34BF7CEB430443E0C2
:103490000C0DA4EB1356352E50DC45EAC323DB0A92
:1034A00045EAC121C912B6F120050DDD63FA05F622
:1034B000EB4086EA0305124218BF45F00105C0182B
:1034C00051F100010CD213E062FA06F5F2405540CA
:1034D000F3415A40B340F3405A408018594107D352
:1034E00049085FEA30005FEA350528BF45F001056D
:1034F00001F58011420875F1004250F1000041EBE6
:10350000045170BC4FF4001C1CEB410F38BF7047D6
:103510000020090D090570471CEB410F10D252EA3B
:1035200043060BD0BCEB410F05D80C0DAB43661E18
:10353000342EB5DD02E0AB438018594170BC7047B2
:1035400070BC704770B44FF0004591EA030F44BF60
:103550006B40FFF78DBF00BF841A71EB030604D2E6
:103560006E40001BB141121973414FF4001C1CEB5B
:10357000410F34BF7CEB430684E00C0DA4EB1356E3
:10358000362E7DDC012E43DC45EAC32343EA525349
:1035900012BFD20292025B08240545EAC12141EA2A
:1035A0005051D2EBC020994125D407D1B0FA80F612
:1035B00010FA06F164D00020203608E0B1FA81F656
:1035C000B140C6F1200220FA02F21143B0404FEAA6
:1035D000F474B4EB465434F001064FEA74040AD88C
:1035E000D6F50016760D04F00044F04061FA06F2BC
:1035F0005040F1404840C00A40EA415021F00041AB
:1036000028BF5FEA500550F1000044EBD12137E0BC
:1036100045EAC323DB0A45EAC121C90AB6F1200500
:103620000EDD42EA0242120CC5F1200603FA06F64C
:10363000EB4042EA06056D42984161F100010DE060
:1036400062FA06F5F240554063FA06FC82EA0C0283
:10365000F3405A406D42904161EB030111F4801F29
:1036600005D1641E620502D06D004041494121F43C
:103670008011430875F1004350F1000041EB045103
:1036800070BC70471CEB410F15D223F0004352EA87
:1036900043060BD04FEA4C0CBCEB410F04D80C0D89
:1036A000661E342EB7DDEBE7801A994150EA4106D9
:1036B00008BF0021E4E708BF1CEB430F28BF6FF0F1
:1036C0000001DDE710B582B0040000A801F094F914
:1036D0000100200001F091F90021200001F091F992
:1036E000200016BD10B50400200001F0B3F9200041
:1036F00010BDC068704770B504000D00200000F0D8
:1037000021F80600200001F0BEF9864201D2012016
:1037100000E00020C0B2002807D02B000122A168E1
:10372000200001F0BAF9A06007E0200001F0C1F923
:103730002A000100200001F0C3F970BD406810EBC1
:103740000110704781684068081A001170470246EE
:1037500013781BB112F8013F002BFBD111F8013B8C
:10376000137012F8013B002BF8D1704710B582B0EE
:10377000040000A801F0C8F90100200001F0C5F91B
:103780000021200001F0C5F9200016BD10B504008D
:10379000200001F0E8F9200010BD10B582B0002330
:1037A0000093002304686468A04716BD010040F13F
:1037B0000980F446404200F005F851F000416047AE
:1037C000010000BF09D0B0FA80F18840C91CC1F5E2
:1037D0008461090501EBD02140057047816840688C
:1037E000081A182190FBF1F070471822406802FB7C
:1037F0000100704770B504000D002000FFF7EEFFD8
:103800000600200001F0CAF9864201D2012000E042
:103810000020C0B2002807D02B000122A1682000A0
:1038200001F0C8F9A06007E0200001F0D0F92A00FB
:103830000100200001F0D2F970BD80B55FF0FF31CA
:1038400002681269904702BD80B5DFF80C04007869
:10385000002808D10021DFF80404FFF79DF8DFF805
:10386000F80301210170DFF8F8030078002808D17F
:103870000021DFF8F003FFF78FF8DFF8E403012100
:103880000170DFF8E4030078002808D10021DFF898
:10389000DC03FFF781F8DFF8D0030121017001BDDF
:1038A00010B50400200001F0BDF9DFF8C40320606A
:1038B0000020A0800020A0600020E06000202061A7
:1038C00000206061200010BD10B504000298A180A6
:1038D000A260E36020616069002804D060696169CA
:1038E00009688968884710BD80887047806870477C
:1038F000C06870470069704780B50A0010F1140174
:10390000100012685269904701BD80B5DFF864036A
:103910000078002807D1DFF86003FFF7C1FFDFF868
:10392000540301210170DFF8500302BDDFF84C237E
:103930001060DFF848034160DFF84003704710B5BE
:10394000040021601100201D01F070F9DFF8300340
:10395000D0E90023210014F1140001F07BF9DFF815
:103960002403D0E90023210014F1280001F072F9AA
:10397000DFF81403D0E90023210014F13C0001F02A
:1039800069F9DFF80803D0E90023210014F15000A1
:1039900001F060F9DFF8F802D0E90023210014F10A
:1039A000640001F057F90020A0670021201D01F0FC
:1039B00065F904F2280101600121201D01F05EF982
:1039C00004F23C0101600221201D01F057F904F2CC
:1039D000500101600321201D01F050F904F264013F
:1039E0000160200010BD70B505000C001600DFF866
:1039F000A412200001F046F9DFF89C1201F045F90D
:103A0000DFF8901201F03EF9DFF89012200001F08B
:103A10003CF9286829680968C9688847010089B2A3
:103A2000200001F026FADFF86C1201F02BF9DFF824
:103A30007012200001F029F9310001F026F9DFF8B9
:103A4000541201F01FF92868296809680969884734
:103A5000002811D0DFF84C12200001F016F9286878
:103A600029680968096988470100200001F00DF9FB
:103A7000DFF8201201F006F9DFF82C12200001F027
:103A800004F9286829680968496988470100200005
:103A900001F0EFF97F4901F0F5F870BD70B5040051
:103AA0000D00206800282CD0206821680968C968AA
:103AB00088470600310089B2200000F0A7F80028EE
:103AC0001FD0A567A06F002809D0B6B23100201D15
:103AD00001F0D4F8006801688968884711E000F0B7
:103AE000A2F8724901F0D1F800F09DF8704901F098
:103AF000CCF800F098F86F4901F0C7F8654901F07B
:103B0000C1F870BD38B504006B4AA16F2000FFF703
:103B10006AFF206821680968896988470500674944
:103B2000A06F01F0B2F8290001F0AFF8594901F097
:103B3000A9F831BD38B50400614AA16F2000FFF734
:103B400052FF206821680968896988470500002DAF
:103B50001BD0286800280AD05A49A06F01F095F8B8
:103B6000296801F092F84B49A06F01F08BF8686862
:103B700000280AD05149A06F01F087F8696801F068
:103B800084F84449A06F01F07DF831BD38B50400D8
:103B90004D4AA16F2000FFF726FF206821680968C1
:103BA000896988470500002D0AD04449A06F01F0BB
:103BB0006CF8290001F069F83649A06F01F062F84D
:103BC00031BD38B50400414AA16F2000FFF70BFF5B
:103BD0002068216809688969884705003C49A06F09
:103BE00001F053F8296801F044F92A4901F04AF834
:103BF0003849A06F01F049F8264901F043F831BD7A
:103C000080B5354A816FFFF7EEFE01BD10B50C009F
:103C1000001D01F09FF9A4B2844201D2012000E00E
:103C20000020C0B210BD80B52C480078002805D116
:103C30002B4801F095F929480121017029480078A5
:103C4000002807D100222649274801F095F9254888
:103C500001210170244802BD762A0020DC290020C1
:103C6000772A0020E4290020782A0020E02900207B
:103C7000CCCF0208672A00201829002088290020BC
:103C800014FD02081CFD020824FD02082CFD020898
:103C900034FD020859CC020878F80208A8F5020899
:103CA000B8F502080CFD0208C8F50208ECCF0208BE
:103CB00044E6020884F80208E8F5020890F80208D1
:103CC0003CFD02089CF80208A8F80208F8F5020872
:103CD000D8F5020858DA020844FD0208682A0020D4
:103CE00014280020692A0020BC280020F8B5040010
:103CF0000D00200001F054F9A84201D2012000E09B
:103D00000020C0B2002803D0200001F04DF93BE0B4
:103D1000200000F043FFA84201D2012000E0002073
:103D2000C0B2002830D02900200001F053F906006D
:103D3000200001F055F90700200000F048FF330093
:103D400002003900200001F052F92000FFF746FD83
:103D50000700606800280ED0A2686168200001F0AA
:103D60004FF9E0686168401A182190FBF1F2616830
:103D7000200001F04DF9182000FB0560E0601820DC
:103D800000FB0760A0606660F1BD10B50400FEF79F
:103D900005FF200010BD0268531C036011707047BE
:103DA00080B501F03FF9564AC2E900015548007854
:103DB000002806D100215448FEF7EEFD51480121AC
:103DC000017052480078002806D100215048FEF7C3
:103DD000E3FD4E48012101704E480078002806D1CD
:103DE00000214D48FEF7D8FD4A480121017001BD70
:103DF00080B54A480068401C484908604748006848
:103E0000012832D101F00EF93D4AC2E900014448CF
:103E100001220023C0E9002342487FF07F41016076
:103E20004148006850F004003F4908603E4800687F
:103E300050F002003C4908603B48006850F0010027
:103E40003949086039480078002805D1384801F020
:103E50003DF936480121017001F044F90921026859
:103E600012689047324901F08EFA01BD30B43148F2
:103E7000002101703048026800232B480068C0F31D
:103E80000040C00710D52C48026800232B48D0E919
:103E90000045244800680002000A401CC117201891
:103EA0006941264CC4E900012448D0E900457FF06F
:103EB0007F40002120186941801A99411D4A012341
:103EC000137030BC704715480068401E13490860E5
:103ED00012480068002811D11348006830F004002F
:103EE000114908601048006830F002000E4908606F
:103EF0000D480068400840000B490860704700000A
:103F000080290020762A0020DC290020772A002042
:103F1000E4290020782A0020E0290020AC29002094
:103F2000A000002014E000E010E000E0652A00207E
:103F300054290020D000002018E000E0782900205B
:103F4000704780B501F027FA02BD38B504000D00B6
:103F5000002060600020A0600020E060002D01D102
:103F6000002032BD200001F01DFAA84201D201203C
:103F700000E00020C0B2002803D0200001F016FAB3
:103F80000AE02900200001F027FA60606068A06064
:103F9000606810EBC500E0600120E2E710B50400A6
:103FA000606800280CD0A2686168200001F01AFA4D
:103FB000E0686168401AC2106168200001F01AFAD6
:103FC000002060600020A0600020E06010BD41681B
:103FD000002901D1002003E0C1684068081AC01020
:103FE000704738B50C0015001A00030029002000A6
:103FF00001F005FA14EBC50032BD80B5816800A858
:1040000001F016FA006802BD72B583B00400150015
:104010002000FEF729FE002801D1002608E020003C
:1040200001F00DFA019001A903A801F00FFA0600B2
:104030002B0001220399200001F00DFA200001F06D
:10404000FEF90090310000A801F0CDFA04B070BD77
:104050007047002818BF01F0CFBA704710B504466A
:10406000204601F00DFB40B904480068010002D170
:1040700001F064FBF4E78047F2E710BDFC29002063
:1040800038B50446DFF84402206004F25800DFF837
:1040900040520560DFF83C520560009313460A4623
:1040A000DFF83412204600F012F832BD016851F8F2
:1040B0000C1C081838B50446DFF81C1200F04DF847
:1040C000054604F1580001F043FB284632BD2DE9B6
:1040D000F84305460E4691469846089C301D0168F7
:1040E000296051F80C1C406848512F1D00223946A8
:1040F000286850F80C0C401901F088FC30682860E2
:1041000050F80C0CF1684151B9F1000F01D02007B3
:1041100001D44C4604E04846FEF796FE00EB090445
:10412000DFF8B8013860381D01F08FFC0420FFF77C
:1041300095FF01F0E6FCB863384601F006FEDFF8B3
:10414000A00138600020009023464A464146384688
:1041500000F0C8F82846BDE8F28310B504460868A8
:10416000206050F80C0CC9680151201D00F002F8C5
:10417000204610BD10B50446DFF8640120602046DB
:1041800000F0F7F8204601F001FE204610BD2DE9B1
:10419000F0410446884618F1010F02D10020BDE825
:1041A000F081606A016851B1626B1268914206D277
:1041B0004A1C026081F800800878BDE8F08194F81C
:1041C000480000F00E00042828D1206A006808B9D1
:1041D000002704E0606B006821690968471A07EB53
:1041E000D7704010E16B8842B8BF08462021E163D8
:1041F0006FF0004102E000EBD070401001280DDBB1
:104200000A1ABA42F7DBC619E16C0800304601D041
:10421000884701E0FEF735FE05461DB94FF0FF3037
:10422000BDE8F081012F05DB3A4620690168284688
:1042300000F0FEFA94F84800C00708D52069216D07
:104240000A00006801D0884701E0FEF718FEA06C64
:1042500040F00100A06420696FB9656461690D6078
:10426000616A0D607119626B11600560206A0560FA
:10427000206B056020E0616C0268891A491961644D
:10428000616A0B6802686769D7F800C0ACEB020C82
:10429000AC44C7F800C09B1A5B190B607319666BBE
:1042A0003360236A1E68076809680560F01B4019BF
:1042B0001860206B491C0160616A0868421C0A6032
:1042C00080F800800078BDE8F0810000A0D20208EC
:1042D00080F7020840F70208E8F702087CC00208ED
:1042E000C4C002082DE9F04104460D4616461F469B
:1042F000DDF8188001F029FD2020E0630020206413
:104300006064E0642065C4F8488036B948F0040071
:10431000A064212D2BDBE56329E0002D48BF6FF061
:10432000004504D403D13046FEF78EFD0546A8199A
:1043300060643FB920690660206A0660A819216B95
:10434000086014E0B74238BF374603D3A919B94211
:1043500038BFAF1960690760606A0760A819616BB0
:10436000086020690660206A0660206B0760BDE86F
:10437000F08110B5044694F8480000F009000128C7
:1043800008D12069216D0A00006801D0884701E04A
:10439000FEF775FD00206064A06C20F00900A064A9
:1043A00010BD10B50400206850F80C0C00198847A7
:1043B000200010BDC160704701617047DFF810C078
:1043C000C0E900C17047DFF80CC0F9E70000000049
:1043D000B5430008B943000810B504000A00002CDA
:1043E00004D0206850F80C0C001900E0002051683F
:1043F00012689047200010BD2DE9F0438FB00600F1
:1044000014001D0000208DF81000310006A801F0F6
:10441000D1FC01F011FD00283DD0306850F80C0CA3
:10442000811905A801F00AFD05A801F00DFD07009E
:1044300005A801F04BFD306850F80C0C801901F014
:1044400054FD8046306850F80C0C801901F04FFD87
:10445000814641460CA801F04DFDCDE902455FFAC9
:1044600089F9CDF80490316851F80C1C8919009134
:10447000D0E90023390008A801F040FDDDE908017A
:10448000CDE90A010AA801F04FFD002803D004215C
:1044900004A801F04CFD00229DF81010306850F87F
:1044A0000C0C801901F047FD06A801F057FD300003
:1044B0000FB0BDE8F083F0B589B004000E00002015
:1044C0008DF80000210007A801F074FC01F0B4FC95
:1044D000002800F0B480002C04D0206850F80C0CA8
:1044E000001900E0002001F047FD022801DA002554
:1044F0000AE0002C04D0206850F80C0C001900E0F1
:10450000002001F039FD451E002C04D0206850F831
:104510000C0C001900E0002001F030FD4FF4E071B8
:1045200080B201F02DFD402801D0012000E00020E4
:10453000C0B2002821D19DF8000000286FD101F001
:1045400022FD0690002C33D0206850F80C0C001986
:104550002FE0002001F0CBFC0100C9B2380001F0CF
:1045600015FD039003A904A801F029FD002803D03C
:10457000042100A801F0DBFC6D1E9DF8000000285E
:10458000D9D1012DD7DB01F0FEFC0490002C04D022
:10459000206850F80C0C001900E0002001F0A5FC88
:1045A0000700002CD5D0206850F80C0C0019D1E77A
:1045B000002001F09AFC3100C9B201F0E7FC05903F
:1045C00005A906A801F0FBFC10F0010090F0010025
:1045D000C0B2002823D1042100A801F0A8FC1EE0ED
:1045E000002001F082FC0600002C04D0206850F866
:1045F0000C0C001900E0002001F079FC0100C9B2A8
:10460000300001F0C3FC019001A902A801F0D7FC21
:10461000002803D0042100A801F089FC6D1E9DF83C
:10462000000000280BD1012D09DB01F0ACFC029049
:10463000002CD5D0206850F80C0C0019D1E7002CC4
:1046400004D0206850F80C0C001900E00020002174
:1046500001F0BEFC002C04D0206850F80C0C0019AE
:1046600000E0002000229DF8001001F064FC07A883
:1046700001F074FC200009B0F0BD80B501F0ACFC85
:1046800002BD70B582B004000D00160000A801F054
:10469000A4FC0100200001F0A1FC32002900200050
:1046A00001F0A0FC200076BDF8B50400FEF745FA45
:1046B0002268D3170B48D0E90045A4FB020104FB94
:1046C000031105FB0211084AD2E900454FF47A763E
:1046D0000027A6FB042306FB053307FB0433FEF784
:1046E00009FBF4BD80290020A000002076B504005D
:1046F0000D00200001F089FCA84201D2012000E059
:104700000020C0B200280DD0200001F082FC06007D
:10471000200001F07AFC01AB2A1A3100200001F0E0
:104720007FFC1BE0200001F070FC854201D20120DB
:1047300000E00020C0B2002810D0200001F02CFDC5
:104740000090290000A801F02EFD0500200001F0D6
:1047500060FC02002900200001F02DFD73BD10B5A2
:104760000400200001F048FD200010BD80B501F0DC
:104770005BFD02BD4068081870470800C0B2704772
:10478000F8B50400FEF7D9F92268D3170B48D0E931
:104790000045A4FB020104FB031105FB0211084ABA
:1047A000D2E90045074E0027A6FB042306FB05338C
:1047B00007FB0433FEF79EFAF4BD00BF80290020FA
:1047C000A000002040420F0062F30F2262F31F425C
:1047D000401810F0030308D0C91A1FD3DB0748BFE5
:1047E00000F8012D28BF20F8022D130030B4144624
:1047F0001546103928BF20E93C00FAD8490728BFE0
:1048000020E90C0048BF40F8042D890028BF20F89B
:10481000022D48BF00F8012D30BC7047C91818BFE1
:1048200000F8012DCB0728BF00F8012D70472000AC
:1048300062B38B0708D0521E11F8013B00F8013B10
:1048400000F024808B07F6D1830740F0208000BF62
:10485000103A07D330B4B1E83810103AA0E8381055
:10486000F9D230BC530724BFB1E80810A0E8081003
:1048700044BF51F8043B40F8043BD20724BF31F851
:10488000022B20F8022B44BF0B7803707047083AC4
:1048900007D3B1E80810083A40F8043B40F804CBCD
:1048A000F7D25307E4E720002DE9F14D87B00C461D
:1048B00090469A46054607A801F0B7FC00F0080BA1
:1048C000BAF1000F1CBF0021CAF8001020F0080048
:1048D000012835D10220009004AB224607992846D2
:1048E00001F03EFD040004BF0020CDE902001CD011
:1048F0000598FEF75BFFCDE90201022C15DB06AE41
:10490000671EDDE902230020374901F009FE044655
:104910000D4656F8040BFEF749FF22462B46FEF7DC
:104920009DFDCDE902017F1EEBD15346049800EBBB
:104930000802DDE9020101F0F0FECDE9020149E0E3
:10494000022836D1009004AB22460799284601F090
:10495000ABFF040004BF0020CDE902001CD0059885
:10496000FEF724FFCDE90201022C15DB06AE671E1F
:10497000DDE9022300201D4901F0D2FD04460D4669
:1049800056F8040BFEF712FF22462B46FEF766FD93
:10499000CDE902017F1EEBD1049902A802F08EF846
:1049A00053464246DDE9020101F0B7FECDE90201BE
:1049B00010E0032804BF00200D4905D0042806D1CB
:1049C0004FF0FF306FF00041CDE9020102E000201E
:1049D000CDE90200BBF1000FDDE9020118BF81F053
:1049E000004108B0BDE8F08D65CDCD410000B0417B
:1049F0000000F07F002357E7704780B502F0EBF826
:104A000002BD38B504000D00002060600020A060E9
:104A10000020E060002D01D1002032BD200002F016
:104A2000E1F8A84201D2012000E00020C0B2002835
:104A300003D0200002F0DAF80AE02900200002F09A
:104A4000EBF860606068A060606810EB0510E060E3
:104A50000120E2E710B50400606800280CD0A268CD
:104A60006168200002F0DEF8E0686168401A021117
:104A70006168200002F0DEF8002060600020A06085
:104A80000020E06010BD4168002901D1002003E052
:104A9000C1684068081A0011704738B50C0015004D
:104AA0001A0003002900200002F0C9F814EB0510D9
:104AB00032BD80B5816800A802F0DAF8006802BD56
:104AC00072B583B0040015002000FEF73BFE0028FD
:104AD00001D1002608E0200002F0D1F8019001A9E0
:104AE00003A802F0D3F806002B000122039920004E
:104AF00002F0D1F8200002F0C2F80090310000A8C6
:104B000002F095F904B070BD704780B502F097F9D6
:104B100002BD38B504000D00002060600020A060D8
:104B20000020E060002D01D1002032BD200000F007
:104B300037FAA84201D2012000E00020C0B20028CC
:104B400003D0200000F030FA0BE02900200000F034
:104B500041FA60606068A0601820616800FB051081
:104B6000E0600120E1E710B50400606800280ED085
:104B7000A2686168200000F043FAE0686168401AAA
:104B8000182190FBF1F26168200000F041FA00204A
:104B900060600020A0600020E06010BD4168002936
:104BA00001D1002005E0C1684068081A182190FB77
:104BB000F1F0704738B50C0015001A000300290009
:104BC000200002F043F9182000FB054032BD80B5FB
:104BD000816800A802F053F9006802BD72B583B085
:104BE000040015002000FEF7F9FD002801D1002681
:104BF00008E0200000F0F4F9019001A903A802F0F8
:104C000045F906002B0001220399200002F045F926
:104C1000200000F0E5F90090310000A802F014FA3D
:104C200004B070BD80B502F017FA02BD30B583B094
:104C300004000D0001A802F010FA0100200002F0AB
:104C40000DFA0020009000AA2900200002F00AFAC4
:104C500020003EBDF8B506000F0014001D00300016
:104C600002F01CFA04483060B76016F10C00C0E98D
:104C700000453000F2BD00BF38E00208406810EB8C
:104C80008100704780B5884702BD2DE9F04188B0AA
:104C900004000D0000208DF80000280002F078FBD1
:104CA0000600002C04D0206850F80C0C001900E01D
:104CB000002001F061F9012811DB002C04D02068EC
:104CC00050F80C0C001900E0002001F055F9864264
:104CD00001DA012000E00020C0B2002801D1002745
:104CE0000AE0002C04D0206850F80C0C001900E0F9
:104CF000002001F041F9871B210005A801F05AF8B6
:104D000001F09AF8002804D1042100A801F00FF95D
:104D10009BE0002C04D0206850F80C0C001900E037
:104D2000002001F02BF94FF4E07180B201F028F976
:104D3000402801D0012000E00020C0B2002801D1AD
:104D40002AE07F1E012F27DB01F01DF90490002CC3
:104D500004D0206850F80C0C001900E0002001F08D
:104D6000C4F88046002C04D0206850F80C0C0019C0
:104D700000E0002001F0BBF80100C9B2404601F09C
:104D800005F9039003A904A801F019F90028D8D067
:104D9000042100A801F0CBF89DF80000002819D1EB
:104DA000002C04D0206850F80C0C001900E0002002
:104DB00001F09BF83200290002F0EEFAB04201D176
:104DC000012000E00020C0B2002803D1042100A887
:104DD00001F0ADF89DF8000000282BD100E07F1E07
:104DE000012F27DB01F0CFF80290002C04D02068BF
:104DF00050F80C0C001900E0002001F076F80500D6
:104E0000002C04D0206850F80C0C001900E00020A1
:104E100001F06DF80100C9B2280001F0B7F8019067
:104E200001A902A801F0CBF80028D8D0042100A8DD
:104E300001F07DF8002C04D0206850F80C0C00190B
:104E400000E00020002101F0C3F8002C04D020680D
:104E500050F80C0C001900E0002000229DF8001012
:104E600001F069F805A801F079F8200008B0BDE864
:104E7000F0812DE9F0418EB004000E0000208DF885
:104E80000C00210005A800F095FF00F0D5FF0028D8
:104E900050D0206850F80C0C011904A800F0CEFF87
:104EA00004A800F0D1FF050004A801F00FF8206865
:104EB00050F80C0C001901F061F84FF4606180B2F9
:104EC00001F05EF880B2B0F5806F03D080B2B0F52B
:104ED000006F00D1FFE7206850F80C0C001901F0BA
:104EE00004F80700206850F80C0C001900F0FFFFD0
:104EF000804639000BA800F0FDFF02965FFA88F8A3
:104F0000CDF80480216851F80C1C09190091D0E9F2
:104F10000023290007A802F044FADDE90701CDE9E2
:104F2000090109A801F000F8002803D0042103A812
:104F300000F0FDFF00229DF80C10206850F80C0CCA
:104F4000001900F0F8FF05A801F008F820000EB0E5
:104F5000BDE8F08181684068081A80107047200021
:104F600010B50400200002F030FA02482060200052
:104F700010BD00BFA4BF0208F8B504000D00160064
:104F8000064F38682060201D02F023FA3300DBB2A0
:104F90002A003900200002F020FAF2BDCCFD020800
:104FA00080B502F02FFA02BD00B58FB0084908A8FD
:104FB00002F030FA010000A802F042FA02F05BFAB7
:104FC00000A802F015FB08A802F019FB0FB000BD05
:104FD000E0EB020880B50800002102F019FB02BDD9
:104FE00080B5416800A801F04AFF006802BD10B515
:104FF0000C0011001A000300200002F00FFB10BD8E
:1050000080B50B0011000200180002F020FB01BD6A
:1050100080B50800FFF71DF801BD4600224AC2E92D
:1050200000017047204AD2E9000170471F4AD2E9C7
:10503000000170471D4AC2E9000170471C4AD2E9CD
:10504000000170471A4AC2E90001704730B419499B
:1050500088420BD01849884208D01849884205D0A8
:105060001749884202D0174988420BD11048D0E92D
:10507000002302240025A4FB020104FB031105FB0D
:1050800002110AE00948D0E9002302240025A4FB0C
:10509000020104FB031105FB021130BC70470A4AF0
:1050A000C2E9000170470000A8000020B000002005
:1050B000B800002000000140000401400040014011
:1050C0000044014000480140C000002010B5040029
:1050D000200001F0DBFF02482060200010BD00BF6F
:1050E00034D5020810B58F48007800280FD14C2025
:1050F000FEF7B4FF040005221421200002F0A2F8FC
:105100000100894802F0B0FA864801210170864802
:1051100002F0ACFA10BD80B5FFF7E4FF0121026890
:105120009268904701BD80B5FFF7DCFF022102685D
:105130009268904701BD80B5FFF7D4FF0321026854
:105140009268904701BD80B5FFF7CCFF042102684B
:105150009268904701BD80B5FFF7C4FF0521026842
:105160009268904701BD80B5FFF7BCFF0621026839
:105170009268904701BD80B5FFF7B4FF0721026830
:105180009268904701BD80B5FFF7ACFF0821026827
:105190009268904701BD80B5FFF7A4FF092102681E
:1051A0009268904701BD80B5FFF79CFF0A21026815
:1051B000926890475D48006850F008005B490860BD
:1051C00001BD80B5FFF78EFF0C2102689268904701
:1051D0005748006840084000554908605448006836
:1051E00030F008005249086052480068400840000A
:1051F000504908604F48006830F002004D4908608F
:1052000001BD80B5FFF76EFF0D21026892689047DF
:1052100001BD80B5FFF766FF0B21026892689047D9
:1052200042480068C0F38020C00706D53F480068A8
:1052300050F480603D4908603FE03C480068C0F39E
:10524000C020C00706D53948006850F400603749CF
:10525000086032E035480068C0F30030C00706D56A
:105260003248006850F480503049086025E02F48EB
:105270000068C0F34030C00706D52C48006850F4E1
:1052800000502A49086018E028480068C0F38030C0
:10529000C00706D52548006850F4804023490860BF
:1052A0000BE022480068C0F3C030C00705D51F4896
:1052B000006850F400401D49086001BD1E480068A8
:1052C00030F080001C4908601C480068400840001D
:1052D0001A4908601948006830F002001749086050
:1052E0001648006830F0040014490860704780B523
:1052F000FFF7F8FE0F210268926890470E48006899
:10530000400840000C4908600D4800684008400013
:105310000B4908600A48006830F00200084908603C
:1053200001BD0000662A0020B4290020143C014081
:1053300010000140104401401004014010180040CA
:10534000101C004080B5FFF7CDFE10210268926866
:10535000904701BD80B5FFF7C5FE11210268926834
:10536000904701BD80B5FFF7BDFE1221026892682B
:10537000904701BD80B5FFF7B5FE13210268926822
:10538000904701BDFEE780B50A00010010001268D9
:105390005269904701BD10B50400200002F068F981
:1053A000200010BD80B502F064F902BD00B58FB0D9
:1053B000084908A802F02EF8010000A802F040F801
:1053C00002F059F800A802F013F908A802F017F942
:1053D0000FB000BDB8EB020880B50800002102F054
:1053E0004EF902BD80B50B0011000200180002F05A
:1053F0004BF901BD80B50800FEF72BFE01BD71B56C
:1054000083B00C0015001E0003A903A802F049F99F
:10541000009001A800A90A78027001A86A460178E4
:10542000117033002A002100039802F03BF97FBD80
:1054300010B50400200002F045F9200010BD80B531
:10544000416800A8FFF7F4FF006802BD0068096822
:10545000401AC01070472DE9FF4704000D001600E8
:105460001F002000FEF7B3FD8046002E00F0B9803B
:105470002000FFF797FF81462000FDF7F5FBB9EB11
:105480000000B04201D2012000E00020C0B200289C
:1054900003D02000FFF78AFFA3E02000FDF7E4FB24
:1054A0003018804501D2012000E00020C0B2002861
:1054B00053D02000FFF776FFB0EB5800404502D2F2
:1054C0005FF0000801E018EB58082000FDF7CCFB66
:1054D0003018804501D2012000E00020C0B2002831
:1054E00004D02000FDF7C0FB16EB00084146200069
:1054F000FFF772FF8146CA464B462A0061682000CA
:1055000002F0E4F882463B00320051462000FEF7EC
:1055100068FD82465346A2682900200002F0D6F8B2
:105520002000FDF7A1FB8619606800280CD0A26856
:1055300061682000FFF756FFE0686168401AC210FA
:1055400061682000FFF756FF19EBC800E06019EB17
:10555000C600A060C4F8049043E0A068401BC010DF
:10556000B04221D2D7E90001CDE9000115EBC60315
:10557000A2682900200002F0A9F800ABA068401B37
:10558000B6EBE002A1682000FEF72BFDA06810EB4F
:10559000C600A06000AA7FF00700A16800FB06110A
:1055A000280002F09CF81CE0D7E90001CDE90201D7
:1055B000A768A3683A007FF0070000FB067120008F
:1055C00002F084F8A0603A007FF0070000FB06714B
:1055D000280002F08FF802AA15EBC601280002F09D
:1055E0007EF8BDE8FF8780B50068009000A802F053
:1055F0008EF8006802BDC20000B9704710B5A0F176
:1056000008042068082837D310F0070034D101209F
:1056100002F0BCF81948416809B18C4203D26160BC
:10562000446017E019464B680BB1A342FAD30A68ED
:1056300053189C421BD3A34204D123689A180A60D2
:105640000C4607E04A681AB123681B199A420ED328
:1056500062604C60616851B1226813198B4206D1B7
:10566000002303600868801820604868606001209B
:10567000BDE8104002F0CEB810BD0000982900200F
:1056800070B5054605F10F00C408E400012002F0E2
:105690007DF8A5422BD2082C04D2082402E0083061
:1056A000FFF7AAFF244D286801000CD1291D0868C6
:1056B000B8B10268A24238BF011DF8D316E01368E2
:1056C000A34213D2111D0A68002AF8D10068291DCF
:1056D00000E0111D0A68824203D01368A342F8D388
:1056E00004E002F0A3F80028D9D1002121B901205B
:1056F00002F090F8002070BD0E683068A0F108023A
:10570000A2423CBF7068086007D3A2190A607368A0
:105710005360001B0A6810603460086800281DBFD1
:1057200041680029001D00202860012002F072F865
:1057300006F1080070BD00009829002080B500A87F
:1057400002F092F801F0D7FE00A802F091F801BD36
:1057500080B500F0B3F802BD01F017010172407A84
:10576000084000D1704710B5AEB00AB102F086F81B
:10577000410734D5002126A802F09EF80FF24424F8
:105780002046FDF761FB0246214626A802F0B2F84A
:1057900010A802F0D9F86D4C04F108001090002216
:1057A000002111A802F088F84FF0FF33002226A94B
:1057B00011A802F0D3F86648109010A801F0CCFEB2
:1057C00004F1080010900022012111A802F074F8E1
:1057D00010A802F0C1F80022012126A86AE0800783
:1057E00034D500211FA802F067F80FF2F01420460C
:1057F000FDF72AFB024621461FA802F07BF808A805
:1058000002F0A2F8514C04F1080008900022002197
:1058100009A802F051F84FF0FF3300221FA909A890
:1058200002F09CF84A48089008A801F095FE04F19F
:10583000080008900022012109A802F03DF808A8FC
:1058400002F08AF8002201211FA833E0002118A8E5
:1058500002F032F80FF29C142046FDF7F5FA0246EA
:10586000214618A802F046F800A802F06DF8374C5F
:1058700004F1080000900022002101A802F01CF8A9
:105880004FF0FF33002218A901A802F067F8304852
:10589000009000A801F060FE04F1080000900022D2
:1058A000012101A802F008F800A802F055F8002232
:1058B000012118A802F000F82EB010BD10B5044662
:1058C00024482060606830B12349425C521E425433
:1058D0006068405C40B9204600F05BF8E06918B1B0
:1058E00000F0F4FAFEF7B5FB204610BD70B5044693
:1058F0000D46A66900E036682EB17268214628463A
:10590000B3689847F7E770BD10B50446022001F070
:105910003DFF00206060104800F20C016268521CDC
:105920006260082A06D24B68002B1CBF51F8043F66
:10593000A342F3D100EB8201CC60115C491C1154ED
:105940000220BDE8104001F065BF00004CEE0208E7
:1059500004EE020880F702088828002010B50446EB
:105960000020E0616060607240F2012060810620EA
:10597000E060002020616061A061002201462046B5
:10598000FFF7EAFE0420FEF769FB00F0BAF8E061D9
:1059900010BD38B504460021FFF7A8FF606920B1AB
:1059A0000568FEF756FB2800FAD100206061A06967
:1059B00020B10568FEF74DFB2800FAD10020A06158
:1059C00031BD0000696F735F626173653A3A62616D
:1059D000646269742073657400000000696F735F0E
:1059E000626173653A3A6661696C626974207365D5
:1059F00074000000696F735F626173653A3A656FA6
:105A000066626974207365740000000070B504005C
:105A10000D0016002000FFF7A1FF25620020606244
:105A20002021200001F0E2FF84F82800206A0028ED
:105A300004D100220421200000F07DFAF6B2002EED
:105A400002D02000FFF760FF70BD10B504460420AF
:105A5000FEF704FB206001F0DDFF204610BD10B50D
:105A60000446206801F0D7FF2068FEF7F2FA2046CE
:105A700010BD006801F0D0BF006801F0CEBFC000CB
:105A800010B5040006D000F0D2F82046BDE8104062
:105A9000FEF7DFBA10BD10B5DFF85842DFF8582224
:105AA000DFF85812204601F0B9FF0020A060E06046
:105AB000206110BD38B5002001F068FEDFF84042DB
:105AC00002E02846FEF7C5FA256855B1286820602F
:105AD000686801F0A8FF0028F3D00168496888478A
