:020000040800F2
:10000000B8B70120C9180308CB560008DB56000812
:10001000EB560008FB5600080B57000800000000D4
:100020000000000000000000000000001B57000856
:100030002B570008000000003B5700084B570008F2
:10004000B15A0008B15A0008B15A0008B15A000864
:10005000B15A0008B15A0008B15A0008B15A000854
:10006000B15A00085B570008B15A0008B15A00089D
:10007000B15A0008B15A0008B15A0008B15A000834
:10008000B15A0008B15A0008B15A0008B15A000824
:10009000B15A0008B15A0008B15A00087757000851
:1000A000B15A00080F580008B15A0008B15A0008A8
:1000B000B15A00084F580008B15A0008B15A000858
:1000C000B15A0008B15A0008B15A0008B15A0008E4
:1000D000B15A0008D1590008E1590008F159000847
:1000E0005F580008B15A0008B15A000809590008C1
:1000F0003B590008B15A00086F590008B15A00086E
:10010000B15A0008015A0008B15A0008B15A000853
:10011000115A0008215A0008B15A0008B15A0008C3
:10012000315A0008415A0008515A0008615A000823
:10013000B15A0008B15A0008B15A0008B15A000873
:10014000B15A0008B15A0008B15A0008815A000893
:10015000B15A0008715A0008B15A0008915A0008B3
:10016000B15A0008B15A0008B15A0008B15A000843
:10017000B15A0008A15A0008B15A0008B15A000843
:10018000B15A000880B500F03FF802BD80B500F01C
:1001900076F802BD80B5DFF828080078002808D17D
:1001A0000021DFF8200802F04DFDDFF814080121DE
:1001B0000170DFF814080078002808D10021DFF86A
:1001C0000C0802F03FFDDFF8000801210170DFF8A4
:1001D00000080078002808D10021DFF8F80702F0B5
:1001E00031FDDFF8EC0701210170DFF8EC07007842
:1001F000002808D10021DFF8E40702F023FDDFF832
:10020000D8070121017001BD10B50400DFF8D00747
:100210002060DFF8D0076060DFF8C807A06000202A
:10022000E060DFF8C00720615F20A075002000219A
:10023000C4E9060100202062002084F82400022086
:1002400084F825000020A062012084F82C00002002
:10025000206300206063012084F838000020E06300
:1002600000202064012084F844000020A064A07DC8
:1002700020750020607502F0E7FD200010BD10B56C
:100280000400DFF85C07206002F0E2FD200010BDF2
:100290004163704780B50A0010F1400110001268F8
:1002A0005269904701BDC163704781757047816293
:1002B000704741607047406870478160704710B573
:1002C0000400E160E06802F061FC206110BD10B53F
:1002D0000400022084F82500012084F82C00E06846
:1002E00000280CD0A168E06802F006FCE06802F08B
:1002F0002DFC00222169200023681B69984710BD4E
:10030000012180F82510704790F84410002280F8F1
:1003100044200800C0B2704710B504002000FFF769
:1003200031FFDFF8C406206014F14C0002F0A8FD94
:100330000020E06500202066200010BD10B50400FC
:10034000DFF8A406206014F14C0002F0A9FD2000A3
:10035000FFF71CFF200010BD80B50800002803D067
:10036000DFF8801602F0B4FD002002BD70B5060073
:100370000C00256816F14C0002F0CCFD401E8542B1
:1003800001D3012000E00020C0B2002801D00020ED
:1003900033E06D1C00E06D1C16F14C0002F0BAFD5C
:1003A000854201D2012000E00020C0B200280AD01E
:1003B000290016F14C0002F0B2FD00790028EAD0C5
:1003C0002560012019E016F14C0002F0A3FD401E4B
:1003D00085420AD1290016F14C0002F0A0FD0079F7
:1003E00090F0010090F0010000E00020C0B2002871
:1003F00002D02560012000E0002070BD70B504002F
:100400000D002E68002E01D1002020E0761E00E0B5
:10041000761E002E0AD0310014F14C0002F07FFD50
:1004200000790028F4D02E60012010E0002E0DD1BC
:10043000310014F14C0002F072FD007990F00100DF
:10044000C0B2002802D12E60012000E0002070BD63
:100450002DE9F04782B004000D000026606B0028F3
:1004600005D0606B616B0968C9688847060094F81D
:100470002C00002800F08280E06B02F054FD8DA378
:1004800000220021E06B02F05BFD63680022032183
:10049000E06B02F055FD14F14C0002F03BFD00282A
:1004A0000AD0216E14F14C0002F039FD007990F071
:1004B000010090F0010000E00020C0B200285DD0F3
:1004C0005FF00109E06D471C5FF0010AE06B02F08C
:1004D00042FDB0F10108206E0090009914F14C002B
:1004E00002F01DFD0068FFF7E6FE03003A0001215F
:1004F000E06B02F025FD022F1BD3B7F1010915E0D7
:1005000000A92000FFF77AFF00280DD0009914F110
:100510004C0002F004FD0068FFF7CDFE03004A46E0
:100520000121E06B02F00CFDB9F10109B9F1000FF6
:10053000E6D1206E009047451AD217F1010915E067
:1005400000A92000FFF712FF00280DD0009914F138
:100550004C0002F0E4FC0068FFF7ADFE03004A46E1
:100560000121E06B02F0ECFC19F10109C845E7D26A
:1005700077A33A000021E06B02F0E2FCF6B20C2E09
:1005800067D00D2E05D00E2E23D0102E00F08480C3
:100590008DE0E06D00280BD1206E002818D014F1FA
:1005A00060012000FFF72AFF012084F82C000FE0F3
:1005B000206E002809D014F160012000FFF71EFF13
:1005C000002802D0E06D401EE065012084F82C0078
:1005D0006DE0E06B02F0BFFC801EE16D814201D353
:1005E000012000E00020C0B2002816D014F14C0019
:1005F00002F090FC401E216E814201D2012000E0F9
:100600000020C0B2002823D014F160012000FFF7C1
:10061000ADFE012084F82C001AE014F14C0002F029
:1006200079FC401E216E814201D2012000E00020B1
:10063000C0B200280CD014F160012000FFF796FE34
:10064000002802D0E06D401CE065012084F82C00F9
:100650002DE014F14C0002F05DFC002801D00120D7
:1006600000E00020C0B2002815D0216E14F14C002B
:1006700002F055FC21000068FFF719FE216E14F10D
:100680004C0002F04CFC00682860012084F82C002B
:10069000012084F838000AE0A06A002807D0012071
:1006A00084F82C00A06A2860012084F83800BDE896
:1006B000F38700005E7E00001CB5040000918DF8F9
:1006C0000420606B002803D0616B0098FFF7E0FD09
:1006D000E068002803D0E1680098FFF7F0FDE06BC8
:1006E000002805D0E16B0098009A12689268904744
:1006F000A17D0098FFF7D9FD21000098FFF7D7FDF5
:1007000000A914F14C0002F028FC00202066002013
:10071000E065002114F14C0002F001FC0079002892
:1007200004D114F160012000FFF720FE012084F8BD
:100730002C0014F14C0002F0EDFB401E16BD80B5FC
:100740000800002802D09DA102F0C2FB002002BDDB
:100750003E00000038B504000D0014F14C0002F01A
:10076000D9FB401EA84201D2012000E00020C0B207
:1007700000281AD1290014F14C0002F0D0FB00210E
:100780000171002020660020E065002114F14C007A
:1007900002F0C5FB0079002804D114F160012000AB
:1007A000FFF7E4FD012084F82C0031BD38B50400CA
:1007B0000D0014F14C0002F0ADFB401EA84201D226
:1007C000012000E00020C0B200281AD1290014F155
:1007D0004C0002F0A4FB01210171002020660020E2
:1007E000E065002114F14C0002F099FB007900282B
:1007F00004D114F160012000FFF7B8FD012084F856
:100800002C0031BD2DE9F04104000D001600002739
:100810005FF0000801E018F1010814F14C0002F04B
:1008200079FB804501D2012000E00020C0B2002801
:1008300012D0414614F14C0002F071FB0068A8424E
:1008400001D1012000E00020C0B20028E3D0012740
:10085000002E01D0C6F800803800C0B2BDE8F0819B
:1008600010B582B004000020009000AA2000FFF71D
:10087000C9FF002803D000992000FFF76BFF13BDCC
:1008800010B582B004000020009000AA2000FFF7FD
:10089000B9FF002803D000992000FFF787FF13BDA0
:1008A0002DE9F84304000D0016002000FFF76AFC54
:1008B0004E4820604B48E0644A48206549486065DE
:1008C000022084F858000120E06500202066002006
:1008D00060660020A0660020E0662567002084F89E
:1008E00074000020A067012084F87C000020002113
:1008F000C4E92001206FD0E90023C4E922230020AD
:10090000C4F89000002084F8940000200021C4E97D
:10091000260100200021C4E92801002084F8A80055
:10092000002114F1AC0002F03BFB0020C4F8B00041
:100930000020C4F8B4000020A06200202062A07D46
:1009400020750020607584F824600020E06002F0CB
:100950007BFA2748D0E900234FF4FA760027A6FB5C
:10096000020106FB031107FB0211224AD2E90067CC
:100970004FF47A785FF00009A8FB062308FB0733E1
:1009800009FB063302F02AFB02000B0014F11800E9
:1009900002F038FA2000BDE8F28338B504001348AD
:1009A000206002F055FA250014F1AC0002F0C0FB03
:1009B0002000FFF7EBFB280032BD00000000000024
:1009C000FF2800206C280020002900206828002033
:1009D000FD28002060280020FE2800206428002038
:1009E0006CF30208F428002090F302085CEE020881
:1009F00008280020A000002080B5816600F0EAF9F8
:100A000001BD80B5C16600F0E5F901BD70B5049D7A
:100A1000059E069C416580F8584005664666C2649E
:100A2000036500F001F870BD3EB504000125E06CDF
:100A300002F0BCFB216EE26D511840182D18206D9C
:100A400002F0B4FB4519D4F8900002F0CAFB681C10
:100A500002F0C9FBC4F89000206FD0E90023C4E97C
:100A6000222394F858000290606E0190206E00904E
:100A7000D4E92223606D02F0F3FB616DD4F890009D
:100A800002F026FA012084F8440037BD10B50400B6
:100A9000226E2021606D02F016FE206E616D002234
:100AA000425410BD2DE9F0478CB004000D00160033
:100AB0009846DDF85090002D00F0EE8000275FFA98
:100AC00088F8B8F1010F54D0E06C02F06FFB07001A
:100AD000002E0DD0BE420BD237003A00E16C280048
:100AE00002F0FBFD0020785538000CB0BDE8F0871F
:100AF000002003E0E16C415C4155401CB842F9D351
:100B0000002E1DD0E06DC019864219D2F41B2020A2
:100B10008DF80D000DF10D02210008A802F0E4FD92
:100B2000002102F0F4FD01002200781902F0D5FD49
:100B300037000020785508A802F0F8FD3800D4E707
:100B400020208DF80C0003AAE16D04A802F0CCFD72
:100B5000002102F0DCFD824604A802F0EEFD020056
:100B60005146781902F0B9FDE06DC71904A802F0EA
:100B7000DDFDD4E9220102000B00D4F870C0DCE9ED
:100B8000000102F0E7FD24D0012084F844005FFA60
:100B900089F9B9F1000F16D1226FD2E90001C4E939
:100BA000220194F858000290606E0190206E00902F
:100BB000D4E92223606D02F053FB616DD4F89000FC
:100BC00002F086F90AE0D4F89010606D02F080F926
:100BD00004E0D4F89010606D02F07AF9606D02F0D4
:100BE000E5FA8146002E0FD019EB070086420BD2A2
:100BF000B6EB07094A46616D781902F06EFD19EBF4
:100C000007000021415570E7002004E03918626DAB
:100C1000825C4A55401C4845F8D35FFA88F8B8F121
:100C2000020F34D019EB07002021415519F10109B9
:100C3000206D02F0BBFA8046002E16D019EB07009B
:100C400018EB0000864210D2F01BB0EB09084246B8
:100C5000216D19EB0700401902F03FFD19EB070069
:100C600018EB0000002141553FE7002006E039184D
:100C700019EB0101226D825C4A55401C4045F6D3B8
:100C800019EB070018EB0000002141552DE719EB87
:100C900007000021415528E7002026E70020704783
:100CA00080F82410704780F8941090F89410002970
:100CB00002D1002180F8A810704780B5C0E9262332
:100CC00000F088F801BD80B5C0E9282300F082F863
:100CD00001BD90F89420012A01D180F8A810704736
:100CE00030B587B00400D4F8B400002801D001204A
:100CF00000E00020C9B2C0B2814201D107B030BDCE
:100D0000C9B200290ED10020C4F8B40014F1AC001F
:100D100002F030FD002804D1002114F1AC0002F0F3
:100D200031FDEBE7D4F8B00000282ED0D4F8B000A5
:100D3000C4F8B400E06E02F043FD02000B00D4F8EA
:100D4000B400D4F8B4100968C9698847A06E02F0ED
:100D500037FD02000B00D4F8B400D4F8B4100968D1
:100D6000096A8847D4E92623D4F8B400D4F8B4102B
:100D7000096849698847D4E92823D4F8B400D4F82D
:100D8000B41009688969884723E0382002F046FDDD
:100D90000500D4E92801CDE90401D4E92601CDE913
:100DA0000201A06E02F00CFDCDE90001E06E02F040
:100DB00007FD02000B00280002F042FD010014F1C3
:100DC000AC0002F0DFFC14F1AC0002F065FDC4F8E9
:100DD000B40093E710B50400D4F8B400002829D07B
:100DE000E06E02F0EDFC02000B00D4F8B400D4F881
:100DF000B4100968C9698847A06E02F0E1FC0200DE
:100E00000B00D4F8B400D4F8B4100968096A884714
:100E1000D4E92623D4F8B400D4F8B4100968496999
:100E20008847D4E92823D4F8B400D4F8B41009686A
:100E30008969884710BD30B50400D4E92223256FA5
:100E4000D5E9000102F086FC04D0002084F84400BB
:100E5000012005E094F84400002184F84410C0B259
:100E600030BD00002DE9FE4304000D0094F8380069
:100E7000002805D0002084F838002000FFF727FA6A
:100E80000026606B002805D0606B616B0968C9683B
:100E90008847060094F82500012800F0F780022812
:100EA00040F09A8494F8240000286ED02000FFF7C8
:100EB000EDFDE06B02F037F8012084F82C00DFF83C
:100EC0001C09D0E900234FF4FA760027A6FB0201A3
:100ED00006FB031107FB0211DFF80429D2E90067C2
:100EE0004FF47A785FF00009A8FB062308FB07336C
:100EF00009FB063302F072F802000B0014F118002F
:100F000001F080FF002084F87400002020626368F4
:100F100000220021E06B02F013F894F858000290D0
:100F2000606E0190206E0090206FD0E90023606D0C
:100F300002F096F901250026E06C02F037F9471C13
:100F4000606D02F033F9C01910F101085FF001097A
:100F5000E36C4A463100E06B01F0F2FF636D4A46F4
:100F60003900E06B01F0ECFF236D4A464146E06B2F
:100F700001F0E6FF20202075206FD0E90023C4E9AE
:100F800022232000FFF7BCF97FE0F6B20C2E02D03E
:100F9000102E17D01CE094F82400002811D0012056
:100FA00084F82C00A06A2860012084F83800E068EA
:100FB000002806D1E06B01F0CEFF411EE06B02F08D
:100FC00073FC62E0A06A2860012084F838005CE0CD
:100FD00094F82C00002803D194F82400002838D17C
:100FE000E06B01F0A0FF636800220021E06B01F0DC
:100FF000A7FF94F858000290606E0190206E009058
:10100000206FD0E90023606D02F02AF90125002647
:10101000E06C02F0CBF8471C606D02F0C7F8C01915
:1010200010F101085FF00109E36C4A463100E06B02
:1010300001F086FF636D4A463900E06B01F080FFE6
:10104000236D4A464146E06B01F07AFF002084F8A8
:101050002C00E068002811D0E06801F09DFD00251B
:10106000E06B01F078FF461EE06801F08DFD0300A3
:1010700032002900E06B01F063FF06E0E06B01F055
:101080006AFF411EE06B02F00FFCA5E394F89400A8
:10109000002803D0012800F0FC819DE3F6B20F2E5A
:1010A0001DD1206A002815D0206A401E206291A31D
:1010B0000222216AE06B01F043FF206A616D405C0F
:1010C0002E2802D1002084F87400206A616D20224D
:1010D000425404E0A06A2860012084F83800F6B287
:1010E000102E04D1A06A2860012084F83800F6B2DE
:1010F0000C2E42D1206A616D00224254206A0028E1
:1011000036D0606D02F0DAFB226FC2E90001A06EFA
:1011100002F056FB276FD7E9002302F0D3FB05D27C
:10112000A06E02F04DFB226FC2E90001E06E02F0FA
:1011300047FB02000B00276FD7E9000102F0C2FB5A
:1011400005D2E06E02F03CFB226FC2E90001A06F05
:10115000002802D0206FA16F8847206C002804D09F
:10116000206C216C096889688847012084F8440054
:10117000A06A2860012084F83800E068002810D0B8
:10118000E06801F009FD0025E06B01F0E4FE471E78
:10119000E06801F0F9FC03003A002900E06B01F07F
:1011A000CFFE206A216E884280F0CE80F6B2012EFA
:1011B00000F09180C0F0C880032E1CD00DD3052E06
:1011C00035D026D3072E4ED03FD3092E67D058D323
:1011D0000B2E00F0A58070D3B6E0206A616D31223D
:1011E000425445A30222216AE06B01F0A9FE206A65
:1011F000401C2062A8E0206A616D322242543FA365
:101200000222216AE06B01F09BFE206A401C2062F2
:101210009AE0206A616D3322425439A30222216A86
:10122000E06B01F08DFE206A401C20628CE0206A99
:10123000616D3422425433A30222216AE06B01F033
:101240007FFE206A401C20627EE0206A616D3522AC
:1012500042542DA30222216AE06B01F071FE206A44
:10126000401C206270E0206A616D3622425427A340
:101270000222216AE06B01F063FE206A401C2062BA
:1012800062E0206A616D3722425421A30222216A62
:10129000E06B01F055FE206A401C206254E0206A99
:1012A000616D382242541BA30222216AE06B01F0D7
:1012B00047FE206A401C206246E0206A616D3922A8
:1012C000425415A30222216AE06B01F039FE206A24
:1012D000401C206238E0206A616D302242540FA326
:1012E0000222216AE06B01F02BFE206A401C206282
:1012F0002AE000BF20200000310000003200000082
:10130000330000003400000035000000360000000B
:1013100037000000380000003900000030000000F5
:1013200094F8740000280FD1206A616D2E22425477
:1013300044A30222216AE06B01F002FE206A401CF5
:101340002062012084F87400F6B2002E25D0DFF868
:101350008C24D2E90001DFF88824D2E900675FF02D
:1013600002085FF00009A8FB062308FB073309FB0E
:10137000063301F033FE02000B0014F1800001F08F
:1013800041FD002084F87C00A07D207514F1140339
:101390000222216AE06B01F0D3FD94F87C00002862
:1013A0003FD0D4E9060101F038FDC0B2002801D0D9
:1013B000012000E00020C0B2002869D0DFF81C0442
:1013C000D0E900234FF4FA760027A6FB020106FBC2
:1013D000031107FB0211DFF80824D2E900674FF47C
:1013E0007A785FF00009A8FB062308FB073309FBA6
:1013F000063301F0F3FD02000B0014F1180001F0B8
:1014000001FD207DA17D884201D1202000E0A07D4A
:10141000207514F114030222216AE06B01F090FDA3
:1014200036E0D4E9200101F0F8FCC0B2002801D078
:10143000012000E00020C0B2002829D0DFF89C0382
:1014400002E000BF2E000000D0E900234FF4FA763E
:101450000027A6FB020106FB031107FB0211DFF8C0
:101460008023D2E900674FF47A785FF00009A8FB87
:10147000062308FB073309FB063301F0AFFD02002A
:101480000B0014F1180001F0BDFC012084F87C0071
:10149000A2E1F6B20C2E4BD00D2E00F08C800E2E59
:1014A00000F0EC80102E40F04F81A06A2860D4F844
:1014B000B400002806D0D4F8B400D4F8B4100968F9
:1014C00009698847012084F8380094F8A8000028AA
:1014D00005D0206FD4E92223C0E9002304E0206F67
:1014E000D0E90023C4E9222394F858000290606EEA
:1014F0000190206E0090206FD0E90023606D01F014
:10150000AFFE616DD4F8900001F0E2FCA06F0028FE
:1015100002D0206FA16F8847206C002804D0206C77
:10152000216C096889688847012084F844000BE130
:10153000A06A2860D4F8B400002806D0D4F8B4001B
:10154000D4F8B410096809698847012084F8380084
:1015500094F8A800002805D0206FD0E90023C4E942
:10156000222304E0206FD4E92223C0E9002394F869
:1015700058000290606E0190206E0090206FD0E9BC
:101580000023606D01F06CFE616DD4F8900001F0F5
:101590009FFCA06F002802D0206FA16F8847206CAD
:1015A000002804D0206C216C0968896888470120D4
:1015B00084F84400C8E094F8A800002837D0D4F894
:1015C000B400002808D0216FD4F8B400D4F8B420B7
:1015D00012689268904718E0206FD0E90023D4E9A0
:1015E000260102F08BF9226FC2E90001A06E02F021
:1015F000E7F8256FD5E9002302F064F905D2A06E63
:1016000002F0DEF8226FC2E90001A06F002802D0CC
:10161000206FA16F8847206C002804D0206C216CBB
:10162000096889688847012084F8440022E0D4F8DA
:10163000B400002809D014F18801D4F8B400D4F81B
:10164000B42012689268904714E0D4E92223D4E9C8
:10165000260102F053F9C4E92201A06E02F0B0F8AD
:10166000D4E9222302F02EF904D2A06E02F0A8F8E9
:10167000C4E92201012084F82C0065E094F8A80058
:10168000002839D0D4F8B400002808D0216FD4F84D
:10169000B400D4F8B4201268D26890471AE0226FE0
:1016A000D2E90001D4E9262302F09CF9226FC2E9B5
:1016B0000001E06E02F084F802000B00256FD5E90E
:1016C000000102F0FFF805D2E06E02F079F8226F17
:1016D000C2E90001A06F002802D0206FA16F8847E7
:1016E000206C002804D0206C216C09688968884728
:1016F000012084F8440024E0D4F8B400002809D084
:1017000014F18801D4F8B400D4F8B4201268D26877
:10171000904716E0D4E92201D4E9262302F062F9C9
:10172000C4E92201E06E02F04BF802000B00D4E99C
:10173000220102F0C7F804D2E06E02F041F8C4E9D9
:101740002201012084F82C0094F82C00002843D0BA
:10175000002084F82C0094F8A80000280DD094F8FC
:1017600058000290606E0190206E0090206FD0E9CA
:101770000023606D01F074FD0BE094F858000290B6
:10178000606E0190206E0090D4E92223606D01F01C
:1017900067FDE06C01F00AFD0600606D01F006FDDA
:1017A00001218D198A1980180E1801270121E06B7B
:1017B00002F07AF8E36C01220021E06B01F0C0FB3B
:1017C000636D3A002900E06B01F0BAFB236D3A002B
:1017D0003100E06B01F0B4FBBDE8F783082800207E
:1017E000A000002010B504002000FEF7CBFCDFF8BD
:1017F0006C04206014F14C0002F0B4F90020E065A4
:1018000000202066002084F864000020A0660020EC
:1018100084F825000020E060200010BD10B5040011
:10182000DFF838042060E06D002802D0E06D01F0A0
:10183000D8FC0020E06514F14C0002F0A3F9200070
:10184000FEF7A4FC200010BD10B504002000FEF738
:101850002AFDE06B00280ED0E06B02F09AF9401CE4
:1018600001F0C1FCE065E06B02F093F9421C00213D
:10187000E06D01F028FF10BD2DE9FF41050088460D
:1018800017001E000A9CE86B02F083F9401EB84264
:1018900001D2012000E00020C0B2002803D00020C7
:1018A00004B0BDE8F081E86B01F055FB401EB0428A
:1018B00001D2012000E00020C0B2002801D00020A9
:1018C000EEE7686B002803D0696B4046FEF7E0FC4A
:1018D000E868002803D0E9684046FEF7F0FCE86BB2
:1018E000002805D0E96B4046D8F800209268904760
:1018F000A97D4046FEF7D9FCCDF8008001970296FD
:101900008DF80C4000208DF80D0000A915F14C0059
:1019100002F041F90120C3E738B504000D00606B07
:10192000002803D0616B2800FEF7B2FCE0680028B5
:1019300003D0E1682800FEF7C2FCE06B002804D069
:10194000E16B28002A6892689047A17D2800FEF785
:10195000ACFC25662100206EFEF7A9FC31BD80B5E8
:101960000800002803D0DFF8F01201F0B1FA0020DF
:1019700002BD002070472DE9F04782B004000D0041
:1019800094F83800002805D0002084F838002000A2
:10199000FEF79DFC0020616B002904D0606B616B39
:1019A0000968C968884794F82510002900F0CE809E
:1019B000022902D0C0F0C480C8E0C0B20C2802D016
:1019C00010280CD017E0206E002807D0002084F8E3
:1019D0002C00206E2860012084F83800AFE0A06A57
:1019E000002807D0002084F82C00A06A286001207D
:1019F00084F83800A3E0E06B01F095FAE06B01F0A9
:101A0000AAFA451E00265FF00108002735E00020F5
:101A1000C0B2002801D00020A066390014F14C00AB
:101A200002F0DCF8D0F80090E06B02F0B2F88246E9
:101A3000390014F14C0002F0D1F85FFA88F8CDF8C3
:101A40000080037B5246E16D4846D9F800C0DCF8BF
:101A50000CC0E047390014F14C0002F0BFF880469A
:101A6000390014F14C0002F0B9F8E36D8268D8F83F
:101A70000410E06B01F064FA7F1C14F14C0002F0DA
:101A8000B1F8874201D2012000E00020C0B2002856
:101A900038D0390014F14C0002F0A0F8407B002847
:101AA000EAD15FF00108390014F14C0002F096F819
:101AB0008068A84202D394F8640000E00120C0B21C
:101AC0000028D9D0A06E8742A7D3F6B2002EA4D1A9
:101AD000390014F14C0002F081F80068016849698E
:101AE0008847C0B2002898D001265FF00008781C13
:101AF000A06614F14C0002F075F8A16E814286D305
:101B0000012085E7F6B2002E01D10020A06694F8EE
:101B10006400002813D1E06800280CD0E06801F0D0
:101B20003BF8E06801F030F803002A000021E06B88
:101B300001F006FA03E02900E06B01F0B5FE05E0D4
:101B4000206E2860012084F83800FFE7BDE8F387A5
:101B5000002180F864107047012180F864107047FC
:101B600038B504000D0014F14C0002F03BF885423A
:101B700001D2012000E00020C0B2002806D02900D8
:101B800014F14C0002F02AF80121417331BD38B53F
:101B900004000D0014F14C0002F024F8854201D23B
:101BA000012000E00020C0B2002806D0290014F176
:101BB0004C0002F013F80021417331BD2DE9F041D2
:101BC00004000D00160000275FF0000801E018F186
:101BD000010814F14C0002F005F8804501D2012003
:101BE00000E00020C0B2002812D0414614F14C00A1
:101BF00001F0F4FF0068A84201D1012000E00020BC
:101C0000C0B20028E3D00127002E01D0C6F8008022
:101C10003800C0B2BDE8F08110B582B004000020E9
:101C2000009000AA2000FFF7C9FF002803D0009908
:101C30002000FFF795FF13BD10B582B0040000200F
:101C4000009000AA2000FFF7B9FF002803D00099F8
:101C50002000FFF79CFF13BDF4280020B4F3020816
:101C600070B504000E0015002000FEF78BFADFF8B7
:101C700098062060DFF89406E064DFF8900620659F
:101C80006665307884F858000020E0650020A06286
:101C900084F824500020E060200070BDC16402651B
:101CA00070472DE9F04704000D0016001F00002DBD
:101CB00070D00FF23838002E4ED05FF00109FFB21D
:101CC000012F0AD0606801F071FA8246404601F0A7
:101CD0006DFA10EB0A0010EB0909606D007801281D
:101CE00005D1E06C01F062FA10EB090904E0206D07
:101CF00001F05CFA10EB0909484601F074FA8246DB
:101D000000208AF80000FFB2012F07D0616850461A
:101D100001F06DFF4146504601F069FF606D0078AB
:101D2000012804D1E16C504601F061FF03E0216D10
:101D3000504601F05CFF4E4500D2B1464A4651463E
:101D4000280001F0CAFC002009F80500504601F007
:101D500048FA4846BDE8F08700202870FFB2022FFD
:101D600007D06168280001F042FFA0A1280001F01F
:101D70003EFF606D0078012804D1E16C280001F07D
:101D800036FF03E0216D280001F031FF280001F04B
:101D90000DFADFE70020DDE70020704770B5040092
:101DA0000D0094F83800002805D0002084F8380091
:101DB0002000FEF78CFA0026606B002805D0606BCF
:101DC000616B0968C9688847060094F825000128F6
:101DD00000F08180022840F0078194F82400002858
:101DE00019D0E06B01F09FF8636800220021E06BDE
:101DF00001F0A6F898A301220021E06B01F0A0F801
:101E0000606D007884F85800002084F82C002000D1
:101E1000FEF776FA5EE0F6B20C2E02D0102E13D04A
:101E200018E094F8240000280DD0012084F82C003C
:101E30000221E06B01F038FD2000FEF761FA606DD1
:101E4000007884F8580045E0A06A2860012084F8F2
:101E500038003FE094F82C00002803D194F82400C7
:101E600000281CD1E06B01F05EF8636800220021BD
:101E7000E06B01F065F8606D0078012806D1E36C35
:101E800001220021E06B01F05BF805E0236D0122E7
:101E90000021E06B01F054F8002084F82C00E06889
:101EA000002810D0E06800F077FEE06B01F053F8F6
:101EB0000500E06800F068FE03006A1E0021E06B88
:101EC00001F03EF806E0E06B01F045F8411EE06BE2
:101ED00001F0EAFC88E00121E06B01F0E5FC022161
:101EE000E06B01F0E1FC5CA301220021E06B01F05A
:101EF00027F8606D0078012806D1E36C01220321E8
:101F0000E06B01F01DF805E0236D01220321E06B79
:101F100001F016F894F85800012806D1E36C02226B
:101F20000321E06B01F00CF805E0236D0222032190
:101F3000E06B01F005F8F6B2102E04D1A06A28601B
:101F4000012084F83800F6B20C2E16D1606D94F89A
:101F500058100170E06D002802D0606DE16D884777
:101F6000206C002804D0206C216C0968896888479F
:101F7000A06A2860012084F83800F6B20D2E0AD13C
:101F800094F85800012803D1002084F8580002E09A
:101F9000012084F85800F6B20E2E0AD194F85800A9
:101FA000012803D1002084F8580002E0012084F8C1
:101FB0005800E068002810D0E06800F0EDFDE06B0C
:101FC00000F0C9FF0500E06800F0DEFD03006A1EB6
:101FD0000021E06B00F0B4FF06E0E06B00F0BBFF17
:101FE000411EE06B01F060FC70BD0000203A200053
:101FF00010B504002000FEF7C5F8DFF8600A206085
:102000000020E064200010BD10B504002000FEF7A1
:10201000BDF8200010BD012280F84420C164704743
:1020200070B504000D00002D0FD0E06C00280CD01E
:10203000E06B01F0AEFD06003200E16C280001F01B
:102040004CFB00207055300000E0002070BD0020E7
:102050007047806A086070475E7E0000F8B5040033
:102060000D0016001F002000FEF78CF8DFF8F009C5
:1020700020600020E06400202065002060650020D2
:10208000A0650020E065002084F860000020606604
:102090000020A066002084F86C000020206700204B
:1020A0006067002084F87800012084F8790000201F
:1020B000E06714F1800001F0A9FD00200021C4E9CF
:1020C0002401C4F89850C4F89C60C4F8A0700020A3
:1020D0000021C4E92A0100200021C4E92C010020CC
:1020E0000021C4E92E0100200021C4E930010020B4
:1020F0000021C4E93201002084F8D0000020C4F897
:10210000D400002084F8D800002084F8D9000020F2
:1021100084F8DA00002084F8DB00002084F8DC007A
:10212000002084F8DD00002084F8DE00002084F820
:10213000DF00002084F8E000002084F8E1000020A7
:1021400084F8E2002000F2BD10B50400DFF81009A9
:10215000206014F1800001F069FD2000FEF716F800
:10216000200010BD2DE9F04184B004008846150020
:102170001E000A9F0020F6B2012E0BD04146E06CF3
:1021800000F0A6FE5EA1E06C01F031FD404601F0DA
:102190000DF8401C02210291616D0191216D0091A9
:1021A000D7E90023E16C401801F05AF8F6B2022E8C
:1021B00007D053A1E06C01F01AFD2900E06C01F09A
:1021C00016FDBDE8FF8170B584B00400DFF89458B7
:1021D0002B0000220021E06B00F0B2FE280000F08E
:1021E000E5FF451C02200290002001900320009092
:1021F000E06F401C01F02EFD02000B00E06C01F0CE
:102200002FF8E36C00222900E06B00F099FE3DA658
:10221000E06C00F0CBFF4019451C33000022290080
:10222000E06B00F08DFE300000F0C0FF4019451C4F
:1022300014F1800001F01CFD0221029100210191A6
:102240000321009101F006FD02000B00E06C01F09B
:1022500007F8E36C00222900E06B00F071FEE16FEB
:1022600014F1800001F00BFD009094F86030E26DF5
:10227000A16D2000FFF776FFE36C01220021E06BE7
:1022800000F05EFEE06B01F084FC4508E16F14F1A4
:10229000800001F0F4FC0830009094F86C30A26EDD
:1022A000616E2000FFF75EFFE36C01222900E06B06
:1022B00000F046FE7FBD10B50400E06B01F069FC44
:1022C0004108022094F8DC20002A06D1DFF8983774
:1022D0000222E06B00F034FE10E094F8DE000028EB
:1022E00006D0DFF888370222E06B00F029FE05E017
:1022F000DFF87C370222E06B00F022FE10BD000008
:1023000020000000E8E7000084EE0208F428002026
:1023100010B50400E16422656365226D2021E06C44
:1023200001F0D1F9206DE16C0022425410BD8165AD
:10233000C26580F8603070474166826680F86C3014
:1023400070470167426780F878307047C0E92423FE
:10235000704730B4DDE90245C0E92E23C0E93045BD
:1023600030BC70472DE9F04D86B0804692469B46C2
:10237000DDE90E45DDE9106718F1800001F078FC19
:10238000642801D2012000E00020C0B200280AD059
:10239000CDE900ABCDE90245CDE9046700A918F10C
:1023A000800001F071FC06B0BDE8F08D38B5040086
:1023B0001500D4F8D4000860D4F8D41014F18000CB
:1023C00001F05DFCD0E90423C5E9002394F8D000B6
:1023D000002184F8D010C0B232BD80F8DE10704702
:1023E00080F8E110704780F8E210704700207047D5
:1023F0000020704770B582B005000C0095F83800D9
:10240000002805D0002085F838002800FDF75FFF80
:1024100095F8E00000280BD1D5F89800D0E900230A
:10242000C5E92A23D5F89C00D0E90023C5E92C236F
:10243000012085F8E0000026686B002805D0686B55
:10244000696B0968C96888470600F6B2002E4FD04C
:1024500095F8DC00002827D195F8E100F6B2864215
:1024600022D1012085F8D900012085F8D80001206B
:1024700085F8DC00E96F15F1800001F000FCD0E97F
:102480000023D5F89800C0E90023E96F15F180001A
:1024900001F0F5FBD0E90223D5F89C00C0E9002348
:1024A000012085F82C0023E095F8DC0000281FD0DF
:1024B00095F8E200F6B286421AD1012085F8DA00DA
:1024C000002085F8DC00D5F89800D5E92A23C0E97A
:1024D0000023D5F89C00D5E92C23C0E90023012076
:1024E00085F82C00002085F8DE00002085F8DF004C
:1024F00095F8DE0095F8DF10884206D095F8DE00EA
:1025000085F8DF00012085F82C0095F825000128CA
:1025100000F00681022840F0CA8195F82C000028BE
:102520003AD0E86B00F0FFFC15F1800001F0A0FB51
:10253000002801D0012000E00020C0B2002821D0F6
:102540002800FFF740FE2800FFF7B5FEDFF824352E
:1025500002220021E86B00F0F3FCE96F15F1800026
:1025600001F08DFB1030009095F878306A6F296F7C
:102570002800FFF7F7FDEB6C03220021E86B00F069
:10258000DFFC06E0DFF8F03400220021E86B00F009
:10259000D7FC002085F82C00F6B20C2E07D00D2EAB
:1025A00055D00E2E00F08D80102E22D0B7E00120E5
:1025B00085F82C0015F1800001F05AFB002801D0AD
:1025C000012000E00020C0B200280CD0012085F8D6
:1025D0002500E96F15F1800001F051FBD0E90423DB
:1025E000C5E9322304E0A86A2060012085F838009C
:1025F00095E0A86A002829D0012085F82C00A86A57
:102600002060012085F83800D5F89800D5E92A2304
:10261000C0E90023D5F89C00D5E92C23C0E90023AC
:10262000012085F8D80095F8DC00002802D00120B0
:1026300085F8DA00002085F8DC00002085F8DE004F
:10264000002085F8DF00002085F8E00067E015F144
:10265000800001F00DFB022801D3012000E00020E2
:10266000C0B200282CD015F1800001F001FB401E03
:10267000E96F814201D2012000E00020C0B20028B1
:102680001ED0E86F401CE867E96F15F1800001F08B
:10269000F6FAD0E90023D5F89800C0E90023E96FE5
:1026A00015F1800001F0EBFAD0E90223D5F89C0087
:1026B000C0E90023012085F82C00012085F8D8000E
:1026C0002DE015F1800001F0D3FA022801D301209A
:1026D00000E00020C0B2002821D0E86F00281ED002
:1026E000E86F401EE867E96F15F1800001F0C7FA56
:1026F000D0E90023D5F89800C0E90023E96F15F16F
:10270000800001F0BCFAD0E90223D5F89C00C0E9B2
:102710000023012085F82C00012085F8D800C6E0B0
:1027200095F82C00002822D0E86B00F0FCFB280074
:10273000FFF749FD2800FFF7BEFDD04B0222002124
:10274000E86B00F0FDFBE96F15F1800001F097FAEE
:102750001030009095F878306A6F296F2800FFF7E5
:1027600001FDEB6C03220021E86B00F0E9FBF6B2FF
:102770000C2E06D00D2E33D00E2E63D0102E1FD06F
:1027800095E0012085F82C00022085F82500E96FEE
:1027900015F1800001F073FAD0E90423D5E9320184
:1027A00000F0D8FF01D0012000E00020C0B20028D6
:1027B00005D0012085F8DB00E86FC5F8D40076E08D
:1027C000012085F82C00022085F82500E96F15F11D
:1027D000800001F054FAD5E93223C0E9042366E011
:1027E000012085F82C00E96F15F1800001F047FA0F
:1027F000D0E90423D5E9240101F080F8D5E930239C
:1028000001F060F801D2012000E00020C0B20028F1
:102810000ED0E96F15F1800001F031FA0400D4E91F
:102820000423D5E9240101F069F8C4E9040108E0B2
:10283000E96F15F1800001F022FAD5E93023C0E9F3
:10284000042334E0012085F82C00E96F15F18000A5
:1028500001F015FAD0E9042310001900D5E924236A
:1028600001F0C0F802000B00D5E92E0101F02AF8B2
:1028700001D2012000E00020C0B200280ED0E96F94
:1028800015F1800001F0FBF90400D4E90401D5E959
:10289000242301F0A7F8C4E9040108E0E96F15F169
:1028A000800001F0ECF9D5E92E23C0E9042373BDC3
:1028B00038B50400012084F82C00C9B2002902D0E8
:1028C000012910D01FE0E16F14F1800001F0D7F969
:1028D0000500E16F14F1800001F0D1F9D0E9002387
:1028E000C5E9042329E0E16F14F1800001F0C7F984
:1028F0000500E16F14F1800001F0C1F9D0E9022375
:10290000C5E9042319E0E16F14F1800001F0B7F983
:102910000500E16F14F1800001F0B1F9D0E9022364
:10292000C5E9042301F037FA5549009141F28A3391
:10293000544A00210568AD68A847012084F8DB00EF
:10294000E06FC4F8D40031BD90F8D810002280F8B0
:10295000D8200800C0B2704790F8D910002280F843
:10296000D9200800C0B2704790F8DA10002280F831
:10297000DA200800C0B2704790F8DB10002280F81F
:10298000DB200800C0B2704790F8DC10002917D097
:10299000002180F8DC10D0F89810D0E92A23C1E992
:1029A0000023D0F89C10D0E92C23C1E90023012199
:1029B00080F82C10002180F8DE10002180F8DF1054
:1029C000704780B5803001F0D7FB01BD2DE9F84399
:1029D00004000898099F0A9E0B9D2160A360E26095
:1029E00020616761E0682169401A6169401AC0B2DC
:1029F000A06100200021C4E90A0100206063E268B0
:102A00002021206800F05FFE00F01EFAF6B20027D9
:102A10001D48D0E90023A2FB060102FB071103FBBE
:102A20000611EDB20026194AD2E90089A8FB052358
:102A300008FB063309FB053300F0D0FAC4E90A01AC
:102A4000D4E90A2314F1200000F0DCF9A068401C4E
:102A500000F0C9FB60602000BDE8F283D8F30208F3
:102A6000FCF30208201B0308281B0308301B030883
:102A70000C1703081817030824170308381B03084A
:102A800068CE020834DE020808280020A0000020DA
:102A900010B504006068002802D0606800F0A1FB57
:102AA0000020606000F0D4F9200010BD70B5040073
:102AB0000D00002D1FD000206063002603E0206879
:102AC00020213154761C2069864208D2280000F06B
:102AD0006DFB8642F3D22068715D3154F2E7A06845
:102AE000002808D0A2682021606800F0ECFDA068F2
:102AF00061680022425470BD70B504000D00002DC5
:102B000023D000206063002605E020698019216839
:102B100020224254761C606986420AD2280000F0C6
:102B200045FB8642F1D2206980192168725D4254CA
:102B3000F0E7A068002808D0A2682021606800F0B3
:102B4000C2FDA06861680022425470BD10B5040047
:102B500000206063002007E02169091862695118AC
:102B6000226820238B54401CA1698842F4D3A068BA
:102B7000002808D0A2682021606800F0A4FDA068A9
:102B800061680022425410BD406870470169426983
:102B9000511800680818704738B504000025D4E9BA
:102BA000080100F03AF9C0B2002801D0012000E08D
:102BB0000020C0B2002841D0A068002839D0E068C9
:102BC000002836D0D4E90A2314F1200000F01AF9C5
:102BD000E068616B884204D200206063012084F8C1
:102BE0003000012006E0616841186268825C01F8EB
:102BF000012C401CA1688842F5D3606BE1688842D3
:102C00000DD2606B2168405C002808D0A068616824
:102C10004018616B2268895C00F8011C05E0A0681F
:102C200061684018202100F8011C606B401C606343
:102C300002E0606800210170012500E00025280005
:102C4000C0B232BD0160704780B5DFF80C02007879
:102C5000002808D10021DFF80402FFF7F3FFDFF8B6
:102C6000F80101210170DFF8F8010078002808D18F
:102C70000021DFF8F001FFF7E5FFDFF8E4010121B3
:102C80000170DFF8E4010078002808D10021DFF8A6
:102C9000DC01FFF7D7FFDFF8D0010121017001BD92
:102CA0002DE9F84304000E00150000200021C4E9BE
:102CB000000100200021C4E902010020207400F07E
:102CC00092F83268D317DFF8A801D0E90067A6FBB5
:102CD000020106FB031107FB02112E68F717DFF84C
:102CE0009421D2E90089A8FB062308FB073309FBDE
:102CF000063300F073F9C4E902012000BDE8F28355
:102D000010B5040000220023C4E90023D1E9002308
:102D1000C4E902230020207400F065F8200010BDF3
:102D200080B5D1E90023C0E9022300F001F801BD1C
:102D300080B501210174D0E9022300F063F801BDE0
:102D400000210174704738B504000025207C00285C
:102D50000FD0D4E9000100F060F8C0B2002801D023
:102D6000012000E00020C0B2002802D00020207422
:102D700001252800C0B232BD10B504000022002396
:102D8000C4E90023D1E90023C4E9022300F02BF8B1
:102D9000D4E90223200000F035F8200010BDD1E96D
:102DA0000023C0E90223704780B5D0E9022300F078
:102DB00029F801BD38B504000025D4E9000100F070
:102DC0002CF8C0B2002801D0012000E00020C0B2E1
:102DD000002805D0D4E90223200000F013F80125D3
:102DE0002800C0B232BD80B5DFF88C000078002822
:102DF00007D1DFF8880001F00EFADFF87C0001212E
:102E0000017001BD70B5060014001D0001F072FADA
:102E100000196941C6E9000170BD70B504000D00DC
:102E2000002601F067FA001BA941002904DB01DC40
:102E3000012801D3012000E00020C0B2002800D00A
:102E400001263000C0B270BD80B501F015FA01BD99
:102E500080B501F07CFA01BDFE2800206428002026
:102E6000FF2800206C28002000290020682800206E
:102E700008280020A0000020012900207028002040
:102E800010B582B0040000A801F09EFA01002000F5
:102E900001F09BFA0021200001F09BFA200016BDF2
:102EA00010B50400200001F0BDFA200010BD80B56F
:102EB0000169826812EB6101027CD20701D4C26809
:102EC00003E0C0680A68801802680800904701BDE6
:102ED0005FEA000C830706D011F8013B00F8013BC4
:102EE000B3B18307F8D10A68B2F1013323EA0203D0
:102EF00013F0803F02BF40F8042B51F8042FF3E792
:102F000011F8013B00F8013B13B111F8013BF9E75F
:102F10006046704781684068081AC0107047406872
:102F200010EBC100704738B50400002504E029000B
:102F3000200000F0B9FC6D1C20698542F7D331BD3B
:102F400010B504002068002804D020682468246894
:102F50002469A04710BD0069704770B504000D00DA
:102F60002000FFF7D7FF0600200001F074FA864228
:102F700001D2012000E00020C0B2002807D02B00C1
:102F80000122A168200001F070FAA06007E0200093
:102F900001F077FA2A000100200001F079FA70BDF3
:102FA00070B504000D00002D01D1012600E00026BF
:102FB000F6B2002E01D0002008E0082000F02EFC20
:102FC0002A00012101F088FA02000020F6B2002E4A
:102FD00001D00022FFE72260200070BD13F0004CFA
:102FE00003D55B42524263F100039CEA210C00F0DE
:102FF000178010B5644603D34942404261F1000195
:1030000000F00EF8640004D34942404261F100012F
:10301000244203D55B42524263F1000310BD00001D
:103020001B4213D1094236D12AB18446B0FBF2F0DB
:1030300002FB10C2704701F055BAFCD300220023F6
:1030400070470B000200002100207047904271EB96
:10305000030CF6D370B5B1FA81F4B3FA83F52C1BE7
:10306000A340C4F1200532FA05F63343A2405FF0D5
:103070000046E64002E05B085FEA3202841A71EB28
:10308000030524BF204629467641F4D302000B00F5
:103090003000002170BD012ACFD970B5140C20D0AA
:1030A000B1FA81F4B2FA82F5C4F120046419B4F1E2
:1030B0002006D6D3B2405FF00044F440002502E081
:1030C00052085FEA3303C61A71EB020E24BF304682
:1030D000714664416D41F3D302000B0020002900CA
:1030E00070BD0C46B1FBF2F102FB11452D0445EA1F
:1030F0001045B5FBF2F402FB145580B240EA0545D9
:10310000B5FBF2F002FB105240EA044070BD50F8EB
:10311000041B61B150F8042BD30744BFA9F101038C
:103120009A18002342F8043B091FFAD1EFE77047D1
:1031300038B504002068002830D020680068401EA0
:10314000216808602068006800280FD500F023FE81
:1031500005001349134800F02FFE009040F245632C
:10316000114A012128002D68AD68A8472068006831
:10317000002813D120684068002806D020684068E5
:10318000216849680968496888472068001D00214E
:103190000160206801F0A7F900202060200032BD06
:1031A0009EBC00088C030308A8D5020800F10103A7
:1031B000810704D010F8011B89B18107FAD1026898
:1031C000B2F10131914311F0803F04BF50F8042F58
:1031D000F6E710F8011B11B110F8011BFBE7C01A4C
:1031E000704701F080B980B500F018FB02BD80B5D2
:1031F000020011725068002805D0C9B250685268A8
:1032000012689268904701BD80B5DFF858020078D7
:10321000002808D10021DFF85002FFF713FDDFF886
:10322000440201210170DFF844020078002808D12F
:103230000021DFF83C02FFF705FDDFF83002012135
:103240000170DFF830020078002808D10021DFF893
:103250002802FFF7F7FCDFF81C020121017001BD15
:103260002DE9F043A5B0060014001D002C9FDDF8E9
:10327000B490DDF8B88002237A1C310004A801F074
:1032800037F95FFA88F8B8F1000F07D0B8F1020FEC
:1032900006D004D3B8F1030F07D009E008E007E037
:1032A000764904A801F0B5FA02E0754901F0B1FAD7
:1032B000390002A801F0BFFA02A904A801F0C4FA7B
:1032C0008046494600A801F0B1FA00A9404601F045
:1032D000BBFA22002B0001F0C7FA002104A801F07C
:1032E00022FB0020B85504A801F01CF925B0BDE868
:1032F000F0832DE9FF4104000D0016001F00DDF8EA
:103300002880200001F0F1FB5E4820606660A76025
:10331000C4F80C800020207400206074207C617C44
:103320004843A0740020E0740120207520208DF80F
:10333000040001AAA17C14F1180001F0DAFB0020BE
:1033400084F82800002084F82900002084F82A004E
:103350006420009000A801F0DFFBCDE9020102A982
:1033600014F13000FFF7CCFC002084F84800002066
:1033700084F84900EDB2012D07D1042020741420F7
:103380006074207C617C4843A0742022A17C14F1ED
:10339000180001F0E3FB0021606862681268D268DF
:1033A0009047A068A168096809698847E068E168F2
:1033B00009680969884714F13000FFF7B9FC20005B
:1033C00004B0BDE8F08110B504002E482060002153
:1033D000606862681268D2689047A068A16809684E
:1033E00009698847E068E16809680969884714F154
:1033F000180001F0ECFB200001F0F0FB200010BDF4
:10340000007C7047407C70472DE9F04104001D00AE
:10341000607C00FB02F00E18A07C871B2800FFF7E1
:10342000C5FEC0B2FFB2B84200D207005FF000088C
:1034300011E0F6B25FFA88F818EB060114F11800F3
:1034400001F0D0FB5FFA88F818F805100E4A895C85
:10345000017018F101085FFA88F8FFB2B845E8D3A7
:10346000BDE8F081FE28002064280020FF2800200D
:103470006C2800200029002068280020730503081C
:1034800047050308FCF8020814B6020810B58AB014
:103490000400E07C00280BD002285AD012D3042864
:1034A0006AD041D3062800F0A780C0F0958008E1DB
:1034B00014F13000FFF747FCC0B2002801D0012012
:1034C000E074FEE00120207594F82A00002805D061
:1034D00002280BD006D303280CD00FE03A2084F842
:1034E00049000DE00C2084F8490009E0012084F82F
:1034F000490005E0062084F8490001E00620207517
:1035000094F82A00401C84F82A000320E07401206B
:10351000089008A801F06CFBCDE9060106A914F19A
:103520003000FFF7FDFBCCE014F13000FFF70BFC9F
:10353000C0B200280CD014F13000FFF7F9FB94F86A
:103540004910606862681268D26890470220E0748F
:10355000B7E014F13000FFF7F6FBC0B200280AD044
:1035600014F13000FFF7E4FBE068E1680968C9681E
:1035700088470420E074A4E014F13000FFF7E3FB77
:10358000C0B2002827D094F8490001280CD10A20A5
:10359000019001A801F0C0FACDE9040104A914F1D9
:1035A0003000FFF7BDFB0BE00120009000A801F008
:1035B0001FFBCDE9020102A914F13000FFF7B0FBB7
:1035C00014F13000FFF7B4FBE068E16809680969AD
:1035D00088470520E07474E014F13000FFF7B3FB76
:1035E000C0B2002807D00021606862681268D26803
:1035F0009047207DE07464E014F13000FFF798FB01
:10360000A07C401E94F82810884202DA002084F83A
:10361000280094F8480000282FD1012084F84800A1
:1036200094F82800002806D0142808D028280AD0AA
:103630003C280CD00FE0802084F849002EE0C02008
:1036400084F849002AE0942084F8490026E0D42038
:1036500084F8490022E0002084F8480094F82810FB
:1036600014F1180001F0BEFA007884F8490094F8CB
:103670002800401C84F8280010E0002084F848004E
:1036800094F8281014F1180001F0ACFA007884F8CE
:10369000490094F82800401C84F8280094F8480059
:1036A000002805D0A068A16809680969884704E076
:1036B000A068A1680968C96888470320E0740620EB
:1036C00020750AB010BD10B5040010000A000100FA
:1036D000200001F0B1FA200010BD10B50400200058
:1036E00001F0DEFA200010BD70B582B004000D00BC
:1036F000160000A801F00FFB0100200001F00CFBF8
:1037000032002900200001F00BFB200076BD38B507
:1037100004000D00200000F010F8854204D22900BA
:10372000200001F010FB00E0002032BD10B50400C5
:10373000200001F00BFB200010BD81684068081AD2
:10374000704710B582B00023009300230468E4683A
:10375000A04716BD90420CD141EA030C50EA4C0C34
:1037600007D0994205D14FF4001C1CEB410F38BF24
:10377000894270470068002801D1012000E0002044
:10378000C0B2704710B582B004002068002803D092
:1037900020684068884209D000A8FFF701FC0100BA
:1037A000200001F0EBFA00A8FFF7C2FC13BD10B532
:1037B00082B00023009300230468E468A04716BD8C
:1037C0005FF0FF0C1CEAD05114BF614506E0C11048
:1037D000400721F0E04101F16051704779B900F0F4
:1037E000004100020AD0B0FA80FC00FA0CF001F1AE
:1037F0006051A1EB0C5101EBD02140057047410213
:103800000CBF40F4E0016FF000010020704780B56C
:103810005FF0FF3102681269904702BD10B504469F
:10382000204601F0AFFA40B904480068010002D117
:1038300001F006FBF4E78047F2E710BD8428002082
:103840002DE9FC478246DDE90A89DDE90C45DDE921
:103850000E67504601F0FEFA0E48CAF80000CAE9A9
:103860000245CAE90467DDE90001CAE90601CAE9BF
:103870000889CAE90A4500208AF8300002208AF83F
:10388000310000208AF8320000208AF833005046C8
:10389000BDE8F68738EA02080168002902D000680E
:1038A000406800E00020704780B58269002A04D09B
:1038B00083690A000021FFF743FB01BD00220021BC
:1038C00001F072BB4FF4001C1CEB410F94BF1CEBCA
:1038D000430F09E041EA030C50EA4C0C52EA0C0C8D
:1038E00003D2994208BF9042704714BF8B42824274
:1038F00070470268531C03601170704770B44FF03A
:10390000004591EA030C44BF6B4000F075B800BF5E
:10391000841A71EB030603D2001BB14112197341E3
:103920004FF4001C1CEB410F34BF7CEB430443E01D
:103930000C0DA4EB1356352E50DC45EAC323DB0AED
:1039400045EAC121C912B6F120050DDD63FA05F67D
:10395000EB4086EA0305124218BF45F00105C01886
:1039600051F100010CD213E062FA06F5F240554025
:10397000F3415A40B340F3405A408018594107D3AD
:1039800049085FEA30005FEA350528BF45F00105C8
:1039900001F58011420875F1004250F1000041EB41
:1039A000045170BC4FF4001C1CEB410F38BF704732
:1039B0000020090D090570471CEB410F10D252EA97
:1039C00043060BD0BCEB410F05D80C0DAB43661E74
:1039D000342EB5DD02E0AB438018594170BC70470E
:1039E00070BC704770B44FF0004591EA030F44BFBC
:1039F0006B40FFF78DBF00BF841A71EB030604D242
:103A00006E40001BB141121973414FF4001C1CEBB6
:103A1000410F34BF7CEB430684E00C0DA4EB13563E
:103A2000362E7DDC012E43DC45EAC32343EA5253A4
:103A300012BFD20292025B08240545EAC12141EA85
:103A40005051D2EBC020994125D407D1B0FA80F66D
:103A500010FA06F164D00020203608E0B1FA81F6B1
:103A6000B140C6F1200220FA02F21143B0404FEA01
:103A7000F474B4EB465434F001064FEA74040AD8E7
:103A8000D6F50016760D04F00044F04061FA06F217
:103A90005040F1404840C00A40EA415021F0004106
:103AA00028BF5FEA500550F1000044EBD12137E018
:103AB00045EAC323DB0A45EAC121C90AB6F120055C
:103AC0000EDD42EA0242120CC5F1200603FA06F6A8
:103AD000EB4042EA06056D42984161F100010DE0BC
:103AE00062FA06F5F240554063FA06FC82EA0C02DF
:103AF000F3405A406D42904161EB030111F4801F85
:103B000005D1641E620502D06D004041494121F497
:103B10008011430875F1004350F1000041EB04515E
:103B200070BC70471CEB410F15D223F0004352EAE2
:103B300043060BD04FEA4C0CBCEB410F04D80C0DE4
:103B4000661E342EB7DDEBE7801A994150EA410634
:103B500008BF0021E4E708BF1CEB430F28BF6FF04C
:103B60000001DDE710B582B0040000A801F01EFAE4
:103B70000100200001F01BFA0021200001F01BFAD7
:103B8000200016BD10B50400200001F03DFA200011
:103B900010BDC068704770B504000D00200000F033
:103BA00021F80600200001F048FA864201D20120E7
:103BB00000E00020C0B2002807D02B000122A1683D
:103BC000200001F044FAA06007E0200001F04BFA69
:103BD0002A000100200001F04DFA70BD406810EB92
:103BE0000110704781684068081A0011704702464A
:103BF00013781BB112F8013F002BFBD111F8013BE8
:103C0000137012F8013B002BF8D1704710B582B049
:103C1000040000A801F052FA0100200001F04FFA60
:103C20000021200001F04FFA200016BD10B504005D
:103C3000200001F072FA200010BDC0E90223704795
:103C4000010040F10980F446404200F005F851F0CF
:103C500000416047010000BF09D0B0FA80F1884000
:103C6000C91CC1F58461090501EBD02140057047ED
:103C700081684068081A182190FBF1F070471822FB
:103C8000406802FB0100704770B504000D00200081
:103C9000FFF7EEFF0600200001F05AFA864201D23B
:103CA000012000E00020C0B2002807D02B00012234
:103CB000A168200001F058FAA06007E0200001F0A0
:103CC00060FA2A000100200001F062FA70BDC0E92C
:103CD0000423704780B5DFF80C040078002808D171
:103CE0000021DFF80404FEF7ADFFDFF8F80301213F
:103CF0000170DFF8F8030078002808D10021DFF810
:103D0000F003FEF79FFFDFF8E40301210170DFF805
:103D1000E4030078002808D10021DFF8DC03FEF777
:103D200091FFDFF8D0030121017001BD10B504003F
:103D3000200001F051FADFF8C40320600020A080C9
:103D40000020A0600020E060002020610020606171
:103D5000200010BD10B504000298A180A260E360AD
:103D600020616069002804D0606961690968896818
:103D7000884710BD8088704780687047C06870476A
:103D80000069704780B50A0010F114011000126834
:103D90005269904701BD80B5DFF8640300780028C0
:103DA00007D1DFF86003FFF7C1FFDFF854030121FB
:103DB0000170DFF8500302BDDFF84C231060DFF81C
:103DC00048034160DFF84003704710B504002160EC
:103DD0001100201D01F004FADFF83003D0E90023C0
:103DE000210014F1140001F00FFADFF82403D0E9E8
:103DF0000023210014F1280001F006FADFF8140373
:103E0000D0E90023210014F13C0001F0FDF9DFF8B6
:103E10000803D0E90023210014F1500001F0F4F967
:103E2000DFF8F802D0E90023210014F1640001F06A
:103E3000EBF90020A0670021201D01F0F9F904F240
:103E4000280101600121201D01F0F2F904F23C017A
:103E500001600221201D01F0EBF904F25001016024
:103E60000321201D01F0E4F904F264010160200047
:103E700010BD70B505000C001600DFF8A41220007C
:103E800001F0DAF9DFF89C1201F0D9F9DFF89012AD
:103E900001F0D2F9DFF89012200001F0D0F9286883
:103EA00029680968C9688847010089B2200001F0C3
:103EB000BAFADFF86C1201F0BFF9DFF870122000D7
:103EC00001F0BDF9310001F0BAF9DFF8541201F048
:103ED000B3F928682968096809698847002811D05A
:103EE000DFF84C12200001F0AAF928682968096857
:103EF000096988470100200001F0A1F9DFF82012CC
:103F000001F09AF9DFF82C12200001F098F92868E6
:103F100029680968496988470100200001F083FA8F
:103F20007F4901F089F970BD70B504000D0020686B
:103F300000282CD0206821680968C96888470600D5
:103F4000310089B2200000F0A7F800281FD0A56733
:103F5000A06F002809D0B6B23100201D01F068F929
:103F6000006801688968884711E000F0A2F872498A
:103F700001F065F900F09DF8704901F060F900F07A
:103F800098F86F4901F05BF9654901F055F970BD8A
:103F900038B504006B4AA16F2000FFF76AFF206864
:103FA000216809688969884705006749A06F01F0A1
:103FB00046F9290001F043F9594901F03DF931BDB5
:103FC00038B50400614AA16F2000FFF752FF206856
:103FD00021680968896988470500002D1BD0286879
:103FE00000280AD05A49A06F01F029F9296801F088
:103FF00026F94B49A06F01F01FF9686800280AD024
:104000005149A06F01F01BF9696801F018F94449A2
:10401000A06F01F011F931BD38B504004D4AA16F10
:104020002000FFF726FF2068216809688969884712
:104030000500002D0AD04449A06F01F000F92900C5
:1040400001F0FDF83649A06F01F0F6F831BD38B542
:104050000400414AA16F2000FFF70BFF2068216890
:1040600009688969884705003C49A06F01F0E7F8B5
:10407000296801F0D8F92A4901F0DEF83849A06F23
:1040800001F0DDF8264901F0D7F831BD80B5354A99
:10409000816FFFF7EEFE01BD10B50C00001D01F0B1
:1040A00033FAA4B2844201D2012000E00020C0B261
:1040B00010BD80B52C480078002805D12B4801F0B0
:1040C00029FA29480121017029480078002807D1E0
:1040D00000222649274801F029FA254801210170CC
:1040E000244802BDFE28002064280020FF2800206C
:1040F0006C28002000290020682800201CED020800
:10410000EF280020A027002010280020E81A03082C
:10411000F01A0308F81A0308001B0308081B030819
:1041200025E90208C4160308B0130308C0130308E6
:10413000E01A0308D01303083CED02085C030308EF
:10414000D0160308F0130308DC160308101B03083D
:10415000E8160308F416030800140308E013030824
:10416000B4F80208181B0308F02800209C26002041
:10417000F128002044270020F8B504000D0020009D
:1041800001F0E8F9A84201D2012000E00020C0B20D
:10419000002803D0200001F0E1F93BE0200000F00E
:1041A000D7FFA84201D2012000E00020C0B20028C1
:1041B00030D02900200001F0E7F90600200001F0CE
:1041C000E9F90700200000F0DCFF330002003900AD
:1041D000200001F0E6F92000FFF74AFD07006068C3
:1041E00000280ED0A2686168200001F0E3F9E068C1
:1041F0006168401A182190FBF1F26168200001F01B
:10420000E1F9182000FB0560E060182000FB076062
:10421000A0606660F1BD10B50400FEF715FE200039
:1042200010BDC0E90623704780B501F0D5F9564AA4
:10423000C2E9000155480078002806D10021544801
:10424000FEF700FD51480121017052480078002816
:1042500006D100215048FEF7F5FC4E4801210170BF
:104260004E480078002806D100214D48FEF7EAFCB0
:104270004A480121017001BD80B54A480068401CD0
:104280004849086047480068012832D101F0A4F984
:104290003D4AC2E90001444801220023C0E900234D
:1042A00042487FF07F4101604148006850F00400BF
:1042B0003F4908603E48006850F002003C490860F1
:1042C0003B48006850F001003949086039480078DF
:1042D000002805D1384801F0D3F936480121017092
:1042E00001F0DAF90921026812689047324901F0B9
:1042F000E0FB01BD30B43148002101703048026854
:1043000000232B480068C0F30040C00710D52C489C
:10431000026800232B48D0E90045244800680002C9
:10432000000A401CC11720186941264CC4E900014D
:104330002448D0E900457FF07F40002120186941E2
:10434000801A99411D4A0123137030BC70471548EB
:104350000068401E1349086012480068002811D107
:104360001348006830F004001149086010480068E4
:1043700030F002000E4908600D4800684008400017
:104380000B4908607047000008280020FE28002024
:1043900064280020FF2800206C280020002900202D
:1043A0006828002034280020A000002014E000E04D
:1043B00010E000E0ED280020DC270020D4000020E1
:1043C00018E000E000280020704780B501F079FB7C
:1043D00002BD38B504000D00002060600020A06020
:1043E0000020E060002D01D1002032BD200001F04E
:1043F0006FFBA84201D2012000E00020C0B20028DB
:1044000003D0200001F068FB0AE02900200001F041
:1044100079FB60606068A060606810EBC500E060D8
:104420000120E2E710B50400606800280CD0A26803
:104430006168200001F06CFBE0686168401AC210FE
:104440006168200001F06CFB002060600020A0602B
:104450000020E06010BD4168002901D1002003E088
:10446000C1684068081AC010704738B50C001500C4
:104470001A0003002900200001F057FB14EBC500CF
:1044800032BD80B5816800A801F068FB006802BDFC
:1044900072B583B0040015002000FEF73BFD002834
:1044A00001D1002608E0200001F05FFB019001A986
:1044B00003A801F061FB06002B00012203992000F4
:1044C00001F05FFB200001F050FB0090310000A8DC
:1044D00001F01FFC04B070BD016042607047C0E98C
:1044E000082370477047002818BF01F01BBC7047B5
:1044F00038B50446DFF84402206004F25800DFF8C3
:1045000040520560DFF83C520560009313460A46AE
:10451000DFF83412204600F012F832BD016851F87D
:104520000C1C081838B50446DFF81C1200F04DF8D2
:10453000054604F1580001F039FC284632BD2DE94A
:10454000F84305460E4691469846089C301D016882
:10455000296051F80C1C406848512F1D0022394633
:10456000286850F80C0C401901F07EFD3068286076
:1045700050F80C0CF1684151B9F1000F01D020073F
:1045800001D44C4604E04846FEF710FE00EB090457
:10459000DFF8B8013860381D01F085FD0420FFF711
:1045A0003DF901F0DCFDB863384601F0FCFEDFF8B0
:1045B000A00138600020009023464A464146384614
:1045C00000F0C8F82846BDE8F28310B50446086834
:1045D000206050F80C0CC9680151201D00F002F851
:1045E000204610BD10B50446DFF864012060204667
:1045F00000F0F7F8204601F0F7FE204610BD2DE947
:10460000F0410446884618F1010F02D10020BDE8B0
:10461000F081606A016851B1626B1268914206D202
:104620004A1C026081F800800878BDE8F08194F8A7
:10463000480000F00E00042828D1206A006808B95C
:10464000002704E0606B006821690968471A07EBDE
:10465000D7704010E16B8842B8BF08462021E16363
:104660006FF0004102E000EBD070401001280DDB3C
:104670000A1ABA42F7DBC619E16C0800304601D0CD
:10468000884701E0FEF7AFFD05461DB94FF0FF304A
:10469000BDE8F081012F05DB3A4620690168284614
:1046A00000F0FEFA94F84800C00708D52069216D93
:1046B0000A00006801D0884701E0FEF792FDA06C77
:1046C00040F00100A06420696FB9656461690D6004
:1046D000616A0D607119626B11600560206A056086
:1046E000206B056020E0616C0268891A49196164D9
:1046F000616A0B6802686769D7F800C0ACEB020C0E
:10470000AC44C7F800C09B1A5B190B607319666B49
:104710003360236A1E68076809680560F01B40194A
:104720001860206B491C0160616A0868421C0A60BD
:1047300080F800800078BDE8F081000090F0020869
:104740006815030828150308D0150308E0DC0208E3
:1047500028DD02082DE9F04104460D4616461F46A5
:10476000DDF8188001F01FFE2020E06300202064A7
:104770006064E0642065C4F8488036B948F00400FD
:10478000A064212D2BDBE56329E0002D48BF6FF0ED
:10479000004504D403D13046FEF708FD0546A819AC
:1047A00060643FB920690660206A0660A819216B21
:1047B000086014E0B74238BF374603D3A919B9429D
:1047C00038BFAF1960690760606A0760A819616B3C
:1047D000086020690660206A0660206B0760BDE8FB
:1047E000F08110B5044694F8480000F00900012853
:1047F00008D12069216D0A00006801D0884701E0D6
:10480000FEF7EFFC00206064A06C20F00900A064BB
:1048100010BD10B50400206850F80C0C0019884732
:10482000200010BDC160704701617047DFF810C003
:10483000C0E900C17047DFF80CC0F9E700000000D4
:10484000254800082948000810B504000A00002C7B
:1048500004D0206850F80C0C001900E000205168CA
:1048600012689047200010BD2DE9F0438FB006007C
:1048700014001D0000208DF81000310006A801F082
:10488000C7FD01F007FE00283DD0306850F80C0C41
:10489000811905A801F000FE05A801F003FE07003C
:1048A00005A801F041FE306850F80C0C801901F0A9
:1048B0004AFE8046306850F80C0C801901F045FE25
:1048C000814641460CA801F043FECDE902455FFA5E
:1048D00089F9CDF80490316851F80C1C89190091C0
:1048E000D0E90023390008A801F036FEDDE908010F
:1048F000CDE90A010AA801F045FE002803D00421F1
:1049000004A801F042FE00229DF81010306850F813
:104910000C0C801901F03DFE06A801F04DFE3000A0
:104920000FB0BDE8F083F0B589B004000E000020A0
:104930008DF80000210007A801F06AFD01F0AAFD32
:10494000002800F0B480002C04D0206850F80C0C33
:10495000001900E0002001F03DFE022801DA0025E8
:104960000AE0002C04D0206850F80C0C001900E07C
:10497000002001F02FFE451E002C04D0206850F8C6
:104980000C0C001900E0002001F026FE4FF4E0714D
:1049900080B201F023FE402801D0012000E0002079
:1049A000C0B2002821D19DF8000000286FD101F08D
:1049B00018FE0690002C33D0206850F80C0C00191B
:1049C0002FE0002001F0C1FD0100C9B2380001F064
:1049D0000BFE039003A904A801F01FFE002803D0DA
:1049E000042100A801F0D1FD6D1E9DF800000028F3
:1049F000D9D1012DD7DB01F0F4FD0490002C04D0B7
:104A0000206850F80C0C001900E0002001F09BFD1C
:104A10000700002CD5D0206850F80C0C0019D1E705
:104A2000002001F090FD3100C9B201F0DDFD0590DC
:104A300005A906A801F0F1FD10F0010090F00100B9
:104A4000C0B2002823D1042100A801F09EFD1EE081
:104A5000002001F078FD0600002C04D0206850F8FA
:104A60000C0C001900E0002001F06FFD0100C9B23C
:104A7000300001F0B9FD019001A902A801F0CDFDBF
:104A8000002803D0042100A801F07FFD6D1E9DF8D1
:104A9000000000280BD1012D09DB01F0A2FD0290DE
:104AA000002CD5D0206850F80C0C0019D1E7002C50
:104AB00004D0206850F80C0C001900E00020002100
:104AC00001F0B4FD002C04D0206850F80C0C001943
:104AD00000E0002000229DF8001001F05AFD07A818
:104AE00001F06AFD200009B0F0BD80B501F0A2FD23
:104AF00002BD70B582B004000D00160000A801F0E0
:104B00009AFD0100200001F097FD320029002000ED
:104B100001F096FD200076BDF8B50400FEF763F9BC
:104B20002268D3170B48D0E90045A4FB020104FB1F
:104B3000031105FB0211084AD2E900454FF47A76C9
:104B40000027A6FB042306FB053307FB0433FEF70F
:104B500045FAF4BD08280020A000002076B5040026
:104B60000D00200001F07FFDA84201D2012000E0ED
:104B70000020C0B200280DD0200001F078FD060012
:104B8000200001F070FD01AB2A1A3100200001F075
:104B900075FD1BE0200001F066FD854201D2012079
:104BA00000E00020C0B2002810D0200001F022FE5A
:104BB0000090290000A801F024FE0500200001F06B
:104BC00056FD02002900200001F023FE73BD10B540
:104BD0000400200001F03EFE200010BD80B501F071
:104BE00051FE02BD4068081870470800C0B2704707
:104BF000F8B50400FEF7F7F82268D3170B48D0E9A0
:104C00000045A4FB020104FB031105FB0211084A45
:104C1000D2E90045074E0027A6FB042306FB053317
:104C200007FB0433FEF7DAF9F4BD00BF08280020C3
:104C3000A000002040420F0062F30F2262F31F42E7
:104C4000401810F0030308D0C91A1FD3DB0748BF70
:104C500000F8012D28BF20F8022D130030B41446AF
:104C60001546103928BF20E93C00FAD8490728BF6B
:104C700020E90C0048BF40F8042D890028BF20F827
:104C8000022D48BF00F8012D30BC7047C91818BF6D
:104C900000F8012DCB0728BF00F8012D7047200038
:104CA00062B38B0708D0521E11F8013B00F8013B9C
:104CB00000F024808B07F6D1830740F0208000BFEE
:104CC000103A07D330B4B1E83810103AA0E83810E1
:104CD000F9D230BC530724BFB1E80810A0E808108F
:104CE00044BF51F8043B40F8043BD20724BF31F8DD
:104CF000022B20F8022B44BF0B7803707047083A50
:104D000007D3B1E80810083A40F8043B40F804CB58
:104D1000F7D25307E4E7704780B501F0B4FD02BD58
:104D200070B504000D0016002900200001F0B2FD4E
:104D3000C0B2002806D033002A006168200001F0CC
:104D4000D1FDA06070BD40680818704710B5040020
:104D5000606800280BD0A2686168200001F0CDFDDA
:104D6000E0686168421A6168200001F0CEFD002011
:104D700060600020A0600020E06010BD80B501F000
:104D8000C9FD01BD70B5054605F10F00C408E4007A
:104D9000012001F001FEA5422BD2082C04D20824E8
:104DA00002E0083000F0BEFF244D286801000CD15D
:104DB000291D0868B8B10268A24238BF011DF8D3A6
:104DC00016E01368A34213D2111D0A68002AF8D115
:104DD0000068291D00E0111D0A68824203D0136893
:104DE000A342F8D304E001F027FE0028D9D1002126
:104DF00021B9012001F014FE002070BD0E6830685A
:104E0000A0F10802A2423CBF7068086007D3A21953
:104E10000A6073685360001B0A6810603460086899
:104E200000281DBF41680029001D002028600120C6
:104E300001F0F6FD06F1080070BD000020280020FA
:104E400080B500A801F016FE01F06DFE00A801F08B
:104E500015FE01BD80B501F0E3FE02BD2DE9F14D67
:104E600087B00C4690469A46054607A801F0D9FE41
:104E700000F0080BBAF1000F1CBF0021CAF80010A7
:104E800020F00800012835D10220009004AB224612
:104E90000799284601F060FF040004BF0020CDE917
:104EA00002001CD00598FEF7CBFECDE90201022CD2
:104EB00015DB06AE671EDDE902230020374902F04C
:104EC0002BF804460D4656F8040BFEF7B9FE2246B1
:104ED0002B46FEF713FDCDE902017F1EEBD15346B1
:104EE000049800EB0802DDE9020102F012F9CDE9B5
:104EF000020149E0022836D1009004AB224607990E
:104F0000284602F0CDF9040004BF0020CDE90200DC
:104F10001CD00598FEF794FECDE90201022C15DBAA
:104F200006AE671EDDE9022300201D4901F0F4FFF3
:104F300004460D4656F8040BFEF782FE22462B4629
:104F4000FEF7DCFCCDE902017F1EEBD1049902A83B
:104F500002F0B0FA53464246DDE9020102F0D9F808
:104F6000CDE9020110E0032804BF00200D4905D05F
:104F7000042806D14FF0FF306FF00041CDE9020167
:104F800002E00020CDE90200BBF1000FDDE90201E3
:104F900018BF81F0004108B0BDE8F08D65CDCD416E
:104FA0000000B0410000F07F002357E7704780B554
:104FB00002F00DFB02BD38B504000D00002060605A
:104FC0000020A0600020E060002D01D1002032BD53
:104FD000200002F003FBA84201D2012000E00020E3
:104FE000C0B2002803D0200002F0FCFA0AE0290039
:104FF000200002F00DFB60606068A060606810EB4C
:105000000510E0600120E2E710B5040060680028A8
:105010000CD0A2686168200002F000FBE0686168C3
:10502000401A02116168200002F000FB002060605D
:105030000020A0600020E06010BD4168002901D17F
:10504000002003E0C1684068081A0011704738B5B5
:105050000C0015001A0003002900200002F0EBFAF2
:1050600014EB051032BD80B5816800A802F0FCFA8F
:10507000006802BD72B583B0040015002000FEF781
:10508000B1FD002801D1002608E0200002F0F3FA6B
:10509000019001A903A802F0F5FA06002B000122F5
:1050A0000399200002F0F3FA200002F0E4FA0090E5
:1050B000310000A802F0B7FB04B070BD704780B5A6
:1050C00002F0B9FB02BD38B504000D00002060609D
:1050D0000020A0600020E060002D01D1002032BD42
:1050E000200000F037FAA84201D2012000E00020A1
:1050F000C0B2002803D0200000F030FA0BE02900F5
:10510000200000F041FA60606068A06018206168CB
:1051100000FB0510E0600120E1E710B504006068C5
:1051200000280ED0A2686168200000F043FAE06811
:105130006168401A182190FBF1F26168200000F0CC
:1051400041FA002060600020A0600020E06010BDF7
:105150004168002901D1002005E0C1684068081AB3
:10516000182190FBF1F0704738B50C0015001A00BB
:1051700003002900200002F065FB182000FB054019
:1051800032BD80B5816800A802F075FB006802BDE1
:1051900072B583B0040015002000FEF769FD0028F9
:1051A00001D1002608E0200000F0F4F9019001A9E7
:1051B00003A802F067FB06002B00012203992000E0
:1051C00002F067FB200000F0E5F90090310000A834
:1051D00002F036FC04B070BD80B502F039FC02BDAF
:1051E00030B583B004000D0001A802F032FC0100CC
:1051F000200002F02FFC0020009000AA29002000CF
:1052000002F02CFC20003EBDF8B506000F00140093
:105210001D00300002F03EFC04483060B76016F11B
:105220000C00C0E900453000F2BD00BF04FD0208DB
:10523000406810EB8100704780B5884702BD2DE9BA
:10524000F04188B004000D0000208DF80000280017
:1052500002F09AFD0600002C04D0206850F80C0CD7
:10526000001900E0002001F0B5F9012811DB002C45
:1052700004D0206850F80C0C001900E0002001F068
:10528000A9F9864201DA012000E00020C0B200281E
:1052900001D100270AE0002C04D0206850F80C0C43
:1052A000001900E0002001F095F9871B210005A8F6
:1052B00001F0AEF801F0EEF8002804D1042100A8B6
:1052C00001F063F99BE0002C04D0206850F80C0C2E
:1052D000001900E0002001F07FF94FF4E07180B286
:1052E00001F07CF9402801D0012000E00020C0B28C
:1052F000002801D12AE07F1E012F27DB01F071F980
:105300000490002C04D0206850F80C0C001900E028
:10531000002001F018F98046002C04D0206850F8D5
:105320000C0C001900E0002001F00FF90100C9B2D7
:10533000404601F059F9039003A904A801F06DF962
:105340000028D8D0042100A801F01FF99DF8000022
:10535000002819D1002C04D0206850F80C0C00193A
:1053600000E0002001F0EFF83200290002F010FD0B
:10537000B04201D1012000E00020C0B2002803D1DA
:10538000042100A801F001F99DF8000000282BD1AC
:1053900000E07F1E012F27DB01F023F90290002C93
:1053A00004D0206850F80C0C001900E0002001F037
:1053B000CAF80500002C04D0206850F80C0C001925
:1053C00000E0002001F0C1F80100C9B2280001F09E
:1053D0000BF9019001A902A801F01FF90028D8D00B
:1053E000042100A801F0D1F8002C04D0206850F866
:1053F0000C0C001900E00020002101F017F9002C2E
:1054000004D0206850F80C0C001900E000200022A5
:105410009DF8001001F0BDF805A801F0CDF82000BE
:1054200008B0BDE8F0812DE9F0418EB004000E0017
:1054300000208DF80C00210005A800F0E9FF01F024
:1054400029F8002850D0206850F80C0C011904A845
:1054500001F022F804A801F025F8050004A801F0E5
:1054600063F8206850F80C0C001901F0B5F84FF4FF
:10547000606180B201F0B2F880B2B0F5806F03D005
:1054800080B2B0F5006F00D1FFE7206850F80C0C37
:10549000001901F058F80700206850F80C0C0019AA
:1054A00001F053F8804639000BA801F051F802963C
:1054B0005FFA88F8CDF80480216851F80C1C0919AE
:1054C0000091D0E90023290007A802F066FCDDE97D
:1054D0000701CDE9090109A801F054F8002803D01B
:1054E000042103A801F051F800229DF80C10206857
:1054F00050F80C0C001901F04CF805A801F05CF80C
:1055000020000EB0BDE8F08181684068081A801064
:105510007047200010B50400200002F052FC024841
:105520002060200010BD00BF08DC0208F8B50400B0
:105530000D001600064F38682060201D02F045FC63
:105540003300DBB22A003900200002F042FCF2BD39
:10555000A01B030880B502F051FC02BD00B58FB05E
:10556000084908A802F052FC010000A802F064FCFF
:1055700001F099FA00A802F06BFC08A802F06FFC99
:105580000FB000BDBC09030880B50800002102F07F
:105590006FFC02BD80B5416800A802F06CF900689C
:1055A00002BD10B50C0011001A000300200002F02B
:1055B00065FC10BD80B50B0011000200180002F060
:1055C00076FC01BD80B50800FEF78DFF01BD4600E9
:1055D000224AC2E900017047204AD2E9000170471F
:1055E0001F4AD2E9000170471D4AC2E90001704715
:1055F0001C4AD2E9000170471A4AC2E9000170470B
:1056000030B4194988420BD01849884208D018494B
:10561000884205D01749884202D0174988420BD1E9
:105620001048D0E9002302240025A4FB020104FB5A
:10563000031105FB02110AE00948D0E90023022406
:105640000025A4FB020104FB031105FB021130BC81
:1056500070470A4AC2E9000170470000A800002014
:10566000B0000020B800002000000140000401400C
:10567000004001400044014000480140C0000020BB
:1056800010B50400200002F0FDF90248206020005F
:1056900010BD00BFDCF2020810B5C5480078002834
:1056A0000FD14C20FEF7BAF804000522202120007B
:1056B00002F0C4FA0100BF4802F006FCBC48012118
:1056C0000170BC4802F002FC10BD80B5FFF7E4FF9A
:1056D000012102689268904701BD80B5FFF7DCFFA9
:1056E000022102689268904701BD80B5FFF7D4FFA0
:1056F000032102689268904701BD80B5FFF7CCFF97
:10570000042102689268904701BD80B5FFF7C4FF8D
:10571000052102689268904701BD80B5FFF7BCFF84
:10572000062102689268904701BD80B5FFF7B4FF7B
:10573000072102689268904701BD80B5FFF7ACFF72
:10574000082102689268904701BD80B5FFF7A4FF69
:10575000092102689268904701BD80B5FFF79CFF60
:105760000A210268926890479348006850F0080048
:105770009149086001BD80B5FFF78EFF0B210268DB
:10578000926890478C480068C0F34010C00706D567
:105790008948006850F020008749086034E0864856
:1057A0000068C0F38010C00706D58348006850F039
:1057B00040008149086027E07F480068C0F3C010BE
:1057C000C00706D57C48006850F080007A49086020
:1057D0001AE079480068C0F30020C00707D5764872
:1057E00000684FF480710843734908600CE0724808
:1057F0000068C0F34020C00706D56F4800684FF42A
:10580000007108436C490860BFF34F8F01BD80B53C
:10581000FFF742FF0D2102689268904767480068D1
:1058200040084000654908606448006830F008009E
:1058300062490860624800684008400060490860AA
:105840005F48006830F002005D49086001BD80B526
:10585000FFF722FF0E2102689268904701BD80B5D4
:10586000FFF71AFF0C2102689268904752480068BF
:10587000C0F38020C00706D54F48006850F4806010
:105880004D4908603FE04C480068C0F3C020C007A5
:1058900006D54948006850F400604749086032E086
:1058A00045480068C0F30030C00706D5424800688C
:1058B00050F480504049086025E03F480068C0F33C
:1058C0004030C00706D53C48006850F400503A49C3
:1058D000086018E038480068C0F38030C00706D57B
:1058E0003548006850F48040334908600BE0324886
:1058F0000068C0F3C030C00705D52F48006850F4D9
:1059000000402D49086001BD2E48006830F080003D
:105910002C4908602C480068400840002A4908606B
:105920002948006830F002002749086026480068CE
:1059300030F0040024490860704780B5FFF7ACFEE2
:1059400010210268926890471E4800684008400095
:105950001C4908601D480068400840001B49086059
:105960001A48006830F002001849086001BD80B58F
:10597000FFF792FE11210268926890471148006873
:1059800030F002000F4908600E48006830F0040053
:105990000C4908600B48006830F0080009490860AD
:1059A0000848006830F010000649086001BD00009A
:1059B000EE2800203C280020143C0140100001404B
:1059C000104401401004014010180040101C004019
:1059D00080B5FFF761FE122102689268904701BD11
:1059E00080B5FFF759FE132102689268904701BD08
:1059F00080B5FFF751FE142102689268904701BDFF
:105A000080B5FFF749FE152102689268904701BDF5
:105A100080B5FFF741FE162102689268904701BDEC
:105A200080B5FFF739FE172102689268904701BDE3
:105A300080B5FFF731FE182102689268904701BDDA
:105A400080B5FFF729FE192102689268904701BDD1
:105A500080B5FFF721FE1A2102689268904701BDC8
:105A600080B5FFF719FE1B2102689268904701BDBF
:105A700080B5FFF711FE1D2102689268904701BDB5
:105A800080B5FFF709FE1C2102689268904701BDAE
:105A900080B5FFF701FE1E2102689268904701BDA4
:105AA00080B5FFF7F9FD1F2102689268904701BD9C
:105AB000FEE780B50A0001001000126852699047A5
:105AC00001BD10B50400200002F002FA200010BD54
:105AD00080B502F0FEF902BD00B58FB0084908A8F4
