:020000040800F2
:1000000030B70120E1140308875500089755000810
:10001000A7550008B7550008C755000800000000A4
:10002000000000000000000000000000D75500089C
:10003000E755000800000000F755000807560008C3
:10004000455800084558000845580008455800081C
:10005000455800084558000845580008455800080C
:10006000455800081756000845580008455800082C
:1000700045580008455800084558000845580008EC
:1000800045580008455800084558000845580008DC
:1000900045580008455800084558000845580008CC
:1000A00045580008335600084558000845580008D0
:1000B0004558000873560008455800084558000880
:1000C000455800084558000845580008455800089C
:1000D00045580008B5570008C5570008D55700080F
:1000E0008356000845580008455800082D57000859
:1000F0005F57000845580008455800084558000853
:1001000045580008E55700084558000845580008BC
:10011000F5570008055800084558000845580008DC
:10012000455800084558000845580008155800086B
:10013000455800084558000845580008455800082B
:10014000455800084558000845580008255800083B
:10015000455800084558000845580008355800081B
:1001600045580008455800084558000845580008FB
:1001700045580008455800084558000845580008EB
:100180004558000880B500F03FF802BD80B500F08A
:1001900076F802BD80B5DFF828080078002808D17D
:1001A0000021DFF8200802F00DFDDFF8140801211E
:1001B0000170DFF814080078002808D10021DFF86A
:1001C0000C0802F0FFFCDFF8000801210170DFF8E5
:1001D00000080078002808D10021DFF8F80702F0B5
:1001E000F1FCDFF8EC0701210170DFF8EC07007883
:1001F000002808D10021DFF8E40702F0E3FCDFF873
:10020000D8070121017001BD10B50400DFF8D00747
:100210002060DFF8D0076060DFF8C807A06000202A
:10022000E060DFF8C00720615F20A075002000219A
:10023000C4E9060100202062002084F82400022086
:1002400084F825000020A062012084F82C00002002
:10025000206300206063012084F838000020E06300
:1002600000202064012084F844000020A064A07DC8
:1002700020750020607502F0A7FD200010BD10B5AC
:100280000400DFF85C07206002F0A2FD200010BD32
:100290004163704780B50A0010F1400110001268F8
:1002A0005269904701BDC163704781757047816293
:1002B000704741607047406870478160704710B573
:1002C0000400E160E06802F021FC206110BD10B57F
:1002D0000400022084F82500012084F82C00E06846
:1002E00000280CD0A168E06802F0C6FBE06802F0CC
:1002F000EDFB00222169200023689B68984710BD10
:10030000012180F82510704790F84410002280F8F1
:1003100044200800C0B2704710B504002000FFF769
:1003200031FFDFF8C406206014F14C0002F068FDD4
:100330000020E06500202066200010BD10B50400FC
:10034000DFF8A406206014F14C0002F069FD2000E3
:10035000FFF71CFF200010BD80B50800002803D067
:10036000DFF8801602F074FD002002BD70B50600B3
:100370000C00256816F14C0002F08CFD401E8542F1
:1003800001D3012000E00020C0B2002801D00020ED
:1003900033E06D1C00E06D1C16F14C0002F07AFD9C
:1003A000854201D2012000E00020C0B200280AD01E
:1003B000290016F14C0002F072FD00790028EAD005
:1003C0002560012019E016F14C0002F063FD401E8B
:1003D00085420AD1290016F14C0002F060FD007937
:1003E00090F0010090F0010000E00020C0B2002871
:1003F00002D02560012000E0002070BD70B504002F
:100400000D002E68002E01D1002020E0761E00E0B5
:10041000761E002E0AD0310014F14C0002F03FFD90
:1004200000790028F4D02E60012010E0002E0DD1BC
:10043000310014F14C0002F032FD007990F001001F
:10044000C0B2002802D12E60012000E0002070BD63
:100450002DE9F04782B004000D000026606B0028F3
:1004600005D0606B616B0968C9688847060094F81D
:100470002C00002800F08280E06B02F014FDB3A392
:1004800000220021E06B02F01BFD636800220321C3
:10049000E06B02F015FD14F14C0002F0FBFC0028AB
:1004A0000AD0216E14F14C0002F0F9FC007990F0B2
:1004B000010090F0010000E00020C0B200285DD0F3
:1004C0005FF00109E06D471C5FF0010AE06B02F08C
:1004D00002FDB0F10108206E0090009914F14C006B
:1004E00002F0DDFC0068FFF7E6FE03003A000121A0
:1004F000E06B02F0E5FC022F1BD3B7F1010915E018
:1005000000A92000FFF77AFF00280DD0009914F110
:100510004C0002F0C4FC0068FFF7CDFE03004A4621
:100520000121E06B02F0CCFCB9F10109B9F1000F37
:10053000E6D1206E009047451AD217F1010915E067
:1005400000A92000FFF712FF00280DD0009914F138
:100550004C0002F0A4FC0068FFF7ADFE03004A4621
:100560000121E06B02F0ACFC19F10109C845E7D2AA
:1005700077A33A000021E06B02F0A2FCF6B20C2E49
:1005800067D00D2E05D00E2E23D0102E00F08480C3
:100590008DE0E06D00280BD1206E002818D014F1FA
:1005A00060012000FFF72AFF012084F82C000FE0F3
:1005B000206E002809D014F160012000FFF71EFF13
:1005C000002802D0E06D401EE065012084F82C0078
:1005D0006DE0E06B02F07FFC801EE16D814201D393
:1005E000012000E00020C0B2002816D014F14C0019
:1005F00002F050FC401E216E814201D2012000E039
:100600000020C0B2002823D014F160012000FFF7C1
:10061000ADFE012084F82C001AE014F14C0002F029
:1006200039FC401E216E814201D2012000E00020F1
:10063000C0B200280CD014F160012000FFF796FE34
:10064000002802D0E06D401CE065012084F82C00F9
:100650002DE014F14C0002F01DFC002801D0012017
:1006600000E00020C0B2002815D0216E14F14C002B
:1006700002F015FC21000068FFF719FE216E14F14D
:100680004C0002F00CFC00682860012084F82C006B
:10069000012084F838000AE0A06A002807D0012071
:1006A00084F82C00A06A2860012084F83800BDE896
:1006B000F3871CB5040000918DF80420606B0028BE
:1006C00003D0616B0098FFF7E3FDE068002803D0DA
:1006D000E1680098FFF7F3FDE06B002805D0E16BBF
:1006E0000098009A126812689047A17D0098FFF761
:1006F000DCFD21000098FFF7DAFD00A914F14C00A1
:1007000002F0EBFB002020660020E065002114F1E0
:100710004C0002F0C4FB0079002804D114F1600100
:100720002000FFF723FE012084F82C0014F14C0078
:1007300002F0B0FB401E16BD80B50800002802D0B4
:100740009EA102F085FB002002BD00005E7E00003D
:100750003E00000038B504000D0014F14C0002F01A
:1007600099FB401EA84201D2012000E00020C0B247
:1007700000281AD1290014F14C0002F090FB00214E
:100780000171002020660020E065002114F14C007A
:1007900002F085FB0079002804D114F160012000EB
:1007A000FFF7E4FD012084F82C0031BD38B50400CA
:1007B0000D0014F14C0002F06DFB401EA84201D266
:1007C000012000E00020C0B200281AD1290014F155
:1007D0004C0002F064FB0121017100202066002022
:1007E000E065002114F14C0002F059FB007900286B
:1007F00004D114F160012000FFF7B8FD012084F856
:100800002C0031BD2DE9F04104000D001600002739
:100810005FF0000801E018F1010814F14C0002F04B
:1008200039FB804501D2012000E00020C0B2002841
:1008300012D0414614F14C0002F031FB0068A8428E
:1008400001D1012000E00020C0B20028E3D0012740
:10085000002E01D0C6F800803800C0B2BDE8F0819B
:1008600010B582B004000020009000AA2000FFF71D
:10087000C9FF002803D000992000FFF76BFF13BDCC
:1008800010B582B004000020009000AA2000FFF7FD
:10089000B9FF002803D000992000FFF787FF13BDA0
:1008A0002DE9F84304000D0016002000FFF76AFC54
:1008B0004E4820604B48E0644A48206549486065DE
:1008C000022084F858000020E06500202066002007
:1008D00060660020A066E566002084F870000020B5
:1008E0006067012084F8780000200021C4E920011D
:1008F000E06ED0E90023C4E922230020C4F8900070
:10090000002084F8940000200021C4E92601002082
:100910000021C4E92801002084F8A800002114F176
:10092000AC0002F0FDFA0020C4F8B0000020C4F8CA
:10093000B4000020A06200202062A07D207500206D
:10094000607584F824600020E06002F03DFADFF872
:100950000C0ED0E900234FF4FA760027A6FB020123
:1009600006FB031107FB0211DFF8F42DD2E9006743
:100970004FF47A785FF00009A8FB062308FB0733E1
:1009800009FB063302F0EAFA02000B0014F118002A
:1009900002F0F8F92000BDE8F28338B504001348EE
:1009A000206002F015FA250014F1AC0002F080FB83
:1009B0002000FFF7EBFB280032BD00000000000024
:1009C00077280020E427002078280020E027002056
:1009D00075280020D827002076280020DC2700205A
:1009E00078F802086C28002094F80208F8F302084E
:1009F00080B5416600F0AEF901BD80B5816600F0BA
:100A0000A9F901BD70B584B00400089D099E0A983B
:100A1000616584F85800E5652666E2642365012572
:100A2000E06C02F083FBE16D691840182D18206D11
:100A300002F07CFB4519D4F8900002F092FB681C90
:100A400002F091FBC4F89000E06ED0E90023C4E905
:100A5000222394F858000290206E0190E06D0090DF
:100A6000D4E92223606D02F0BBFB616DD4F89000E5
:100A700002F0EEF9012084F844007FBD10B50400B7
:100A8000E26D2021606D02F0DCFDE06D616D002201
:100A9000425410BD2DE9FE4304000D001600984697
:100AA000DDF82890002D00F0B78000275FFA88F865
:100AB000B8F1010F1DD0E06C02F038FB0700002EEA
:100AC0000CD0BE420AD237003A00E16C280002F096
:100AD000C2FD002078553800BDE8FE83002003E009
:100AE000E16C415C4155401CB842F9D32020785557
:100AF0007F1CD4E9220102000B00D4F86CC0DCE9B1
:100B0000000102F0AFFD24D0012084F844005FFA18
:100B100089F9B9F1000F16D1E26ED2E90001C4E9FA
:100B2000220194F858000290206E0190E06D009030
:100B3000D4E92223606D02F053FB616DD4F890007C
:100B400002F086F90AE0D4F89010606D02F080F9A6
:100B500004E0D4F89010606D02F07AF9606D02F054
:100B6000E5FA8146002E0FD019EB070086420BD222
:100B7000B6EB07094A46616D781902F06CFD19EB76
:100B8000070000214155A7E7002004E03918626DF5
:100B9000825C4A55401C4845F8D35FFA88F8B8F1A2
:100BA000020F34D019EB07002021415519F101093A
:100BB000206D02F0BBFA8046002E16D019EB07001C
:100BC00018EB0000864210D2F01BB0EB0908424639
:100BD000216D19EB0700401902F03DFD19EB0700EC
:100BE00018EB00000021415576E7002006E0391897
:100BF00019EB0101226D825C4A55401C4045F6D339
:100C000019EB070018EB00000021415564E719EBD0
:100C10000700002141555FE700205DE70020704795
:100C200080F82410704780F8941090F894100029F0
:100C300002D1002180F8A810704780B5C0E92623B2
:100C400000F088F801BD80B5C0E9282300F082F8E3
:100C500001BD90F89420012A01D180F8A8107047B6
:100C600030B587B00400D4F8B400002801D00120CA
:100C700000E00020C9B2C0B2814201D107B030BD4E
:100C8000C9B200290ED10020C4F8B40014F1AC00A0
:100C900002F0F8FC002804D1002114F1AC0002F0AD
:100CA000F9FCEBE7D4F8B00000282ED0D4F8B0005F
:100CB000C4F8B400A06E02F00BFD02000B00D4F8E3
:100CC000B400D4F8B4100968C9698847606E02F0AE
:100CD000FFFC02000B00D4F8B400D4F8B41009688B
:100CE000096A8847D4E92623D4F8B400D4F8B410AC
:100CF000096849698847D4E92823D4F8B400D4F8AE
:100D0000B41009688969884723E0382002F010FD93
:100D10000500D4E92801CDE90401D4E92601CDE993
:100D20000201606E02F0D4FCCDE90001A06E02F079
:100D3000CFFC02000B00280002F00CFD010014F1B2
:100D4000AC0002F0A7FC14F1AC0002F02FFDC4F8D7
:100D5000B40093E710B50400D4F8B400002829D0FB
:100D6000A06E02F0B5FC02000B00D4F8B400D4F879
:100D7000B4100968C9698847606E02F0A9FC0200D6
:100D80000B00D4F8B400D4F8B4100968096A884795
:100D9000D4E92623D4F8B400D4F8B410096849691A
:100DA0008847D4E92823D4F8B400D4F8B4100968EB
:100DB0008969884710BD30B50400D4E92223E56E67
:100DC000D5E9000102F04EFC04D0002084F8440074
:100DD000012005E094F84400002184F84410C0B2DA
:100DE00030BD00002DE9FE4304000D0094F83800EA
:100DF000002805D0002084F838002000FFF767FAAB
:100E00000026606B002805D0606B616B0968C968BB
:100E10008847060094F82500012800F0F780022892
:100E200040F0998494F8240000286ED02000FFF749
:100E300025FEE06B02F037F8012084F82C00DFF883
:100E40001C09D0E900234FF4FA760027A6FB020123
:100E500006FB031107FB0211DFF80429D2E9006742
:100E60004FF47A785FF00009A8FB062308FB0733EC
:100E700009FB063302F072F802000B0014F11800AF
:100E800001F080FF002084F8700000202062636879
:100E900000220021E06B02F013F894F85800029051
:100EA000206E0190E06D0090E06ED0E90023606D4F
:100EB00002F096F901250026E06C02F037F9471C94
:100EC000606D02F033F9C01910F101085FF00109FB
:100ED000E36C4A463100E06B01F0F2FF636D4A4675
:100EE0003900E06B01F0ECFF236D4A464146E06BB0
:100EF00001F0E6FF20202075E06ED0E90023C4E970
:100F000022232000FFF7FCF97FE0F6B20C2E02D07E
:100F1000102E17D01CE094F82400002811D00120D6
:100F200084F82C00A06A2860012084F83800E0686A
:100F3000002806D1E06B01F0CEFF411EE06B02F00D
:100F40003DFC62E0A06A2860012084F838005CE083
:100F500094F82C00002803D194F82400002838D1FC
:100F6000E06B01F0A0FF636800220021E06B01F05C
:100F7000A7FF94F858000290206E0190E06D009059
:100F8000E06ED0E90023606D02F02AF90125002609
:100F9000E06C02F0CBF8471C606D02F0C7F8C01996
:100FA00010F101085FF00109E36C4A463100E06B83
:100FB00001F086FF636D4A463900E06B01F080FF67
:100FC000236D4A464146E06B01F07AFF002084F829
:100FD0002C00E068002811D0E06801F09DFD00259C
:100FE000E06B01F078FF461EE06801F08DFD030024
:100FF00032002900E06B01F063FF06E0E06B01F0D6
:101000006AFF411EE06B02F0D9FBA4E394F8940060
:10101000002803D0012800F0FB819CE3F6B20F2EDC
:101020001DD1206A002815D0206A401E206291A39D
:101030000222216AE06B01F043FF206A616D405C8F
:101040002E2802D1002084F87000206A616D2022D1
:10105000425404E0A06A2860012084F83800F6B207
:10106000102E04D1A06A2860012084F83800F6B25E
:101070000C2E42D1206A616D00224254206A002861
:1010800036D0606D02F0A4FBE26EC2E90001606E32
:1010900002F01EFBE76ED7E9002302F09DFB05D2AC
:1010A000606E02F015FBE26EC2E90001A06E02F074
:1010B0000FFB02000B00E76ED7E9000102F08CFB8A
:1010C00005D2A06E02F004FBE26EC2E90001606F7F
:1010D000002802D0E06E616F8847206C002804D0A1
:1010E000206C216C096889688847012084F84400D5
:1010F000A06A2860012084F83800E068002810D039
:10110000E06801F009FD0025E06B01F0E4FE471EF8
:10111000E06801F0F9FC03003A002900E06B01F0FF
:10112000CFFE206AE16D884280F0CE80F6B2012EBB
:1011300000F09180C0F0C880032E1CD00DD3052E86
:1011400035D026D3072E4ED03FD3092E67D058D3A3
:101150000B2E00F0A58070D3B6E0206A616D3122BD
:10116000425445A30222216AE06B01F0A9FE206AE5
:10117000401C2062A8E0206A616D322242543FA3E5
:101180000222216AE06B01F09BFE206A401C206273
:101190009AE0206A616D3322425439A30222216A07
:1011A000E06B01F08DFE206A401C20628CE0206A1A
:1011B000616D3422425433A30222216AE06B01F0B4
:1011C0007FFE206A401C20627EE0206A616D35222D
:1011D00042542DA30222216AE06B01F071FE206AC5
:1011E000401C206270E0206A616D3622425427A3C1
:1011F0000222216AE06B01F063FE206A401C20623B
:1012000062E0206A616D3722425421A30222216AE2
:10121000E06B01F055FE206A401C206254E0206A19
:10122000616D382242541BA30222216AE06B01F057
:1012300047FE206A401C206246E0206A616D392228
:10124000425415A30222216AE06B01F039FE206AA4
:10125000401C206238E0206A616D302242540FA3A6
:101260000222216AE06B01F02BFE206A401C206202
:101270002AE000BF20200000310000003200000002
:10128000330000003400000035000000360000008C
:101290003700000038000000390000003000000076
:1012A00094F8700000280FD1206A616D2E224254FC
:1012B00044A30222216AE06B01F002FE206A401C76
:1012C0002062012084F87000F6B2002E25D0DFF8ED
:1012D0008C24D2E90001DFF88824D2E900675FF0AE
:1012E00002085FF00009A8FB062308FB073309FB8F
:1012F000063301F033FE02000B0014F1800001F010
:1013000041FD002084F87800A07D207514F11403BD
:101310000222216AE06B01F0D3FD94F878000028E6
:101320003FD0D4E9060101F038FDC0B2002801D059
:10133000012000E00020C0B2002868D0DFF81C04C3
:10134000D0E900234FF4FA760027A6FB020106FB42
:10135000031107FB0211DFF80824D2E900674FF4FC
:101360007A785FF00009A8FB062308FB073309FB26
:10137000063301F0F3FD02000B0014F1180001F038
:1013800001FD207DA17D884201D1202000E0A07DCB
:10139000207514F114030222216AE06B01F090FD24
:1013A00035E0D4E9200101F0F8FCC0B2002801D0FA
:1013B000012000E00020C0B2002828D0DFF89C0304
:1013C00002E000BF2E000000D0E900234FF4FA76BF
:1013D0000027A6FB020106FB031107FB0211E04AEE
:1013E000D2E900674FF47A785FF00009A8FB062382
:1013F00008FB073309FB063301F0B0FD02000B00C8
:1014000014F1180001F0BEFC012084F87800A2E17C
:10141000F6B20C2E4BD00D2E00F08C800E2E00F06C
:10142000EC80102E40F04F81A06A2860D4F8B40000
:10143000002806D0D4F8B400D4F8B41009680969BB
:101440008847012084F8380094F8A800002805D0C7
:10145000E06ED4E92223C0E9002304E0E06ED0E985
:101460000023C4E9222394F858000290206E0190D2
:10147000E06D0090E06ED0E90023606D01F0B0FEF9
:10148000616DD4F8900001F0E3FC606F002802D099
:10149000E06E616F8847206C002804D0206C216CBE
:1014A000096889688847012084F844000BE1A06A34
:1014B0002860D4F8B400002806D0D4F8B400D4F8DA
:1014C000B410096809698847012084F8380094F845
:1014D000A800002805D0E06ED0E90023C4E922234B
:1014E00004E0E06ED4E92223C0E9002394F8580018
:1014F0000290206E0190E06D0090E06ED0E9002334
:10150000606D01F06DFE616DD4F8900001F0A0FCFB
:10151000606F002802D0E06E616F8847206C002861
:1015200004D0206C216C096889688847012084F800
:101530004400C8E094F8A800002837D0D4F8B400DC
:10154000002808D0E16ED4F8B400D4F8B4201268B2
:101550009268904718E0E06ED0E90023D4E92601B4
:1015600002F058F9E26EC2E90001606E02F0B0F8D4
:10157000E56ED5E9002302F02FF905D2606E02F086
:10158000A7F8E26EC2E90001606F002802D0E06EA9
:10159000616F8847206C002804D0206C216C09689A
:1015A00089688847012084F8440022E0D4F8B40018
:1015B000002809D014F18801D4F8B400D4F8B4207C
:1015C00012689268904714E0D4E92223D4E92601F6
:1015D00002F020F9C4E92201606E02F079F8D4E942
:1015E000222302F0F9F804D2606E02F071F8C4E927
:1015F0002201012084F82C0065E094F8A80000285E
:1016000039D0D4F8B400002808D0E16ED4F8B40082
:10161000D4F8B4201268D26890471AE0E26ED2E99A
:101620000001D4E9262302F069F9E26EC2E9000163
:10163000A06E02F04DF802000B00E56ED5E9000146
:1016400002F0CAF805D2A06E02F042F8E26EC2E9DA
:101650000001606F002802D0E06E616F8847206C47
:10166000002804D0206C216C096889688847012013
:1016700084F8440024E0D4F8B400002809D014F120
:101680008801D4F8B400D4F8B4201268D268904726
:1016900016E0D4E92201D4E9262302F02FF9C4E9A7
:1016A0002201A06E02F014F802000B00D4E922011E
:1016B00002F092F804D2A06E02F00AF8C4E9220106
:1016C000012084F82C0094F82C00002843D000203E
:1016D00084F82C0094F8A80000280DD094F8580045
:1016E0000290206E0190E06D0090E06ED0E9002342
:1016F000606D01F075FD0BE094F858000290206ECB
:101700000190E06D0090D4E92223606D01F068FD46
:10171000E06C01F00BFD0600606D01F007FD01219A
:101720008D198A1980180E1801270121E06B02F02B
:1017300045F8E36C01220021E06B01F0C1FB636D11
:101740003A002900E06B01F0BBFB236D3A00310049
:10175000E06B01F0B5FBBDE8F783000080270020B7
:10176000A000002010B504002000FEF70BFDDFF8FC
:101770006C04206014F14C0002F080F90020E06558
:1017800000202066002084F864000020A06600206D
:1017900084F825000020E060200010BD10B5040092
:1017A000DFF838042060E06D002802D0E06D01F021
:1017B000D8FC0020E06514F14C0002F06FF9200025
:1017C000FEF7E4FC200010BD10B504002000FEF779
:1017D0006AFDE06B00280ED0E06B02F066F9401C59
:1017E00001F0C1FCE065E06B02F05FF9421C0021F2
:1017F000E06D01F026FF10BD2DE9FF410500884690
:1018000017001E000A9CE86B02F04FF9401EB84218
:1018100001D2012000E00020C0B2002803D0002047
:1018200004B0BDE8F081E86B01F055FB401EB0420A
:1018300001D2012000E00020C0B2002801D0002029
:10184000EEE7686B002803D0696B4046FEF720FD89
:10185000E868002803D0E9684046FEF730FDE86BF1
:10186000002805D0E96B4046D8F800201268904760
:10187000A97D4046FEF719FDCDF80080019702963C
:101880008DF80C4000208DF80D0000A915F14C00DA
:1018900002F00DF90120C3E738B504000D00606BBC
:1018A000002803D0616B2800FEF7F2FCE0680028F6
:1018B00003D0E1682800FEF702FDE06B002804D0A9
:1018C000E16B28002A6812689047A17D2800FEF786
:1018D000ECFC25662100206EFEF7E9FC31BD80B5E9
:1018E0000800002803D0DFF8F01201F0B1FA002060
:1018F00002BD002070472DE9F04782B004000D00C2
:1019000094F83800002805D0002084F83800200022
:10191000FEF7DDFC0020616B002904D0606B616B79
:101920000968C968884794F82510002900F0CE801E
:10193000022902D0C0F0C480C8E0C0B20C2802D096
:1019400010280CD017E0206E002807D0002084F863
:101950002C00206E2860012084F83800AFE0A06AD7
:10196000002807D0002084F82C00A06A28600120FD
:1019700084F83800A3E0E06B01F095FAE06B01F029
:10198000AAFA451E00265FF00108002735E0002076
:10199000C0B2002801D00020A066390014F14C002C
:1019A00002F0A8F8D0F80090E06B02F07EF88246D2
:1019B000390014F14C0002F09DF85FFA88F8CDF878
:1019C0000080037B5246E16D4846D9F800C0DCF840
:1019D00004C0E047390014F14C0002F08BF8804657
:1019E000390014F14C0002F085F8E36D8268D8F8F4
:1019F0000410E06B01F064FA7F1C14F14C0002F05B
:101A00007DF8874201D2012000E00020C0B200280A
:101A100038D0390014F14C0002F06CF8407B0028FB
:101A2000EAD15FF00108390014F14C0002F062F8CD
:101A30008068A84202D394F8640000E00120C0B29C
:101A40000028D9D0A06E8742A7D3F6B2002EA4D129
:101A5000390014F14C0002F04DF800680168C968C3
:101A60008847C0B2002898D001265FF00008781C93
:101A7000A06614F14C0002F041F8A16E814286D3B9
:101A8000012085E7F6B2002E01D10020A06694F86F
:101A90006400002813D1E06800280CD0E06801F051
:101AA0003BF8E06801F030F803002A000021E06B09
:101AB00001F006FA03E02900E06B01F07FFE05E08B
:101AC000206E2860012084F83800FFE7BDE8F38726
:101AD000002180F864107047012180F8641070477D
:101AE00038B504000D0014F14C0002F007F88542EF
:101AF00001D2012000E00020C0B2002806D0290059
:101B000014F14C0001F0F6FF0121417331BD38B5ED
:101B100004000D0014F14C0001F0F0FF854201D2E9
:101B2000012000E00020C0B2002806D0290014F1F6
:101B30004C0001F0DFFF0021417331BD2DE9F04180
:101B400004000D00160000275FF0000801E018F106
:101B5000010814F14C0001F0D1FF804501D20120B1
:101B600000E00020C0B2002812D0414614F14C0021
:101B700001F0C0FF0068A84201D1012000E0002070
:101B8000C0B20028E3D00127002E01D0C6F80080A3
:101B90003800C0B2BDE8F08110B582B0040000206A
:101BA000009000AA2000FFF7C9FF002803D0009989
:101BB0002000FFF795FF13BD10B582B00400002090
:101BC000009000AA2000FFF7B9FF002803D0009979
:101BD0002000FFF79CFF13BD6C280020B0F802081E
:101BE00070B504000E0015002000FEF7CBFADFF8F8
:101BF00098062060DFF89406E064DFF89006206520
:101C00006665307884F858000020E0650020A06206
:101C100084F824500020E060200070BDC16402659B
:101C200070472DE9F04704000D0016001F00002D3D
:101C300070D00FF23838002E4ED05FF00109FFB29D
:101C4000012F0AD0606801F071FA8246404601F027
:101C50006DFA10EB0A0010EB0909606D007801289D
:101C600005D1E06C01F062FA10EB090904E0206D87
:101C700001F05CFA10EB0909484601F074FA82465B
:101C800000208AF80000FFB2012F07D0616850469B
:101C900001F039FF4146504601F035FF606D007894
:101CA000012804D1E16C504601F02DFF03E0216DC5
:101CB000504601F028FF4E4500D2B1464A465146F3
:101CC000280001F0C8FC002009F80500504601F08A
:101CD00048FA4846BDE8F08700202870FFB2022F7E
:101CE00007D06168280001F00EFFA0A1280001F0D4
:101CF0000AFF606D0078012804D1E16C280001F032
:101D000002FF03E0216D280001F0FDFE280001F034
:101D10000DFADFE70020DDE70020704770B5040012
:101D20000D0094F83800002805D0002084F8380011
:101D30002000FEF7CCFA0026606B002805D0606B0F
:101D4000616B0968C9688847060094F82500012876
:101D500000F08180022840F0078194F824000028D8
:101D600019D0E06B01F09FF8636800220021E06B5E
:101D700001F0A6F898A301220021E06B01F0A0F881
:101D8000606D007884F85800002084F82C00200052
:101D9000FEF7B6FA5EE0F6B20C2E02D0102E13D08B
:101DA00018E094F8240000280DD0012084F82C00BD
:101DB0000221E06B01F002FD2000FEF7A1FA606D48
:101DC000007884F8580045E0A06A2860012084F873
:101DD00038003FE094F82C00002803D194F8240048
:101DE00000281CD1E06B01F05EF86368002200213E
:101DF000E06B01F065F8606D0078012806D1E36CB6
:101E000001220021E06B01F05BF805E0236D012267
:101E10000021E06B01F054F8002084F82C00E06809
:101E2000002810D0E06800F077FEE06B01F053F876
:101E30000500E06800F068FE03006A1E0021E06B08
:101E400001F03EF806E0E06B01F045F8411EE06B62
:101E500001F0B4FC88E00121E06B01F0AFFC02214D
:101E6000E06B01F0ABFC5CA301220021E06B01F010
:101E700027F8606D0078012806D1E36C0122032168
:101E8000E06B01F01DF805E0236D01220321E06BFA
:101E900001F016F894F85800012806D1E36C0222EC
:101EA0000321E06B01F00CF805E0236D0222032111
:101EB000E06B01F005F8F6B2102E04D1A06A28609C
:101EC000012084F83800F6B20C2E16D1606D94F81B
:101ED00058100170E06D002802D0606DE16D8847F8
:101EE000206C002804D0206C216C09688968884720
:101EF000A06A2860012084F83800F6B20D2E0AD1BD
:101F000094F85800012803D1002084F8580002E01A
:101F1000012084F85800F6B20E2E0AD194F8580029
:101F2000012803D1002084F8580002E0012084F841
:101F30005800E068002810D0E06800F0EDFDE06B8C
:101F400000F0C9FF0500E06800F0DEFD03006A1E36
:101F50000021E06B00F0B4FF06E0E06B00F0BBFF97
:101F6000411EE06B01F02AFC70BD0000203A200009
:101F700010B504002000FEF705F9DFF8600A2060C4
:101F80000020E064200010BD10B504002000FEF722
:101F9000FDF8200010BD012280F84420C164704784
:101FA00070B504000D00002D0FD0E06C00280CD09F
:101FB000E06B01F07AFD06003200E16C280001F0D0
:101FC0004AFB00207055300000E0002070BD00206A
:101FD0007047806A086070475E7E0000F8B50400B4
:101FE0000D0016001F002000FEF7CCF8DFF8F00906
:101FF00020600020E0640020206500206065002053
:10200000A0650020E065002084F860000020606684
:102010000020A066002084F86C00002020670020CB
:102020006067002084F87800012084F8790000209F
:10203000E06714F1800001F075FD00200021C4E983
:102040002401C4F89850C4F89C60C4F8A070002023
:102050000021C4E92A0100200021C4E92C0100204C
:102060000021C4E92E0100200021C4E93001002034
:102070000021C4E93201002084F8D0000020C4F817
:10208000D400002084F8D800002084F8D900002073
:1020900084F8DA00002084F8DB00002084F8DC00FB
:1020A000002084F8DD00002084F8DE00002084F8A1
:1020B000DF00002084F8E000002084F8E100002028
:1020C00084F8E2002000F2BD10B50400DFF810092A
:1020D000206014F1800001F035FD2000FEF756F875
:1020E000200010BD2DE9F04184B0040088461500A1
:1020F0001E000A9F0020F6B2012E0BD04146E06C74
:1021000000F0A6FE5EA1E06C01F0FDFC404601F08F
:102110000DF8401C02210291616D0191216D009129
:10212000D7E90023E16C401801F05AF8F6B2022E0C
:1021300007D053A1E06C01F0E6FC2900E06C01F04F
:10214000E2FCBDE8FF8170B584B00400DFF894586C
:102150002B0000220021E06B00F0B2FE280000F00E
:10216000E5FF451C02200290002001900320009012
:10217000E06F401C01F0FCFC02000B00E06C01F081
:102180002FF8E36C00222900E06B00F099FE3DA6D9
:10219000E06C00F0CBFF4019451C33000022290001
:1021A000E06B00F08DFE300000F0C0FF4019451CD0
:1021B00014F1800001F0EAFC02210291002101915A
:1021C0000321009101F0D4FC02000B00E06C01F04F
:1021D00007F8E36C00222900E06B00F071FEE16F6C
:1021E00014F1800001F0D9FC009094F86030E26DA9
:1021F000A16D2000FFF776FFE36C01220021E06B68
:1022000000F05EFEE06B01F050FC4508E16F14F158
:10221000800001F0C2FC0830009094F86C30A26E8F
:10222000616E2000FFF75EFFE36C01222900E06B86
:1022300000F046FE7FBD10B50400E06B01F035FCF8
:102240004108022094F8DC20002A06D1DFF89837F4
:102250000222E06B00F034FE10E094F8DE0000286B
:1022600006D0DFF888370222E06B00F029FE05E097
:10227000DFF87C370222E06B00F022FE10BD000088
:1022800020000000E8E7000018F402086C28002095
:1022900010B50400E16422656365226D2021E06CC5
:1022A00001F0CFF9206DE16C0022425410BD816530
:1022B000C26580F8603070474166826680F86C3095
:1022C00070470167426780F878307047C0E924237F
:1022D000704730B4DDE90245C0E92E23C0E930453E
:1022E00030BC70472DE9F04D86B0804692469B4643
:1022F000DDE90E45DDE9106718F1800001F046FCCC
:10230000642801D2012000E00020C0B200280AD0D9
:10231000CDE900ABCDE90245CDE9046700A918F18C
:10232000800001F03FFC06B0BDE8F08D38B5040038
:102330001500D4F8D4000860D4F8D41014F180004B
:1023400001F02BFCD0E90423C5E9002394F8D00068
:10235000002184F8D010C0B232BD80F8DE10704782
:1023600080F8E110704780F8E21070470020704755
:102370000020704770B582B005000C0095F8380059
:10238000002805D0002085F838002800FDF79FFFC1
:1023900095F8E00000280BD1D5F89800D0E900238B
:1023A000C5E92A23D5F89C00D0E90023C5E92C23F0
:1023B000012085F8E0000026686B002805D0686BD6
:1023C000696B0968C96888470600F6B2002E4FD0CD
:1023D00095F8DC00002827D195F8E100F6B2864296
:1023E00022D1012085F8D900012085F8D8000120EC
:1023F00085F8DC00E96F15F1800001F0CEFBD0E933
:102400000023D5F89800C0E90023E96F15F180009A
:1024100001F0C3FBD0E90223D5F89C00C0E90023FA
:10242000012085F82C0023E095F8DC0000281FD05F
:1024300095F8E200F6B286421AD1012085F8DA005A
:10244000002085F8DC00D5F89800D5E92A23C0E9FA
:102450000023D5F89C00D5E92C23C0E900230120F6
:1024600085F82C00002085F8DE00002085F8DF00CC
:1024700095F8DE0095F8DF10884206D095F8DE006A
:1024800085F8DF00012085F82C0095F8250001284B
:1024900000F00681022840F0CA8195F82C0000283F
:1024A0003AD0E86B00F0FFFC15F1800001F06EFB04
:1024B000002801D0012000E00020C0B2002821D077
:1024C0002800FFF740FE2800FFF7B5FEDFF82435AF
:1024D00002220021E86B00F0F3FCE96F15F18000A7
:1024E00001F05BFB1030009095F878306A6F296F2F
:1024F0002800FFF7F7FDEB6C03220021E86B00F0EA
:10250000DFFC06E0DFF8F03400220021E86B00F089
:10251000D7FC002085F82C00F6B20C2E07D00D2E2B
:1025200055D00E2E00F08D80102E22D0B7E0012065
:1025300085F82C0015F1800001F028FB002801D05F
:10254000012000E00020C0B200280CD0012085F856
:102550002500E96F15F1800001F01FFBD0E904238D
:10256000C5E9322304E0A86A2060012085F838001C
:1025700095E0A86A002829D0012085F82C00A86AD7
:102580002060012085F83800D5F89800D5E92A2385
:10259000C0E90023D5F89C00D5E92C23C0E900232D
:1025A000012085F8D80095F8DC00002802D0012031
:1025B00085F8DA00002085F8DC00002085F8DE00D0
:1025C000002085F8DF00002085F8E00067E015F1C5
:1025D000800001F0DBFA022801D3012000E0002096
:1025E000C0B200282CD015F1800001F0CFFA401EB7
:1025F000E96F814201D2012000E00020C0B2002832
:102600001ED0E86F401CE867E96F15F1800001F00B
:10261000C4FAD0E90023D5F89800C0E90023E96F97
:1026200015F1800001F0B9FAD0E90223D5F89C0039
:10263000C0E90023012085F82C00012085F8D8008E
:102640002DE015F1800001F0A1FA022801D301204C
:1026500000E00020C0B2002821D0E86F00281ED082
:10266000E86F401EE867E96F15F1800001F095FA08
:10267000D0E90023D5F89800C0E90023E96F15F1EF
:10268000800001F08AFAD0E90223D5F89C00C0E965
:102690000023012085F82C00012085F8D800C6E031
:1026A00095F82C00002822D0E86B00F0FCFB2800F5
:1026B000FFF749FD2800FFF7BEFDD04B02220021A5
:1026C000E86B00F0FDFBE96F15F1800001F065FAA1
:1026D0001030009095F878306A6F296F2800FFF766
:1026E00001FDEB6C03220021E86B00F0E9FBF6B280
:1026F0000C2E06D00D2E33D00E2E63D0102E1FD0F0
:1027000095E0012085F82C00022085F82500E96F6E
:1027100015F1800001F041FAD0E90423D5E9320136
:1027200000F0A0FF01D0012000E00020C0B200288E
:1027300005D0012085F8DB00E86FC5F8D40076E00D
:10274000012085F82C00022085F82500E96F15F19D
:10275000800001F022FAD5E93223C0E9042366E0C3
:10276000012085F82C00E96F15F1800001F015FAC1
:10277000D0E90423D5E9240101F04CF8D5E9302350
:1027800001F02AF801D2012000E00020C0B20028A8
:102790000ED0E96F15F1800001F0FFF90400D4E9D3
:1027A0000423D5E9240101F035F8C4E9040108E067
:1027B000E96F15F1800001F0F0F9D5E93023C0E9A7
:1027C000042334E0012085F82C00E96F15F1800026
:1027D00001F0E3F9D0E9042310001900D5E924231E
:1027E00001F08CF802000B00D5E92E0100F0F4FF97
:1027F00001D2012000E00020C0B200280ED0E96F15
:1028000015F1800001F0C9F90400D4E90401D5E90B
:10281000242301F073F8C4E9040108E0E96F15F11D
:10282000800001F0BAF9D5E92E23C0E9042373BD75
:1028300038B50400012084F82C00C9B2002902D068
:10284000012910D01FE0E16F14F1800001F0A5F91B
:102850000500E16F14F1800001F09FF9D0E9002339
:10286000C5E9042329E0E16F14F1800001F095F936
:102870000500E16F14F1800001F08FF9D0E9022327
:10288000C5E9042319E0E16F14F1800001F085F936
:102890000500E16F14F1800001F07FF9D0E9022317
:1028A000C5E9042301F005FA5549009141F2E523F9
:1028B000544A00210568AD68A847012084F8DB0070
:1028C000E06FC4F8D40031BD90F8D810002280F831
:1028D000D8200800C0B2704790F8D910002280F8C4
:1028E000D9200800C0B2704790F8DA10002280F8B2
:1028F000DA200800C0B2704790F8DB10002280F8A0
:10290000DB200800C0B2704790F8DC10002917D017
:10291000002180F8DC10D0F89810D0E92A23C1E912
:102920000023D0F89C10D0E92C23C1E90023012119
:1029300080F82C10002180F8DE10002180F8DF10D4
:10294000704780B5803001F0A5FB01BD2DE9F8434B
:1029500004000898099F0A9E0B9D2160A360E26015
:1029600020616761E0682169401A6169401AC0B25C
:10297000A06100200021C4E90A0100206063E26830
:102980002021206800F05DFE00F01EFAF6B200275C
:102990001D48D0E90023A2FB060102FB071103FB3F
:1029A0000611EDB20026194AD2E90089A8FB0523D9
:1029B00008FB063309FB053300F0D0FAC4E90A012D
:1029C000D4E90A2314F1200000F0DCF9A068401CCF
:1029D00000F0C9FB60602000BDE8F283CCF802087B
:1029E000E8F80208541703085C1703086417030883
:1029F00024130308301303083C1303086C1703085F
:102A0000C0CA0208A8DB020880270020A00000201E
:102A100010B504006068002802D0606800F0A1FBD7
:102A20000020606000F0D4F9200010BD70B50400F3
:102A30000D00002D1FD000206063002603E02068F9
:102A400020213154761C2069864208D2280000F0EB
:102A50006DFB8642F3D22068715D3154F2E7A068C5
:102A6000002808D0A2682021606800F0EAFDA06874
:102A700061680022425470BD70B504000D00002D45
:102A800023D000206063002605E0206980192168BA
:102A900020224254761C606986420AD2280000F047
:102AA00045FB8642F1D2206980192168725D42544B
:102AB000F0E7A068002808D0A2682021606800F034
:102AC000C0FDA06861680022425470BD10B50400CA
:102AD00000206063002007E021690918626951182D
:102AE000226820238B54401CA1698842F4D3A0683B
:102AF000002808D0A2682021606800F0A2FDA0682C
:102B000061680022425410BD406870470169426903
:102B1000511800680818704738B504000025D4E93A
:102B2000080100F03AF9C0B2002801D0012000E00D
:102B30000020C0B2002841D0A068002839D0E06849
:102B4000002836D0D4E90A2314F1200000F01AF945
:102B5000E068616B884204D200206063012084F841
:102B60003000012006E0616841186268825C01F86B
:102B7000012C401CA1688842F5D3606BE168884253
:102B80000DD2606B2168405C002808D0A0686168A5
:102B90004018616B2268895C00F8011C05E0A068A0
:102BA00061684018202100F8011C606B401C6063C4
:102BB00002E0606800210170012500E00025280086
:102BC000C0B232BD0160704780B5DFF80C020078FA
:102BD000002808D10021DFF80402FFF7F3FFDFF837
:102BE000F80101210170DFF8F8010078002808D110
:102BF0000021DFF8F001FFF7E5FFDFF8E401012134
:102C00000170DFF8E4010078002808D10021DFF826
:102C1000DC01FFF7D7FFDFF8D0010121017001BD12
:102C20002DE9F84304000E00150000200021C4E93E
:102C3000000100200021C4E902010020207400F0FE
:102C400092F83268D317DFF8A801D0E90067A6FB35
:102C5000020106FB031107FB02112E68F717DFF8CC
:102C60009421D2E90089A8FB062308FB073309FB5E
:102C7000063300F073F9C4E902012000BDE8F283D5
:102C800010B5040000220023C4E90023D1E9002389
:102C9000C4E902230020207400F065F8200010BD74
:102CA00080B5D1E90023C0E9022300F001F801BD9D
:102CB00080B501210174D0E9022300F063F801BD61
:102CC00000210174704738B504000025207C0028DD
:102CD0000FD0D4E9000100F060F8C0B2002801D0A4
:102CE000012000E00020C0B2002802D000202074A3
:102CF00001252800C0B232BD10B504000022002317
:102D0000C4E90023D1E90023C4E9022300F02BF831
:102D1000D4E90223200000F035F8200010BDD1E9ED
:102D20000023C0E90223704780B5D0E9022300F0F8
:102D300029F801BD38B504000025D4E9000100F0F0
:102D40002CF8C0B2002801D0012000E00020C0B261
:102D5000002805D0D4E90223200000F013F8012553
:102D60002800C0B232BD80B5DFF88C0000780028A2
:102D700007D1DFF8880001F0DCF9DFF87C000121E1
:102D8000017001BD70B5060014001D0001F040FA8D
:102D900000196941C6E9000170BD70B504000D005D
:102DA000002601F035FA001BA941002904DB01DCF3
:102DB000012801D3012000E00020C0B2002800D08B
:102DC00001263000C0B270BD80B501F0E3F901BD4D
:102DD00080B501F04AFA01BD76280020DC270020EA
:102DE00077280020E427002078280020E027002012
:102DF00080270020A000002079280020E82700205C
:102E000010B582B0040000A801F06CFA01002000A7
:102E100001F069FA0021200001F069FA200016BDD6
:102E200010B50400200001F08BFA200010BD80B521
:102E30000169826812EB6101027CD20701D4C26889
:102E400003E0C0680A68801802680800904701BD66
:102E50005FEA000C830706D011F8013B00F8013B44
:102E6000B3B18307F8D10A68B2F1013323EA020350
:102E700013F0803F02BF40F8042B51F8042FF3E712
:102E800011F8013B00F8013B13B111F8013BF9E7E0
:102E90006046704781684068081AC01070474068F3
:102EA00010EBC100704738B50400002504E029008C
:102EB000200000F083FC6D1C20698542F7D331BDF2
:102EC00010B504002068002804D020682468246815
:102ED0002469A04710BD0069704770B504000D005B
:102EE0002000FFF7D7FF0600200001F042FA8642DB
:102EF00001D2012000E00020C0B2002807D02B0042
:102F00000122A168200001F03EFAA06007E0200045
:102F100001F045FA2A000100200001F047FA70BDD7
:102F200070B504000D00002D01D1012600E000263F
:102F3000F6B2002E01D0002008E0082000F0F8FBD7
:102F40002A00012101F056FA02000020F6B2002EFC
:102F500001D00022FFE72260200070BD13F0004C7A
:102F600003D55B42524263F100039CEA210C00F05E
:102F7000178010B5644603D34942404261F1000115
:102F800000F00EF8640004D34942404261F10001B0
:102F9000244203D55B42524263F1000310BD00009E
:102FA0001B4213D1094236D12AB18446B0FBF2F05C
:102FB00002FB10C2704701F023BAFCD300220023A9
:102FC00070470B000200002100207047904271EB17
:102FD000030CF6D370B5B1FA81F4B3FA83F52C1B68
:102FE000A340C4F1200532FA05F63343A2405FF056
:102FF0000046E64002E05B085FEA3202841A71EBA9
:10300000030524BF204629467641F4D302000B0075
:103010003000002170BD012ACFD970B5140C20D02A
:10302000B1FA81F4B2FA82F5C4F120046419B4F162
:103030002006D6D3B2405FF00044F440002502E001
:1030400052085FEA3303C61A71EB020E24BF304602
:10305000714664416D41F3D302000B00200029004A
:1030600070BD0C46B1FBF2F102FB11452D0445EA9F
:103070001045B5FBF2F402FB145580B240EA054559
:10308000B5FBF2F002FB105240EA044070BD50F86C
:10309000041B61B150F8042BD30744BFA9F101030D
:1030A0009A18002342F8043B091FFAD1EFE7704752
:1030B00038B504002068002830D020680068401E21
:1030C000216808602068006800280FD500F0F1FD35
:1030D00005001349134800F0FDFD009040F2FA533B
:1030E000114A012128002D68AD68A84720680068B2
:1030F000002813D120684068002806D02068406866
:10310000216849680968496888472068001D0021CE
:103110000160206801F075F900202060200032BDB8
:103120003E1A0108ACFF020850D2020800F1010368
:10313000810704D010F8011B89B18107FAD1026818
:10314000B2F10131914311F0803F04BF50F8042FD8
:10315000F6E710F8011B11B110F8011BFBE7C01ACC
:10316000704701F04EB980B500F0E2FA02BD80B5BB
:10317000020011725068002805D0C9B25068526828
:1031800012689268904701BD80B5DFF8540200785C
:10319000002808D10021DFF84C02FFF713FDDFF80B
:1031A000400201210170DFF840020078002808D1B8
:1031B0000021DFF83802FFF705FDDFF82C020121BE
:1031C0000170DFF82C020078002808D10021DFF818
:1031D0002402FFF7F7FCDFF818020121017001BD9E
:1031E0002DE9F043A5B0060014001D002C9FDDF86A
:1031F000B490DDF8B88002237A1C310004A801F0F5
:1032000005F95FFA88F8B8F1010F05D00DD3B8F1D0
:10321000030F07D001D308E007E0774904A801F0C5
:1032200086FA02E0754901F082FA390002A801F03D
:1032300090FA02A904A801F095FA8046494600A830
:1032400001F082FA00A9404601F08CFA22002B001E
:1032500001F098FA002104A801F0F3FA0020B85513
:1032600004A801F0EDF825B0BDE8F0832DE9FF4199
:1032700004000D0016001F00DDF82880200001F07A
:10328000C2FB5F4820606660A760C4F80C80002025
:10329000207400206074207C617C4843A07400206E
:1032A000E0740120207520208DF8040001AAA17C83
:1032B00014F1180001F0ABFB002084F82800002076
:1032C00084F82900002084F82A006420009000A8D7
:1032D00001F0B0FBCDE9020102A914F13000FFF7C3
:1032E000CFFC002084F84800002084F84900EDB2AB
:1032F000012D07D10420207414206074207C617C8F
:103300004843A0742022A17C14F1180001F0B4FB02
:103310000021606862681268D2689047A068A1685E
:10332000096809698847E068E168096809698847A8
:1033300014F13000FFF7BCFC200004B0BDE8F081C0
:1033400010B504002E482060002160686268126891
:10335000D2689047A068A168096809698847E06851
:10336000E16809680969884714F1180001F0BDFB9C
:10337000200001F0C1FB200010BD007C7047407CA4
:1033800070472DE9F04104001D00607C00FB02F055
:103390000E18A07C871B2800FFF7C8FEC0B2FFB242
:1033A000B84200D207005FF0000811E0F6B25FFA01
:1033B00088F818EB060114F1180001F0A1FB5FFA80
:1033C00088F818F805100F4A895C017018F1010897
:1033D0005FFA88F8FFB2B845E8D3BDE8F081000095
:1033E00076280020DC27002077280020E427002012
:1033F00078280020E02700209301030867010308D4
:1034000038F40208E0B2020810B58AB00400E07C8B
:1034100000280BD002285AD012D304286AD041D3F6
:10342000062800F0A780C0F0958008E114F1300074
:10343000FFF749FCC0B2002801D00120E074FEE093
:103440000120207594F82A00002805D002280BD00E
:1034500006D303280CD00FE03A2084F849000DE091
:103460000C2084F8490009E0012084F8490005E0B7
:10347000062084F8490001E00620207594F82A000F
:10348000401C84F82A000320E0740120089008A85A
:1034900001F03CFBCDE9060106A914F13000FFF76D
:1034A000FFFBCCE014F13000FFF70DFCC0B20028A8
:1034B0000CD014F13000FFF7FBFB94F84910606862
:1034C00062681268D26890470220E074B7E014F195
:1034D0003000FFF7F8FBC0B200280AD014F130002A
:1034E000FFF7E6FBE068E1680968C96888470420DF
:1034F000E074A4E014F13000FFF7E5FBC0B200284F
:1035000027D094F8490001280CD10A20019001A885
:1035100001F090FACDE9040104A914F13000FFF79D
:10352000BFFB0BE00120009000A801F0EFFACDE90D
:10353000020102A914F13000FFF7B2FB14F13000D0
:10354000FFF7B6FBE068E16809680969884705206C
:10355000E07474E014F13000FFF7B5FBC0B200284E
:1035600007D00021606862681268D2689047207DA9
:10357000E07464E014F13000FFF79AFBA07C401E79
:1035800094F82810884202DA002084F8280094F881
:10359000480000282FD1012084F8480094F8280022
:1035A000002806D0142808D028280AD03C280CD09F
:1035B0000FE0802084F849002EE0C02084F8490004
:1035C0002AE0942084F8490026E0D42084F84900B9
:1035D00022E0002084F8480094F8281014F1180024
:1035E00001F08EFA007884F8490094F82800401C15
:1035F00084F8280010E0002084F8480094F828108F
:1036000014F1180001F07CFA007884F8490094F86D
:103610002800401C84F8280094F84800002805D0B1
:10362000A068A16809680969884704E0A068A168E2
:103630000968C96888470320E074062020750AB02D
:1036400010BD10B5040010000A000100200001F0B8
:1036500081FA200010BD10B50400200001F0B0FA7E
:10366000200010BD90420CD141EA030C50EA4C0CF2
:1036700007D0994205D14FF4001C1CEB410F38BF15
:10368000894270470068002801D1012000E0002035
:10369000C0B2704710B582B004002068002803D083
:1036A00020684068884209D000A8FFF739FC010073
:1036B000200001F0C0FA00A8FFF7FAFC13BD10B516
:1036C00082B000230093002304686468A04716BDFD
:1036D0005FF0FF0C1CEAD05114BF614506E0C11039
:1036E000400721F0E04101F16051704779B900F0E5
:1036F000004100020AD0B0FA80FC00FA0CF001F19F
:103700006051A1EB0C5101EBD02140057047410203
:103710000CBF40F4E0016FF000010020704710B5CD
:1037200082B000230093002304686468A04716BD9C
:1037300010B50446204601F083FA40B904480068F9
:10374000010002D101F0DAFAF4E78047F2E710BD98
:10375000FC2700202DE9FC478246DDE90A89DDE9E6
:103760000C45DDE90E67504601F0D2FA0E48CAF862
:103770000000CAE90245CAE90467DDE90001CAE9B7
:103780000601CAE90889CAE90A4500208AF830001A
:1037900002208AF8310000208AF8320000208AF8DE
:1037A00033005046BDE8F687C8E6020801680029E4
:1037B00002D00068406800E00020704780B5826950
:1037C000002A04D083690A000021FFF779FB01BDBC
:1037D0000022002101F046BB4FF4001C1CEB410FFE
:1037E00094BF1CEB430F09E041EA030C50EA4C0C78
:1037F00052EA0C0C03D2994208BF9042704714BFA2
:103800008B428242704780B55FF0FF3102681269D7
:10381000904702BD70B44FF0004591EA030C44BFDD
:103820006B4000F075B800BF841A71EB030603D239
:10383000001BB141121973414FF4001C1CEB410FE6
:1038400034BF7CEB430443E00C0DA4EB1356352E40
:1038500050DC45EAC323DB0A45EAC121C912B6F1AF
:1038600020050DDD63FA05F6EB4086EA03051242FA
:1038700018BF45F00105C01851F100010CD213E04A
:1038800062FA06F5F2405540F3415A40B340F34026
:103890005A408018594107D349085FEA30005FEA6F
:1038A000350528BF45F0010501F58011420875F185
:1038B000004250F1000041EB045170BC4FF4001C79
:1038C0001CEB410F38BF70470020090D09057047F8
:1038D0001CEB410F10D252EA43060BD0BCEB410F58
:1038E00005D80C0DAB43661E342EB5DD02E0AB43AC
:1038F0008018594170BC704770BC704770B44FF06D
:10390000004591EA030F44BF6B40FFF78DBF00BF36
:10391000841A71EB030604D26E40001BB1411219E8
:1039200073414FF4001C1CEB410F34BF7CEB43068A
:1039300084E00C0DA4EB1356362E7DDC012E43DC07
:1039400045EAC32343EA525312BFD20292025B08F4
:10395000240545EAC12141EA5051D2EBC0209941EA
:1039600025D407D1B0FA80F610FA06F164D0002011
:10397000203608E0B1FA81F6B140C6F1200220FA03
:1039800002F21143B0404FEAF474B4EB465434F001
:1039900001064FEA74040AD8D6F50016760D04F035
:1039A0000044F04061FA06F25040F1404840C00A3D
:1039B00040EA415021F0004128BF5FEA500550F134
:1039C000000044EBD12137E045EAC323DB0A45EA96
:1039D000C121C90AB6F120050EDD42EA0242120CED
:1039E000C5F1200603FA06F6EB4042EA06056D42F1
:1039F000984161F100010DE062FA06F5F240554090
:103A000063FA06FC82EA0C02F3405A406D42904190
:103A100061EB030111F4801F05D1641E620502D021
:103A20006D004041494121F48011430875F1004384
:103A300050F1000041EB045170BC70471CEB410F8A
:103A400015D223F0004352EA43060BD04FEA4C0C48
:103A5000BCEB410F04D80C0D661E342EB7DDEBE72E
:103A6000801A994150EA410608BF0021E4E708BFE7
:103A70001CEB430F28BF6FF00001DDE710B582B0EB
:103A8000040000A801F0F0F90100200001F0EDF9B8
:103A90000021200001F0EDF9200016BD10B5040052
:103AA000200001F00FFA200010BDC068704770B50B
:103AB00004000D00200000F021F80600200001F0B5
:103AC0001AFA864201D2012000E00020C0B200288C
:103AD00007D02B000122A168200001F016FAA06097
:103AE00007E0200001F01DFA2A000100200001F08B
:103AF0001FFA70BD406810EB011070478168406884
:103B0000081A00117047024613781BB112F8013FE2
:103B1000002BFBD111F8013B137012F8013B002B75
:103B2000F8D1704710B582B0040000A801F024FA63
:103B30000100200001F021FA0021200001F021FA0B
:103B4000200016BD10B50400200001F044FA20004A
:103B500010BD0268531C036011707047010040F1F2
:103B60000980F446404200F005F851F000416047FA
:103B7000010000BF09D0B0FA80F18840C91CC1F52E
:103B80008461090501EBD0214005704781684068D8
:103B9000081A182190FBF1F070471822406802FBC8
:103BA0000100704770B504000D002000FFF7EEFF24
:103BB0000600200001F02AFA864201D2012000E02E
:103BC0000020C0B2002807D02B000122A1682000ED
:103BD00001F028FAA06007E0200001F030FA2A0086
:103BE0000100200001F032FA70BDC0E902237047E5
:103BF00080B5DFF80C040078002808D10021DFF838
:103C00000404FEF7DFFFDFF8F80301210170DFF89D
:103C1000F8030078002808D10021DFF8F003FEF750
:103C2000D1FFDFF8E40301210170DFF8E40300783D
:103C3000002808D10021DFF8DC03FEF7C3FFDFF81E
:103C4000D0030121017001BD10B50400200001F076
:103C500021FADFF8C40320600020A0800020A060CB
:103C60000020E0600020206100206061200010BD85
:103C700010B504000298A180A260E3602061606931
:103C8000002804D06069616909688968884710BDA7
:103C90008088704780687047C068704700697047C7
:103CA00080B50A0010F114011000126852699047A3
:103CB00001BD80B5DFF864030078002807D1DFF884
:103CC0006003FFF7C1FFDFF8540301210170DFF843
:103CD000500302BDDFF84C231060DFF84803416059
:103CE000DFF84003704710B5040021601100201D6B
:103CF00001F0D4F9DFF83003D0E90023210014F1FA
:103D0000140001F0DFF9DFF82403D0E900232100DB
:103D100014F1280001F0D6F9DFF81403D0E90023EC
:103D2000210014F13C0001F0CDF9DFF80803D0E9DF
:103D30000023210014F1500001F0C4F9DFF8F8026B
:103D4000D0E90023210014F1640001F0BBF9002048
:103D5000A0670021201D01F0C9F904F228010160CB
:103D60000121201D01F0C2F904F23C010160022191
:103D7000201D01F0BBF904F2500101600321201D58
:103D800001F0B4F904F264010160200010BD70B5C7
:103D900005000C001600DFF8A412200001F0AAF9BB
:103DA000DFF89C1201F0A9F9DFF8901201F0A2F9F6
:103DB000DFF89012200001F0A0F92868296809684E
:103DC000C9688847010089B2200001F08AFADFF84B
:103DD0006C1201F08FF9DFF87012200001F08DF9FC
:103DE000310001F08AF9DFF8541201F083F92868F4
:103DF0002968096809698847002811D0DFF84C1242
:103E0000200001F07AF9286829680968096988475B
:103E10000100200001F071F9DFF8201201F06AF9C9
:103E2000DFF82C12200001F068F928682968096879
:103E3000496988470100200001F053FA7F4901F0E9
:103E400059F970BD70B504000D00206800282CD011
:103E5000206821680968C96888470600310089B26E
:103E6000200000F0A7F800281FD0A567A06F002849
:103E700009D0B6B23100201D01F038F900680168A0
:103E80008968884711E000F0A2F8724901F035F91D
:103E900000F09DF8704901F030F900F098F86F4992
:103EA00001F02BF9654901F025F970BD38B5040022
:103EB0006B4AA16F2000FFF76AFF2068216809683C
:103EC0008969884705006749A06F01F016F9290044
:103ED00001F013F9594901F00DF931BD38B504006D
:103EE000614AA16F2000FFF752FF2068216809682E
:103EF000896988470500002D1BD0286800280AD052
:103F00005A49A06F01F0F9F8296801F0F6F84B4919
:103F1000A06F01F0EFF8686800280AD05149A06F3F
:103F200001F0EBF8696801F0E8F84449A06F01F08E
:103F3000E1F831BD38B504004D4AA16F2000FFF70C
:103F400026FF206821680968896988470500002DD7
:103F50000AD04449A06F01F0D0F8290001F0CDF853
:103F60003649A06F01F0C6F831BD38B50400414AAA
:103F7000A16F2000FFF70BFF20682168096889699D
:103F8000884705003C49A06F01F0B7F8296801F0A7
:103F9000A8F92A4901F0AEF83849A06F01F0ADF850
:103FA000264901F0A7F831BD80B5354A816FFFF78A
:103FB000EEFE01BD10B50C00001D01F003FAA4B225
:103FC000844201D2012000E00020C0B210BD80B5C3
:103FD0002C480078002805D12B4801F0F9F9294830
:103FE0000121017029480078002807D100222649C4
:103FF000274801F0F9F9254801210170244802BD44
:1040000076280020DC27002077280020E4270020E5
:1040100078280020E027002084E902086728002093
:1040200018270020882700201C17030824170308DE
:104030002C170308341703083C170308E1E50208AE
:10404000DC120308D80F0308E80F0308141703084D
:10405000F80F0308A4E902087CFF0208E81203082D
:1040600018100308F4120308441703080013030888
:104070000C1303082810030808100308B0F3020803
:104080004C17030868280020142600206928002007
:10409000BC260020F8B504000D00200001F0B8F99E
:1040A000A84201D2012000E00020C0B2002803D0C5
:1040B000200001F0B1F93BE0200000F0A7FFA8428A
:1040C00001D2012000E00020C0B2002830D0290039
:1040D000200001F0B7F90600200001F0B9F907004F
:1040E000200000F0ACFF330002003900200001F096
:1040F000B6F92000FFF74AFD0700606800280ED0DF
:10410000A2686168200001F0B3F9E0686168401AB4
:10411000182190FBF1F26168200001F0B1F918203C
:1041200000FB0560E060182000FB0760A06066608F
:10413000F1BD10B50400FEF747FE200010BDC0E938
:104140000423704780B501F0A5F9564AC2E9000181
:1041500055480078002806D100215448FEF732FD6A
:1041600051480121017052480078002806D10021F1
:104170005048FEF727FD4E48012101704E48007857
:10418000002806D100214D48FEF71CFD4A480121B8
:10419000017001BD80B54A480068401C484908606C
:1041A00047480068012832D101F074F93D4AC2E95C
:1041B0000001444801220023C0E9002342487FF067
:1041C0007F4101604148006850F004003F490860A9
:1041D0003E48006850F002003C4908603B480068D7
:1041E00050F001003949086039480078002805D1AD
:1041F000384801F0A3F936480121017001F0AAF90D
:104200000921026812689047324901F01CFB01BD88
:1042100030B43148002101703048026800232B4837
:104220000068C0F30040C00710D52C480268002386
:104230002B48D0E90045244800680002000A401CD1
:10424000C11720186941264CC4E900012448D0E96F
:1042500000457FF07F40002120186941801A994174
:104260001D4A0123137030BC704715480068401E7A
:104270001349086012480068002811D113480068EB
:1042800030F00400114908601048006830F0020066
:104290000E4908600D480068400840000B4908605E
:1042A000704700008027002076280020DC270020AF
:1042B00077280020E427002078280020E02700202D
:1042C000AC270020A000002014E000E010E000E097
:1042D0006528002054270020D000002018E000E0CE
:1042E00078270020704780B501F0B5FA02BD38B5D7
:1042F00004000D00002060600020A0600020E0604D
:10430000002D01D1002032BD200001F0ABFAA842FF
:1043100001D2012000E00020C0B2002803D020001C
:1043200001F0A4FA0AE02900200001F0B5FA60606B
:104330006068A060606810EBC500E0600120E2E703
:1043400010B50400606800280CD0A26861682000E5
:1043500001F0A8FAE0686168401AC21061682000A4
:1043600001F0A8FA002060600020A0600020E0605A
:1043700010BD4168002901D1002003E0C1684068F8
:10438000081AC010704738B50C0015001A00030059
:104390002900200001F093FA14EBC50032BD80B56E
:1043A000816800A801F0A4FA006802BD72B583B06C
:1043B000040015002000FEF76DFD002801D1002645
:1043C00008E0200001F09BFA019001A903A801F088
:1043D0009DFA06002B0001220399200001F09BFAB0
:1043E000200001F08CFA0090310000A801F05BFB86
:1043F00004B070BD016042607047C0E90623704799
:104400007047002818BF01F057BB704738B5044605
:10441000DFF84402206004F25800DFF840520560E3
:10442000DFF83C520560009313460A46DFF8341269
:10443000204600F012F832BD016851F80C1C081833
:1044400038B50446DFF81C1200F04DF8054604F1BB
:10445000580001F075FB284632BD2DE9F8430546AA
:104460000E4691469846089C301D0168296051F817
:104470000C1C406848512F1D00223946286850F80E
:104480000C0C401901F0BAFC3068286050F80C0C94
:10449000F1684151B9F1000F01D0200701D44C4619
:1044A00004E04846FEF742FE00EB0904DFF8B801DD
:1044B0003860381D01F0C1FC0420FFF739F901F024
:1044C00018FDB863384601F038FEDFF8A001386007
:1044D0000020009023464A464146384600F0C8F87E
:1044E0002846BDE8F28310B504460868206050F8FD
:1044F0000C0CC9680151201D00F002F8204610BDC7
:1045000010B50446DFF864012060204600F0F7F89B
:10451000204601F033FE204610BD2DE9F04104464F
:10452000884618F1010F02D10020BDE8F081606AD1
:10453000016851B1626B1268914206D24A1C026056
:1045400081F800800878BDE8F08194F8480000F018
:104550000E00042828D1206A006808B9002704E06A
:10456000606B006821690968471A07EBD770401033
:10457000E16B8842B8BF08462021E1636FF000413B
:1045800002E000EBD070401001280DDB0A1ABA429D
:10459000F7DBC619E16C0800304601D0884701E01E
:1045A000FEF7E1FD05461DB94FF0FF30BDE8F08193
:1045B000012F05DB3A4620690168284600F000FB20
:1045C00094F84800C00708D52069216D0A000068EA
:1045D00001D0884701E0FEF7C4FDA06C40F0010067
:1045E000A06420696FB9656461690D60616A0D60DE
:1045F0007119626B11600560206A0560206B0560AF
:1046000020E0616C0268891A49196164616A0B686B
:1046100002686769D7F800C0ACEB020CAC44C7F87D
:1046200000C09B1A5B190B607319666B3360236AB9
:104630001E68076809680560F01B40191860206B48
:10464000491C0160616A0868421C0A6080F80080A9
:104650000078BDE8F0810000A8EC02088011030892
:1046600020110308E811030888D90208D0D90208EC
:104670002DE9F04104460D4616461F46DDF8188028
:1046800001F05BFD2020E063002020646064E064B2
:104690002065C4F8488036B948F00400A064212D94
:1046A0002BDBE56329E0002D48BF6FF0004504D403
:1046B00003D13046FEF73AFD0546A81960643FB9BC
:1046C00020690660206A0660A819216B086014E062
:1046D000B74238BF374603D3A919B94238BFAF191B
:1046E00060690760606A0760A819616B08602069EB
:1046F0000660206A0660206B0760BDE8F08110B597
:10470000044694F8480000F00900012808D1206907
:10471000216D0A00006801D0884701E0FEF721FD05
:1047200000206064A06C20F00900A06410BD10B5EA
:104730000400206850F80C0C00198847200010BDB8
:10474000C160704701617047DFF810C0C0E900C167
:104750007047DFF80CC0F9E700000000414700088F
:104760004547000810B504000A00002C04D020685A
:1047700050F80C0C001900E00020516812689047B6
:10478000200010BD2DE9F0438FB0060014001D007D
:1047900000208DF81000310006A801F003FD01F0A3
:1047A00043FD00283DD0306850F80C0C811905A855
:1047B00001F03CFD05A801F03FFD070005A801F050
:1047C0007DFD306850F80C0C801901F086FD8046A4
:1047D000306850F80C0C801901F081FD814641468B
:1047E0000CA801F07FFDCDE902455FFA89F9CDF80B
:1047F0000490316851F80C1C89190091D0E900230C
:10480000390008A801F072FDDDE90801CDE90A01CF
:104810000AA801F081FD002803D0042104A801F0BA
:104820007EFD00229DF81010306850F80C0C8019A5
:1048300001F079FD06A801F089FD30000FB0BDE858
:10484000F083F0B589B004000E0000208DF8000060
:10485000210007A801F0A6FC01F0E6FC002800F00A
:10486000B480002C04D0206850F80C0C001900E033
:10487000002001F079FD022801DA00250AE0002C71
:1048800004D0206850F80C0C001900E0002001F062
:104890006BFD451E002C04D0206850F80C0C00194C
:1048A00000E0002001F062FD4FF4E07180B201F001
:1048B0005FFD402801D0012000E00020C0B20028A8
:1048C00021D19DF8000000286FD101F054FD069021
:1048D000002C33D0206850F80C0C00192FE0002079
:1048E00001F0FDFC0100C9B2380001F047FD039062
:1048F00003A904A801F05BFD002803D0042100A84F
:1049000001F00DFD6D1E9DF800000028D9D1012D8C
:10491000D7DB01F030FD0490002C04D0206850F863
:104920000C0C001900E0002001F0D7FC0700002C5F
:10493000D5D0206850F80C0C0019D1E7002001F008
:10494000CCFC3100C9B201F019FD059005A906A8FB
:1049500001F02DFD10F0010090F00100C0B2002820
:1049600023D1042100A801F0DAFC1EE0002001F0B0
:10497000B4FC0600002C04D0206850F80C0C001980
:1049800000E0002001F0ABFC0100C9B2300001F0F2
:10499000F5FC019001A902A801F009FD002803D04F
:1049A000042100A801F0BBFC6D1E9DF8000000284A
:1049B0000BD1012D09DB01F0DEFC0290002CD5D0DB
:1049C000206850F80C0C0019D1E7002C04D02068A6
:1049D00050F80C0C001900E00020002101F0F0FC60
:1049E000002C04D0206850F80C0C001900E00020C6
:1049F00000229DF8001001F096FC07A801F0A6FC2B
:104A0000200009B0F0BD80B501F0DEFC02BD70B53C
:104A100082B004000D00160000A801F0D6FC0100D1
:104A2000200001F0D3FC32002900200001F0D2FC6C
:104A3000200076BDF8B50400FEF795F92268D3177B
:104A40000B48D0E90045A4FB020104FB031105FB60
:104A50000211084AD2E900454FF47A760027A6FBF6
:104A6000042306FB053307FB0433FEF777FAF4BD96
:104A700080270020A000002076B504000D00200053
:104A800001F0BBFCA84201D2012000E00020C0B22E
:104A900000280DD0200001F0B4FC0600200001F039
:104AA000ACFC01AB2A1A3100200001F0B1FC1BE084
:104AB000200001F0A2FC854201D2012000E000208C
:104AC000C0B2002810D0200001F05EFD0090290047
:104AD00000A801F060FD0500200001F092FC02003A
:104AE0002900200001F05FFD73BD10B50400200017
:104AF00001F07AFD200010BD80B501F08DFD02BDF2
:104B0000406808187047C0E908237047F8B50400EA
:104B1000FEF729F92268D3170B48D0E90045A4FB1A
:104B2000020104FB031105FB0211084AD2E900450A
:104B3000074E0027A6FB042306FB053307FB0433BF
:104B4000FEF70CFAF4BD00BF80270020A000002073
:104B500040420F0062F30F2262F31F42401810F030
:104B6000030308D0C91A1FD3DB0748BF00F8012D83
:104B700028BF20F8022D130030B414461546103912
:104B800028BF20E93C00FAD8490728BF20E90C00DB
:104B900048BF40F8042D890028BF20F8022D48BFE7
:104BA00000F8012D30BC7047C91818BF00F8012D5E
:104BB000CB0728BF00F8012D70470800C0B270472E
:104BC00062B38B0708D0521E11F8013B00F8013B7D
:104BD00000F024808B07F6D1830740F0208000BFCF
:104BE000103A07D330B4B1E83810103AA0E83810C2
:104BF000F9D230BC530724BFB1E80810A0E8081070
:104C000044BF51F8043B40F8043BD20724BF31F8BD
:104C1000022B20F8022B44BF0B7803707047083A30
:104C200007D3B1E80810083A40F8043B40F804CB39
:104C3000F7D25307E4E780B501F0EFFC01BD200097
:104C400070B5054605F10F00C408E400012001F02D
:104C500025FDA5422BD2082C04D2082402E00830FE
:104C600000F02AFF244D286801000CD1291D086896
:104C7000B8B10268A24238BF011DF8D316E013682C
:104C8000A34213D2111D0A68002AF8D10068291D19
:104C900000E0111D0A68824203D01368A342F8D3D2
:104CA00004E001F04BFD0028D9D1002121B90120F9
:104CB00001F038FD002070BD0E683068A0F10802D8
:104CC000A2423CBF7068086007D3A2190A607368EB
:104CD0005360001B0A6810603460086800281DBF1C
:104CE00041680029001D00202860012001F01AFD04
:104CF00006F1080070BD00009827002080B500A8CC
:104D000001F03AFD01F091FD00A801F039FD01BD6F
:104D100080B501F007FE02BD2DE9F14D87B00C46CC
:104D200090469A46054607A801F0FDFD00F0080BE5
:104D3000BAF1000F1CBF0021CAF8001020F00800D3
:104D4000012835D10220009004AB2246079928465D
:104D500001F084FE040004BF0020CDE902001CD055
:104D60000598FEF7FBFECDE90201022C15DB06AE2D
:104D7000671EDDE902230020374901F04FFF04469A
:104D80000D4656F8040BFEF7E9FE22462B46FEF7C9
:104D900041FDCDE902017F1EEBD15346049800EBA3
:104DA0000802DDE9020102F048F8CDE9020149E01C
:104DB000022836D1009004AB22460799284602F01B
:104DC00003F9040004BF0020CDE902001CD00598BF
:104DD000FEF7C4FECDE90201022C15DB06AE671E0C
:104DE000DDE9022300201D4901F018FF04460D46AD
:104DF00056F8040BFEF7B2FE22462B46FEF70AFDDC
:104E0000CDE902017F1EEBD1049902A802F0E6F978
:104E100053464246DDE9020102F00FF8CDE90201F6
:104E200010E0032804BF00200D4905D0042806D156
:104E30004FF0FF306FF00041CDE9020102E00020A9
:104E4000CDE90200BBF1000FDDE9020118BF81F0DE
:104E5000004108B0BDE8F08D65CDCD410000B04106
:104E60000000F07F002357E7704780B502F043FA57
:104E700002BD38B504000D00002060600020A06075
:104E80000020E060002D01D1002032BD200002F0A2
:104E900039FAA84201D2012000E00020C0B2002867
:104EA00003D0200002F032FA0AE02900200002F0CC
:104EB00043FA60606068A060606810EB0510E06015
:104EC0000120E2E710B50400606800280CD0A26859
:104ED0006168200002F036FAE0686168401A021149
:104EE0006168200002F036FA002060600020A060B7
:104EF0000020E06010BD4168002901D1002003E0DE
:104F0000C1684068081A0011704738B50C001500D8
:104F10001A0003002900200002F021FA14EB05100A
:104F200032BD80B5816800A802F032FA006802BD87
:104F300072B583B0040015002000FEF7DFFD0028E5
:104F400001D1002608E0200002F029FA019001A911
:104F500003A802F02BFA06002B000122039920007F
:104F600002F029FA200002F01AFA0090310000A89D
:104F700002F0EDFA04B070BD704780B502F0EFFAB0
:104F800002BD38B504000D00002060600020A06064
:104F90000020E060002D01D1002032BD200000F093
:104FA00037FAA84201D2012000E00020C0B2002858
:104FB00003D0200000F030FA0BE02900200000F0C0
:104FC00041FA60606068A0601820616800FB05100D
:104FD000E0600120E1E710B50400606800280ED011
:104FE000A2686168200000F043FAE0686168401A36
:104FF000182190FBF1F26168200000F041FA0020D6
:1050000060600020A0600020E06010BD41680029C1
:1050100001D1002005E0C1684068081A182190FB02
:10502000F1F0704738B50C0015001A000300290094
:10503000200002F09BFA182000FB054032BD80B52D
:10504000816800A802F0ABFA006802BD72B583B0B7
:10505000040015002000FEF799FD002801D100266C
:1050600008E0200000F0F4F9019001A903A802F083
:105070009DFA06002B0001220399200002F09DFA00
:10508000200000F0E5F90090310000A802F06CFB70
:1050900004B070BD80B502F06FFB02BD30B583B0C7
:1050A00004000D0001A802F068FB0100200002F0DE
:1050B00065FB0020009000AA2900200002F062FB9E
:1050C00020003EBDF8B506000F0014001D003000A2
:1050D00002F074FB04483060B76016F10C00C0E9C0
:1050E00000453000F2BD00BF58F90208406810EBDF
:1050F0008100704780B5884702BD2DE9F04188B036
:1051000004000D0000208DF80000280002F0D0FC03
:105110000600002C04D0206850F80C0C001900E0A8
:10512000002001F021F9012811DB002C04D02068B7
:1051300050F80C0C001900E0002001F015F986422F
:1051400001DA012000E00020C0B2002801D10027D0
:105150000AE0002C04D0206850F80C0C001900E084
:10516000002001F001F9871B210005A801F01AF8C1
:1051700001F05AF8002804D1042100A801F0CFF86A
:105180009BE0002C04D0206850F80C0C001900E0C3
:10519000002001F0EBF84FF4E07180B201F0E8F884
:1051A000402801D0012000E00020C0B2002801D139
:1051B0002AE07F1E012F27DB01F0DDF80490002C90
:1051C00004D0206850F80C0C001900E0002001F019
:1051D00084F88046002C04D0206850F80C0C00198C
:1051E00000E0002001F07BF80100C9B2404601F068
:1051F000C5F8039003A904A801F0D9F80028D8D075
:10520000042100A801F08BF89DF80000002819D1B6
:10521000002C04D0206850F80C0C001900E000208D
:1052200001F05BF83200290002F046FCB04201D1E7
:10523000012000E00020C0B2002803D1042100A812
:1052400001F06DF89DF8000000282BD100E07F1ED2
:10525000012F27DB01F08FF80290002C04D020688A
:1052600050F80C0C001900E0002001F036F80500A1
:10527000002C04D0206850F80C0C001900E000202D
:1052800001F02DF80100C9B2280001F077F8019073
:1052900001A902A801F08BF80028D8D0042100A8A9
:1052A00001F03DF8002C04D0206850F80C0C0019D7
:1052B00000E00020002101F083F8002C04D02068D9
:1052C00050F80C0C001900E0002000229DF800109E
:1052D00001F029F805A801F039F8200008B0BDE870
:1052E000F0812DE9F0418EB004000E0000208DF811
:1052F0000C00210005A800F055FF00F095FF0028E4
:1053000050D0206850F80C0C011904A800F08EFF52
:1053100004A800F091FF050004A800F0CFFF20686A
:1053200050F80C0C001901F021F84FF4606180B2C4
:1053300001F01EF880B2B0F5806F03D080B2B0F5F6
:10534000006F00D1FFE7206850F80C0C001900F046
:10535000C4FF0700206850F80C0C001900F0BFFFD4
:10536000804639000BA800F0BDFF02965FFA88F86E
:10537000CDF80480216851F80C1C09190091D0E97E
:105380000023290007A802F09CFBDDE90701CDE915
:10539000090109A800F0C0FF002803D0042103A8D8
:1053A00000F0BDFF00229DF80C10206850F80C0C96
:1053B000001900F0B8FF05A800F0C8FF20000EB0EB
:1053C000BDE8F08181684068081A801070472000AD
:1053D00010B50400200002F088FB02482060200085
:1053E00010BD00BFB0D80208F8B504000D001600CB
:1053F000064F38682060201D02F07BFB3300DBB2D3
:105400002A003900200002F078FBF2BDC41703081F
:1054100080B502F087FB02BD00B58FB0084908A82F
:1054200002F088FB010000A802F09AFB01F0BDF930
:1054300000A802F0A1FB08A802F0A5FB0FB000BD78
:10544000C805030880B50800002102F0A5FB02BDD5
:1054500080B5416800A802F0A2F8006802BD10B54E
:105460000C0011001A000300200002F09BFB10BD8D
:1054700080B50B0011000200180002F0ACFB01BD6A
:1054800080B50800FEF7BDFF01BD4600224AC2E913
:1054900000017047204AD2E9000170471F4AD2E953
:1054A000000170471D4AC2E9000170471C4AD2E959
:1054B000000170471A4AC2E90001704730B4194927
:1054C00088420BD01849884208D01849884205D034
:1054D0001749884202D0174988420BD11048D0E9B9
:1054E000002302240025A4FB020104FB031105FB99
:1054F00002110AE00948D0E9002302240025A4FB98
:10550000020104FB031105FB021130BC70470A4A7B
:10551000C2E9000170470000A8000020B000002090
:10552000B80000200000014000040140004001409C
:105530000044014000480140C000002010B50400B4
:10554000200002F033F902482060200010BD00BFA7
:10555000F4EE020810B58F48007800280FD14C20D7
:10556000FEF7E6F8040005221921200002F0FAF9FE
:105570000100894802F03CFB864801210170864801
:1055800002F038FB10BD80B5FFF7E4FF012102688F
:105590009268904701BD80B5FFF7DCFF02210268E9
:1055A0009268904701BD80B5FFF7D4FF03210268E0
:1055B0009268904701BD80B5FFF7CCFF04210268D7
:1055C0009268904701BD80B5FFF7C4FF05210268CE
:1055D0009268904701BD80B5FFF7BCFF06210268C5
:1055E0009268904701BD80B5FFF7B4FF07210268BC
:1055F0009268904701BD80B5FFF7ACFF08210268B3
:105600009268904701BD80B5FFF7A4FF09210268A9
:105610009268904701BD80B5FFF79CFF0A210268A0
:10562000926890475D48006850F008005B49086048
:1056300001BD80B5FFF78EFF0C210268926890478C
:1056400057480068400840005549086054480068C1
:1056500030F0080052490860524800684008400095
:10566000504908604F48006830F002004D4908601A
:1056700001BD80B5FFF76EFF0D210268926890476B
:1056800001BD80B5FFF766FF0B2102689268904765
:1056900042480068C0F38020C00706D53F48006834
:1056A00050F480603D4908603FE03C480068C0F32A
:1056B000C020C00706D53948006850F4006037495B
:1056C000086032E035480068C0F30030C00706D5F6
:1056D0003248006850F480503049086025E02F4877
:1056E0000068C0F34030C00706D52C48006850F46D
:1056F00000502A49086018E028480068C0F380304C
:10570000C00706D52548006850F48040234908604A
:105710000BE022480068C0F3C030C00705D51F4821
:10572000006850F400401D49086001BD1E48006833
:1057300030F080001C4908601C48006840084000A8
:105740001A4908601948006830F0020017490860DB
:105750001648006830F0040014490860704780B5AE
:10576000FFF7F8FE0F210268926890470E48006824
:10577000400840000C4908600D480068400840009F
:105780000B4908600A48006830F0020008490860C8
:1057900001BD000066280020B4270020143C014011
:1057A0001000014010440140100401401018004056
:1057B000101C004080B5FFF7CDFE102102689268F2
:1057C000904701BD80B5FFF7C5FE112102689268C0
:1057D000904701BD80B5FFF7BDFE122102689268B7
:1057E000904701BD80B5FFF7B5FE132102689268AE
:1057F000904701BD80B5FFF7ADFE142102689268A5
:10580000904701BD80B5FFF7A5FE1521026892689B
:10581000904701BD80B5FFF79DFE16210268926892
:10582000904701BD80B5FFF795FE17210268926889
:10583000904701BD80B5FFF78DFE18210268926880
:10584000904701BDFEE780B50A0001001000126814
:105850005269904701BD10B50400200002F0CCF958
:10586000200010BD80B502F0C8F902BD00B58FB0B0
:10587000084908A802F05EF9010000A802F070F9DA
:1058800000F093FF00A802F077F908A802F07BF976
:105890000FB000BDA005030880B50800002102F08C
:1058A000B2F902BD80B50B0011000200180002F031
:1058B000AFF901BD80B50800FEF7A3FD01BD71B5CC
:1058C00083B00C0015001E0003A903A802F0ADF977
:1058D000009001A800A90A78027001A86A46017820
:1058E000117033002A002100039802F09FF97FBD58
:1058F00010B50400200002F0A9F9200010BD80B509
:10590000416800A8FFF7F4FF006802BD006809685D
:10591000401AC01070472DE9FF4704000D00160023
:105920001F002000FEF725FD8046002E00F0B98004
:105930002000FFF797FF81462000FDF7ABFAB9EB97
:105940000000B04201D2012000E00020C0B20028D7
:1059500003D02000FFF78AFFA3E02000FDF79AFAAA
:105960003018804501D2012000E00020C0B200289C
:1059700053D02000FFF776FFB0EB5800404502D22D
:105980005FF0000801E018EB58082000FDF782FAEC
:105990003018804501D2012000E00020C0B200286C
:1059A00004D02000FDF776FA16EB000841462000EF
:1059B000FFF772FF8146CA464B462A006168200005
:1059C00002F048F982463B00320051462000FEF7C3
:1059D000DAFC82465346A2682900200002F03AF918
:1059E0002000FDF757FA8619606800280CD0A268DD
:1059F00061682000FFF756FFE0686168401AC21036
:105A000061682000FFF756FF19EBC800E06019EB52
:105A1000C600A060C4F8049043E0A068401BC0101A
:105A2000B04221D2D7E90001CDE9000115EBC60350
:105A3000A2682900200002F00DF900ABA068401B0D
:105A4000B6EBE002A1682000FEF79DFCA06810EB19
:105A5000C600A06000AA7FF00700A16800FB061145
:105A6000280002F000F91CE0D7E90001CDE90201AD
:105A7000A768A3683A007FF0070000FB06712000CA
:105A800002F0E8F8A0603A007FF0070000FB067122
:105A9000280002F0F3F802AA15EBC601280002F074
:105AA000E2F8BDE8FF8780B50068009000A802F02A
:105AB000F2F8006802BDC20000B9704710B5A0F14D
:105AC00008042068082837D310F0070034D10120DB
:105AD00000F0E4FD1948416809B18C4203D26160CD
